{
  "_format": "hh-sol-artifact-1",
  "contractName": "Marketplace",
  "sourceName": "contracts/Marketplace.sol",
  "abi": [
    {
      "inputs": [
        {
          "internalType": "uint256",
          "name": "fee",
          "type": "uint256"
        }
      ],
      "stateMutability": "nonpayable",
      "type": "constructor"
    },
    {
      "anonymous": false,
      "inputs": [
        {
          "indexed": true,
          "internalType": "address",
          "name": "nftAddress",
          "type": "address"
        },
        {
          "indexed": true,
          "internalType": "uint256",
          "name": "tokenId",
          "type": "uint256"
        },
        {
          "indexed": true,
          "internalType": "uint256",
          "name": "itemId",
          "type": "uint256"
        },
        {
          "indexed": false,
          "internalType": "address",
          "name": "owner",
          "type": "address"
        },
        {
          "indexed": false,
          "internalType": "uint256",
          "name": "price",
          "type": "uint256"
        },
        {
          "indexed": false,
          "internalType": "bool",
          "name": "isListed",
          "type": "bool"
        }
      ],
      "name": "ItemListed",
      "type": "event"
    },
    {
      "anonymous": false,
      "inputs": [
        {
          "indexed": true,
          "internalType": "address",
          "name": "previousOwner",
          "type": "address"
        },
        {
          "indexed": true,
          "internalType": "address",
          "name": "newOwner",
          "type": "address"
        }
      ],
      "name": "OwnershipTransferred",
      "type": "event"
    },
    {
      "inputs": [
        {
          "internalType": "uint256",
          "name": "_itemId",
          "type": "uint256"
        }
      ],
      "name": "delistItem",
      "outputs": [],
      "stateMutability": "nonpayable",
      "type": "function"
    },
    {
      "inputs": [
        {
          "internalType": "uint256",
          "name": "_itemId",
          "type": "uint256"
        }
      ],
      "name": "getItemById",
      "outputs": [
        {
          "components": [
            {
              "internalType": "address",
              "name": "nftAddress",
              "type": "address"
            },
            {
              "internalType": "uint256",
              "name": "tokenId",
              "type": "uint256"
            },
            {
              "internalType": "uint256",
              "name": "itemId",
              "type": "uint256"
            },
            {
              "internalType": "address payable",
              "name": "owner",
              "type": "address"
            },
            {
              "internalType": "uint256",
              "name": "price",
              "type": "uint256"
            },
            {
              "internalType": "bool",
              "name": "isListed",
              "type": "bool"
            }
          ],
          "internalType": "struct Marketplace.Item",
          "name": "",
          "type": "tuple"
        }
      ],
      "stateMutability": "view",
      "type": "function"
    },
    {
      "inputs": [
        {
          "internalType": "uint256",
          "name": "tokenId",
          "type": "uint256"
        }
      ],
      "name": "getItemId",
      "outputs": [
        {
          "internalType": "uint256",
          "name": "itemId",
          "type": "uint256"
        }
      ],
      "stateMutability": "view",
      "type": "function"
    },
    {
      "inputs": [],
      "name": "getItemsOwned",
      "outputs": [
        {
          "components": [
            {
              "internalType": "address",
              "name": "nftAddress",
              "type": "address"
            },
            {
              "internalType": "uint256",
              "name": "tokenId",
              "type": "uint256"
            },
            {
              "internalType": "uint256",
              "name": "itemId",
              "type": "uint256"
            },
            {
              "internalType": "address payable",
              "name": "owner",
              "type": "address"
            },
            {
              "internalType": "uint256",
              "name": "price",
              "type": "uint256"
            },
            {
              "internalType": "bool",
              "name": "isListed",
              "type": "bool"
            }
          ],
          "internalType": "struct Marketplace.Item[]",
          "name": "",
          "type": "tuple[]"
        }
      ],
      "stateMutability": "view",
      "type": "function"
    },
    {
      "inputs": [],
      "name": "getListedItems",
      "outputs": [
        {
          "components": [
            {
              "internalType": "address",
              "name": "nftAddress",
              "type": "address"
            },
            {
              "internalType": "uint256",
              "name": "tokenId",
              "type": "uint256"
            },
            {
              "internalType": "uint256",
              "name": "itemId",
              "type": "uint256"
            },
            {
              "internalType": "address payable",
              "name": "owner",
              "type": "address"
            },
            {
              "internalType": "uint256",
              "name": "price",
              "type": "uint256"
            },
            {
              "internalType": "bool",
              "name": "isListed",
              "type": "bool"
            }
          ],
          "internalType": "struct Marketplace.Item[]",
          "name": "",
          "type": "tuple[]"
        }
      ],
      "stateMutability": "view",
      "type": "function"
    },
    {
      "inputs": [
        {
          "internalType": "address",
          "name": "nftAddress",
          "type": "address"
        },
        {
          "internalType": "uint256",
          "name": "_tokenId",
          "type": "uint256"
        },
        {
          "internalType": "uint256",
          "name": "price",
          "type": "uint256"
        }
      ],
      "name": "listItem",
      "outputs": [
        {
          "internalType": "uint256",
          "name": "_itemId",
          "type": "uint256"
        }
      ],
      "stateMutability": "nonpayable",
      "type": "function"
    },
    {
      "inputs": [
        {
          "internalType": "address",
          "name": "",
          "type": "address"
        },
        {
          "internalType": "address",
          "name": "",
          "type": "address"
        },
        {
          "internalType": "uint256",
          "name": "",
          "type": "uint256"
        },
        {
          "internalType": "bytes",
          "name": "",
          "type": "bytes"
        }
      ],
      "name": "onERC721Received",
      "outputs": [
        {
          "internalType": "bytes4",
          "name": "",
          "type": "bytes4"
        }
      ],
      "stateMutability": "nonpayable",
      "type": "function"
    },
    {
      "inputs": [],
      "name": "owner",
      "outputs": [
        {
          "internalType": "address",
          "name": "",
          "type": "address"
        }
      ],
      "stateMutability": "view",
      "type": "function"
    },
    {
      "inputs": [],
      "name": "protocolFee",
      "outputs": [
        {
          "internalType": "uint256",
          "name": "",
          "type": "uint256"
        }
      ],
      "stateMutability": "view",
      "type": "function"
    },
    {
      "inputs": [
        {
          "internalType": "address",
          "name": "nftAddress",
          "type": "address"
        },
        {
          "internalType": "uint256",
          "name": "_itemId",
          "type": "uint256"
        }
      ],
      "name": "purchaseItem",
      "outputs": [],
      "stateMutability": "payable",
      "type": "function"
    },
    {
      "inputs": [],
      "name": "renounceOwnership",
      "outputs": [],
      "stateMutability": "nonpayable",
      "type": "function"
    },
    {
      "inputs": [
        {
          "internalType": "address",
          "name": "newOwner",
          "type": "address"
        }
      ],
      "name": "transferOwnership",
      "outputs": [],
      "stateMutability": "nonpayable",
      "type": "function"
    },
    {
      "inputs": [
        {
          "internalType": "uint256",
          "name": "_itemId",
          "type": "uint256"
        },
        {
          "internalType": "uint256",
          "name": "newPrice",
          "type": "uint256"
        }
      ],
      "name": "updateListPrice",
      "outputs": [],
      "stateMutability": "nonpayable",
      "type": "function"
    },
    {
      "inputs": [
        {
          "internalType": "uint256",
          "name": "newFee",
          "type": "uint256"
        }
      ],
      "name": "updateProtocolFee",
      "outputs": [],
      "stateMutability": "nonpayable",
      "type": "function"
    }
  ],
  "bytecode": "0x60806040523480156200001157600080fd5b50604051620028ef380380620028ef833981810160405281019062000037919062000190565b620000576200004b620000ad60201b60201c565b620000b560201b60201c565b6001808190555033600360006101000a81548173ffffffffffffffffffffffffffffffffffffffff021916908373ffffffffffffffffffffffffffffffffffffffff1602179055508060048190555050620001e0565b600033905090565b60008060009054906101000a900473ffffffffffffffffffffffffffffffffffffffff169050816000806101000a81548173ffffffffffffffffffffffffffffffffffffffff021916908373ffffffffffffffffffffffffffffffffffffffff1602179055508173ffffffffffffffffffffffffffffffffffffffff168173ffffffffffffffffffffffffffffffffffffffff167f8be0079c531659141344cd1fd0a4f28419497f9722a3daafe3b4186f6b6457e060405160405180910390a35050565b6000815190506200018a81620001c6565b92915050565b600060208284031215620001a357600080fd5b6000620001b38482850162000179565b91505092915050565b6000819050919050565b620001d181620001bc565b8114620001dd57600080fd5b50565b6126ff80620001f06000396000f3fe6080604052600436106100dd5760003560e01c80638da5cb5b1161007f578063caf5069011610059578063caf506901461029d578063cd2f0710146102c8578063e9fd10bb14610305578063f2fde38b14610330576100dd565b80638da5cb5b1461020a578063a9a76ece14610235578063b0e21e8a14610272576100dd565b806332724900116100bb57806332724900146101715780634256dd781461018d578063715018a6146101b657806389bfd38f146101cd576100dd565b806310061631146100e2578063144dcbbc1461010b578063150b7a0214610134575b600080fd5b3480156100ee57600080fd5b5061010960048036038101906101049190611b9d565b610359565b005b34801561011757600080fd5b50610132600480360381019061012d9190611bc6565b6104ce565b005b34801561014057600080fd5b5061015b60048036038101906101569190611a5b565b61059d565b6040516101689190612004565b60405180910390f35b61018b60048036038101906101869190611ad6565b6105b1565b005b34801561019957600080fd5b506101b460048036038101906101af9190611b9d565b610932565b005b3480156101c257600080fd5b506101cb6109b8565b005b3480156101d957600080fd5b506101f460048036038101906101ef9190611b4e565b610a40565b604051610201919061215a565b60405180910390f35b34801561021657600080fd5b5061021f610ef2565b60405161022c9190611f59565b60405180910390f35b34801561024157600080fd5b5061025c60048036038101906102579190611b9d565b610f1b565b604051610269919061215a565b60405180910390f35b34801561027e57600080fd5b50610287610f38565b604051610294919061215a565b60405180910390f35b3480156102a957600080fd5b506102b2610f3e565b6040516102bf9190611fe2565b60405180910390f35b3480156102d457600080fd5b506102ef60048036038101906102ea9190611b9d565b611204565b6040516102fc919061213f565b60405180910390f35b34801561031157600080fd5b5061031a611316565b6040516103279190611fe2565b60405180910390f35b34801561033c57600080fd5b5061035760048036038101906103529190611a09565b611650565b005b803373ffffffffffffffffffffffffffffffffffffffff166005600083815260200190815260200160002060030160009054906101000a900473ffffffffffffffffffffffffffffffffffffffff1673ffffffffffffffffffffffffffffffffffffffff16146103fe576040517f08c379a00000000000000000000000000000000000000000000000000000000081526004016103f59061203f565b60405180910390fd5b600115156005600084815260200190815260200160002060050160009054906101000a900460ff16151514610468576040517f08c379a000000000000000000000000000000000000000000000000000000000815260040161045f9061205f565b60405180910390fd5b600060056000848152602001908152602001600020600101549050600660008281526020019081526020016000206000905560006005600085815260200190815260200160002060050160006101000a81548160ff021916908315150217905550505050565b813373ffffffffffffffffffffffffffffffffffffffff166005600083815260200190815260200160002060030160009054906101000a900473ffffffffffffffffffffffffffffffffffffffff1673ffffffffffffffffffffffffffffffffffffffff1614610573576040517f08c379a000000000000000000000000000000000000000000000000000000000815260040161056a9061203f565b60405180910390fd5b6000821115610598578160056000858152602001908152602001600020600401819055505b505050565b600063150b7a0260e01b9050949350505050565b600260015414156105f7576040517f08c379a00000000000000000000000000000000000000000000000000000000081526004016105ee9061211f565b60405180910390fd5b600260018190555060006005600083815260200190815260200160002060040154905060006005600084815260200190815260200160002060010154905060006005600085815260200190815260200160002060050160009054906101000a900460ff16905060006005600086815260200190815260200160002060030160009054906101000a900473ffffffffffffffffffffffffffffffffffffffff16905060011515821515146106df576040517f08c379a00000000000000000000000000000000000000000000000000000000081526004016106d6906120df565b60405180910390fd5b833414610721576040517f08c379a00000000000000000000000000000000000000000000000000000000081526004016107189061209f565b60405180910390fd5b6000808773ffffffffffffffffffffffffffffffffffffffff16632a55205a86886040518363ffffffff1660e01b815260040161075f929190612175565b604080518083038186803b15801561077657600080fd5b505afa15801561078a573d6000803e3d6000fd5b505050506040513d601f19601f820116820180604052508101906107ae9190611b12565b915091506000612710346004546107c5919061227a565b6107cf9190612249565b905060008282346107e091906122d4565b6107ea91906122d4565b90508973ffffffffffffffffffffffffffffffffffffffff166323b872dd86338a6040518463ffffffff1660e01b815260040161082993929190611f74565b600060405180830381600087803b15801561084357600080fd5b505af1158015610857573d6000803e3d6000fd5b5050505033600560008b815260200190815260200160002060030160006101000a81548173ffffffffffffffffffffffffffffffffffffffff021916908373ffffffffffffffffffffffffffffffffffffffff1602179055506000600560008b815260200190815260200160002060050160006101000a81548160ff02191690831515021790555061090b600360009054906101000a900473ffffffffffffffffffffffffffffffffffffffff1683611748565b6109158484611748565b61091f8582611748565b5050505050505050600180819055505050565b61093a6117f9565b73ffffffffffffffffffffffffffffffffffffffff16610958610ef2565b73ffffffffffffffffffffffffffffffffffffffff16146109ae576040517f08c379a00000000000000000000000000000000000000000000000000000000081526004016109a5906120bf565b60405180910390fd5b8060048190555050565b6109c06117f9565b73ffffffffffffffffffffffffffffffffffffffff166109de610ef2565b73ffffffffffffffffffffffffffffffffffffffff1614610a34576040517f08c379a0000000000000000000000000000000000000000000000000000000008152600401610a2b906120bf565b60405180910390fd5b610a3e6000611801565b565b60003373ffffffffffffffffffffffffffffffffffffffff168473ffffffffffffffffffffffffffffffffffffffff16636352211e856040518263ffffffff1660e01b8152600401610a92919061215a565b60206040518083038186803b158015610aaa57600080fd5b505afa158015610abe573d6000803e3d6000fd5b505050506040513d601f19601f82011682018060405250810190610ae29190611a32565b73ffffffffffffffffffffffffffffffffffffffff1614610b38576040517f08c379a0000000000000000000000000000000000000000000000000000000008152600401610b2f9061207f565b60405180910390fd5b6000600660008581526020019081526020016000205490506000831115610ee9576000811415610d2f57610b6c60026118c5565b6000610b7860026118db565b90506040518060c001604052808773ffffffffffffffffffffffffffffffffffffffff1681526020018681526020018281526020013373ffffffffffffffffffffffffffffffffffffffff168152602001858152602001600115158152506005600083815260200190815260200160002060008201518160000160006101000a81548173ffffffffffffffffffffffffffffffffffffffff021916908373ffffffffffffffffffffffffffffffffffffffff160217905550602082015181600101556040820151816002015560608201518160030160006101000a81548173ffffffffffffffffffffffffffffffffffffffff021916908373ffffffffffffffffffffffffffffffffffffffff1602179055506080820151816004015560a08201518160050160006101000a81548160ff02191690831515021790555090505080600660008781526020019081526020016000208190555080858773ffffffffffffffffffffffffffffffffffffffff167f945bcd45ca48b070398959da0d64f9ab26587893125448e37782a5323635aaa733886001604051610d1d93929190611fab565b60405180910390a48092505050610eeb565b60008190506040518060c001604052808773ffffffffffffffffffffffffffffffffffffffff1681526020018681526020018281526020013373ffffffffffffffffffffffffffffffffffffffff168152602001858152602001600115158152506005600083815260200190815260200160002060008201518160000160006101000a81548173ffffffffffffffffffffffffffffffffffffffff021916908373ffffffffffffffffffffffffffffffffffffffff160217905550602082015181600101556040820151816002015560608201518160030160006101000a81548173ffffffffffffffffffffffffffffffffffffffff021916908373ffffffffffffffffffffffffffffffffffffffff1602179055506080820151816004015560a08201518160050160006101000a81548160ff02191690831515021790555090505080600660008781526020019081526020016000208190555080858773ffffffffffffffffffffffffffffffffffffffff167f945bcd45ca48b070398959da0d64f9ab26587893125448e37782a5323635aaa733886001604051610ed793929190611fab565b60405180910390a48092505050610eeb565b505b9392505050565b60008060009054906101000a900473ffffffffffffffffffffffffffffffffffffffff16905090565b600060066000838152602001908152602001600020549050919050565b60045481565b60606000610f4c60026118db565b90506000806000600190505b838111610fb157600115156005600083815260200190815260200160002060050160009054906101000a900460ff1615151415610f9e578280610f9a906123ce565b9350505b8080610fa9906123ce565b915050610f58565b5060008267ffffffffffffffff811115610ff4577f4e487b7100000000000000000000000000000000000000000000000000000000600052604160045260246000fd5b60405190808252806020026020018201604052801561102d57816020015b61101a6118e9565b8152602001906001900390816110125790505b5090506000600190505b8481116111f957600115156005600083815260200190815260200160002060050160009054906101000a900460ff16151514156111e6576000600560008381526020019081526020016000206002015490506000600560008381526020019081526020016000209050806040518060c00160405290816000820160009054906101000a900473ffffffffffffffffffffffffffffffffffffffff1673ffffffffffffffffffffffffffffffffffffffff1673ffffffffffffffffffffffffffffffffffffffff16815260200160018201548152602001600282015481526020016003820160009054906101000a900473ffffffffffffffffffffffffffffffffffffffff1673ffffffffffffffffffffffffffffffffffffffff1673ffffffffffffffffffffffffffffffffffffffff168152602001600482015481526020016005820160009054906101000a900460ff1615151515815250508486815181106111ca577f4e487b7100000000000000000000000000000000000000000000000000000000600052603260045260246000fd5b602002602001018190525084806111e0906123ce565b95505050505b80806111f1906123ce565b915050611037565b508094505050505090565b61120c6118e9565b600560008381526020019081526020016000206040518060c00160405290816000820160009054906101000a900473ffffffffffffffffffffffffffffffffffffffff1673ffffffffffffffffffffffffffffffffffffffff1673ffffffffffffffffffffffffffffffffffffffff16815260200160018201548152602001600282015481526020016003820160009054906101000a900473ffffffffffffffffffffffffffffffffffffffff1673ffffffffffffffffffffffffffffffffffffffff1673ffffffffffffffffffffffffffffffffffffffff168152602001600482015481526020016005820160009054906101000a900460ff1615151515815250509050919050565b6060600061132460026118db565b90506000806000600190505b8381116113c3573373ffffffffffffffffffffffffffffffffffffffff166005600083815260200190815260200160002060030160009054906101000a900473ffffffffffffffffffffffffffffffffffffffff1673ffffffffffffffffffffffffffffffffffffffff1614156113b05782806113ac906123ce565b9350505b80806113bb906123ce565b915050611330565b5060008267ffffffffffffffff811115611406577f4e487b7100000000000000000000000000000000000000000000000000000000600052604160045260246000fd5b60405190808252806020026020018201604052801561143f57816020015b61142c6118e9565b8152602001906001900390816114245790505b5090506000600190505b848111611645573373ffffffffffffffffffffffffffffffffffffffff166005600083815260200190815260200160002060030160009054906101000a900473ffffffffffffffffffffffffffffffffffffffff1673ffffffffffffffffffffffffffffffffffffffff161415611632576000600560008381526020019081526020016000206002015490506000600560008381526020019081526020016000209050806040518060c00160405290816000820160009054906101000a900473ffffffffffffffffffffffffffffffffffffffff1673ffffffffffffffffffffffffffffffffffffffff1673ffffffffffffffffffffffffffffffffffffffff16815260200160018201548152602001600282015481526020016003820160009054906101000a900473ffffffffffffffffffffffffffffffffffffffff1673ffffffffffffffffffffffffffffffffffffffff1673ffffffffffffffffffffffffffffffffffffffff168152602001600482015481526020016005820160009054906101000a900460ff161515151581525050848681518110611616577f4e487b7100000000000000000000000000000000000000000000000000000000600052603260045260246000fd5b6020026020010181905250848061162c906123ce565b95505050505b808061163d906123ce565b915050611449565b508094505050505090565b6116586117f9565b73ffffffffffffffffffffffffffffffffffffffff16611676610ef2565b73ffffffffffffffffffffffffffffffffffffffff16146116cc576040517f08c379a00000000000000000000000000000000000000000000000000000000081526004016116c3906120bf565b60405180910390fd5b600073ffffffffffffffffffffffffffffffffffffffff168173ffffffffffffffffffffffffffffffffffffffff16141561173c576040517f08c379a00000000000000000000000000000000000000000000000000000000081526004016117339061201f565b60405180910390fd5b61174581611801565b50565b60008273ffffffffffffffffffffffffffffffffffffffff168260405161176e90611f44565b60006040518083038185875af1925050503d80600081146117ab576040519150601f19603f3d011682016040523d82523d6000602084013e6117b0565b606091505b50509050806117f4576040517f08c379a00000000000000000000000000000000000000000000000000000000081526004016117eb906120ff565b60405180910390fd5b505050565b600033905090565b60008060009054906101000a900473ffffffffffffffffffffffffffffffffffffffff169050816000806101000a81548173ffffffffffffffffffffffffffffffffffffffff021916908373ffffffffffffffffffffffffffffffffffffffff1602179055508173ffffffffffffffffffffffffffffffffffffffff168173ffffffffffffffffffffffffffffffffffffffff167f8be0079c531659141344cd1fd0a4f28419497f9722a3daafe3b4186f6b6457e060405160405180910390a35050565b6001816000016000828254019250508190555050565b600081600001549050919050565b6040518060c00160405280600073ffffffffffffffffffffffffffffffffffffffff1681526020016000815260200160008152602001600073ffffffffffffffffffffffffffffffffffffffff168152602001600081526020016000151581525090565b600061196061195b846121c3565b61219e565b90508281526020810184848401111561197857600080fd5b61198384828561238e565b509392505050565b60008135905061199a8161269b565b92915050565b6000815190506119af8161269b565b92915050565b600082601f8301126119c657600080fd5b81356119d684826020860161194d565b91505092915050565b6000813590506119ee816126b2565b92915050565b600081519050611a03816126b2565b92915050565b600060208284031215611a1b57600080fd5b6000611a298482850161198b565b91505092915050565b600060208284031215611a4457600080fd5b6000611a52848285016119a0565b91505092915050565b60008060008060808587031215611a7157600080fd5b6000611a7f8782880161198b565b9450506020611a908782880161198b565b9350506040611aa1878288016119df565b925050606085013567ffffffffffffffff811115611abe57600080fd5b611aca878288016119b5565b91505092959194509250565b60008060408385031215611ae957600080fd5b6000611af78582860161198b565b9250506020611b08858286016119df565b9150509250929050565b60008060408385031215611b2557600080fd5b6000611b33858286016119a0565b9250506020611b44858286016119f4565b9150509250929050565b600080600060608486031215611b6357600080fd5b6000611b718682870161198b565b9350506020611b82868287016119df565b9250506040611b93868287016119df565b9150509250925092565b600060208284031215611baf57600080fd5b6000611bbd848285016119df565b91505092915050565b60008060408385031215611bd957600080fd5b6000611be7858286016119df565b9250506020611bf8858286016119df565b9150509250929050565b6000611c0e8383611e30565b60c08301905092915050565b611c238161231a565b82525050565b611c3281612308565b82525050565b611c4181612308565b82525050565b6000611c5282612204565b611c5c818561221c565b9350611c67836121f4565b8060005b83811015611c98578151611c7f8882611c02565b9750611c8a8361220f565b925050600181019050611c6b565b5085935050505092915050565b611cae8161232c565b82525050565b611cbd8161232c565b82525050565b611ccc81612338565b82525050565b6000611cdf602683612238565b9150611cea826124b5565b604082019050919050565b6000611d02601883612238565b9150611d0d82612504565b602082019050919050565b6000611d25601383612238565b9150611d308261252d565b602082019050919050565b6000611d48601983612238565b9150611d5382612556565b602082019050919050565b6000611d6b602883612238565b9150611d768261257f565b604082019050919050565b6000611d8e602083612238565b9150611d99826125ce565b602082019050919050565b6000611db1601f83612238565b9150611dbc826125f7565b602082019050919050565b6000611dd4602c83612238565b9150611ddf82612620565b604082019050919050565b6000611df760008361222d565b9150611e028261266f565b600082019050919050565b6000611e1a601f83612238565b9150611e2582612672565b602082019050919050565b60c082016000820151611e466000850182611c29565b506020820151611e596020850182611f26565b506040820151611e6c6040850182611f26565b506060820151611e7f6060850182611c1a565b506080820151611e926080850182611f26565b5060a0820151611ea560a0850182611ca5565b50505050565b60c082016000820151611ec16000850182611c29565b506020820151611ed46020850182611f26565b506040820151611ee76040850182611f26565b506060820151611efa6060850182611c1a565b506080820151611f0d6080850182611f26565b5060a0820151611f2060a0850182611ca5565b50505050565b611f2f81612384565b82525050565b611f3e81612384565b82525050565b6000611f4f82611dea565b9150819050919050565b6000602082019050611f6e6000830184611c38565b92915050565b6000606082019050611f896000830186611c38565b611f966020830185611c38565b611fa36040830184611f35565b949350505050565b6000606082019050611fc06000830186611c38565b611fcd6020830185611f35565b611fda6040830184611cb4565b949350505050565b60006020820190508181036000830152611ffc8184611c47565b905092915050565b60006020820190506120196000830184611cc3565b92915050565b6000602082019050818103600083015261203881611cd2565b9050919050565b6000602082019050818103600083015261205881611cf5565b9050919050565b6000602082019050818103600083015261207881611d18565b9050919050565b6000602082019050818103600083015261209881611d3b565b9050919050565b600060208201905081810360008301526120b881611d5e565b9050919050565b600060208201905081810360008301526120d881611d81565b9050919050565b600060208201905081810360008301526120f881611da4565b9050919050565b6000602082019050818103600083015261211881611dc7565b9050919050565b6000602082019050818103600083015261213881611e0d565b9050919050565b600060c0820190506121546000830184611eab565b92915050565b600060208201905061216f6000830184611f35565b92915050565b600060408201905061218a6000830185611f35565b6121976020830184611f35565b9392505050565b60006121a86121b9565b90506121b4828261239d565b919050565b6000604051905090565b600067ffffffffffffffff8211156121de576121dd612475565b5b6121e7826124a4565b9050602081019050919050565b6000819050602082019050919050565b600081519050919050565b6000602082019050919050565b600082825260208201905092915050565b600081905092915050565b600082825260208201905092915050565b600061225482612384565b915061225f83612384565b92508261226f5761226e612446565b5b828204905092915050565b600061228582612384565b915061229083612384565b9250817fffffffffffffffffffffffffffffffffffffffffffffffffffffffffffffffff04831182151516156122c9576122c8612417565b5b828202905092915050565b60006122df82612384565b91506122ea83612384565b9250828210156122fd576122fc612417565b5b828203905092915050565b600061231382612364565b9050919050565b600061232582612364565b9050919050565b60008115159050919050565b60007fffffffff0000000000000000000000000000000000000000000000000000000082169050919050565b600073ffffffffffffffffffffffffffffffffffffffff82169050919050565b6000819050919050565b82818337600083830152505050565b6123a6826124a4565b810181811067ffffffffffffffff821117156123c5576123c4612475565b5b80604052505050565b60006123d982612384565b91507fffffffffffffffffffffffffffffffffffffffffffffffffffffffffffffffff82141561240c5761240b612417565b5b600182019050919050565b7f4e487b7100000000000000000000000000000000000000000000000000000000600052601160045260246000fd5b7f4e487b7100000000000000000000000000000000000000000000000000000000600052601260045260246000fd5b7f4e487b7100000000000000000000000000000000000000000000000000000000600052604160045260246000fd5b6000601f19601f8301169050919050565b7f4f776e61626c653a206e6577206f776e657220697320746865207a65726f206160008201527f6464726573730000000000000000000000000000000000000000000000000000602082015250565b7f43616c6c6572206973206e6f74206974656d206f776e65720000000000000000600082015250565b7f4974656d206973206e6f74206c69737465642e00000000000000000000000000600082015250565b7f43616c6c657220646f6573206e6f74206f776e20746f6b656e00000000000000600082015250565b7f506c656173652073656e642074686520636f727265637420616d6f756e74206f60008201527f662065746865722e000000000000000000000000000000000000000000000000602082015250565b7f4f776e61626c653a2063616c6c6572206973206e6f7420746865206f776e6572600082015250565b7f4974656d20726571756573746564206973206e6f7420666f722073616c652e00600082015250565b7f4661696c656420746f207472616e7366657220726f79616c7469657320746f2060008201527f6d61726b6574706c6163652e0000000000000000000000000000000000000000602082015250565b50565b7f5265656e7472616e637947756172643a207265656e7472616e742063616c6c00600082015250565b6126a481612308565b81146126af57600080fd5b50565b6126bb81612384565b81146126c657600080fd5b5056fea2646970667358221220fb4d7acdc125686f4cb6826152f475ffaa4e19afacd0f9a7753f7cf348d7d5bb64736f6c63430008040033",
  "linkReferences": {},
  "deployedLinkReferences": {}
}