{
  "_format": "hh-sol-artifact-1",
  "contractName": "Marketplace",
  "sourceName": "contracts/Marketplace.sol",
  "abi": [
    {
      "inputs": [
        {
          "internalType": "uint256",
          "name": "fee",
          "type": "uint256"
        }
      ],
      "stateMutability": "nonpayable",
      "type": "constructor"
    },
    {
      "anonymous": false,
      "inputs": [
        {
          "indexed": true,
          "internalType": "address",
          "name": "nftAddress",
          "type": "address"
        },
        {
          "indexed": true,
          "internalType": "uint256",
          "name": "tokenId",
          "type": "uint256"
        },
        {
          "indexed": true,
          "internalType": "uint256",
          "name": "itemId",
          "type": "uint256"
        },
        {
          "indexed": false,
          "internalType": "address",
          "name": "owner",
          "type": "address"
        },
        {
          "indexed": false,
          "internalType": "uint256",
          "name": "price",
          "type": "uint256"
        },
        {
          "indexed": false,
          "internalType": "bool",
          "name": "isListed",
          "type": "bool"
        }
      ],
      "name": "ItemListed",
      "type": "event"
    },
    {
      "anonymous": false,
      "inputs": [
        {
          "indexed": true,
          "internalType": "address",
          "name": "previousOwner",
          "type": "address"
        },
        {
          "indexed": true,
          "internalType": "address",
          "name": "newOwner",
          "type": "address"
        }
      ],
      "name": "OwnershipTransferred",
      "type": "event"
    },
    {
      "inputs": [
        {
          "internalType": "uint256",
          "name": "_itemId",
          "type": "uint256"
        }
      ],
      "name": "delistItem",
      "outputs": [],
      "stateMutability": "nonpayable",
      "type": "function"
    },
    {
      "inputs": [
        {
          "internalType": "uint256",
          "name": "_itemId",
          "type": "uint256"
        }
      ],
      "name": "getItemById",
      "outputs": [
        {
          "components": [
            {
              "internalType": "address",
              "name": "nftAddress",
              "type": "address"
            },
            {
              "internalType": "uint256",
              "name": "tokenId",
              "type": "uint256"
            },
            {
              "internalType": "uint256",
              "name": "itemId",
              "type": "uint256"
            },
            {
              "internalType": "address payable",
              "name": "owner",
              "type": "address"
            },
            {
              "internalType": "uint256",
              "name": "price",
              "type": "uint256"
            },
            {
              "internalType": "bool",
              "name": "isListed",
              "type": "bool"
            }
          ],
          "internalType": "struct Marketplace.Item",
          "name": "",
          "type": "tuple"
        }
      ],
      "stateMutability": "view",
      "type": "function"
    },
    {
      "inputs": [],
      "name": "getItemsOwned",
      "outputs": [
        {
          "components": [
            {
              "internalType": "address",
              "name": "nftAddress",
              "type": "address"
            },
            {
              "internalType": "uint256",
              "name": "tokenId",
              "type": "uint256"
            },
            {
              "internalType": "uint256",
              "name": "itemId",
              "type": "uint256"
            },
            {
              "internalType": "address payable",
              "name": "owner",
              "type": "address"
            },
            {
              "internalType": "uint256",
              "name": "price",
              "type": "uint256"
            },
            {
              "internalType": "bool",
              "name": "isListed",
              "type": "bool"
            }
          ],
          "internalType": "struct Marketplace.Item[]",
          "name": "",
          "type": "tuple[]"
        }
      ],
      "stateMutability": "view",
      "type": "function"
    },
    {
      "inputs": [],
      "name": "getListedItems",
      "outputs": [
        {
          "components": [
            {
              "internalType": "address",
              "name": "nftAddress",
              "type": "address"
            },
            {
              "internalType": "uint256",
              "name": "tokenId",
              "type": "uint256"
            },
            {
              "internalType": "uint256",
              "name": "itemId",
              "type": "uint256"
            },
            {
              "internalType": "address payable",
              "name": "owner",
              "type": "address"
            },
            {
              "internalType": "uint256",
              "name": "price",
              "type": "uint256"
            },
            {
              "internalType": "bool",
              "name": "isListed",
              "type": "bool"
            }
          ],
          "internalType": "struct Marketplace.Item[]",
          "name": "",
          "type": "tuple[]"
        }
      ],
      "stateMutability": "view",
      "type": "function"
    },
    {
      "inputs": [
        {
          "internalType": "address",
          "name": "nftAddress",
          "type": "address"
        },
        {
          "internalType": "uint256",
          "name": "_tokenId",
          "type": "uint256"
        },
        {
          "internalType": "uint256",
          "name": "price",
          "type": "uint256"
        }
      ],
      "name": "listItem",
      "outputs": [
        {
          "internalType": "uint256",
          "name": "_itemId",
          "type": "uint256"
        }
      ],
      "stateMutability": "nonpayable",
      "type": "function"
    },
    {
      "inputs": [],
      "name": "marketplaceFee",
      "outputs": [
        {
          "internalType": "uint256",
          "name": "",
          "type": "uint256"
        }
      ],
      "stateMutability": "view",
      "type": "function"
    },
    {
      "inputs": [
        {
          "internalType": "address",
          "name": "",
          "type": "address"
        },
        {
          "internalType": "address",
          "name": "",
          "type": "address"
        },
        {
          "internalType": "uint256",
          "name": "",
          "type": "uint256"
        },
        {
          "internalType": "bytes",
          "name": "",
          "type": "bytes"
        }
      ],
      "name": "onERC721Received",
      "outputs": [
        {
          "internalType": "bytes4",
          "name": "",
          "type": "bytes4"
        }
      ],
      "stateMutability": "nonpayable",
      "type": "function"
    },
    {
      "inputs": [],
      "name": "owner",
      "outputs": [
        {
          "internalType": "address",
          "name": "",
          "type": "address"
        }
      ],
      "stateMutability": "view",
      "type": "function"
    },
    {
      "inputs": [
        {
          "internalType": "address",
          "name": "nftAddress",
          "type": "address"
        },
        {
          "internalType": "uint256",
          "name": "_itemId",
          "type": "uint256"
        }
      ],
      "name": "purchaseItem",
      "outputs": [],
      "stateMutability": "payable",
      "type": "function"
    },
    {
      "inputs": [],
      "name": "renounceOwnership",
      "outputs": [],
      "stateMutability": "nonpayable",
      "type": "function"
    },
    {
      "inputs": [
        {
          "internalType": "address",
          "name": "newOwner",
          "type": "address"
        }
      ],
      "name": "transferOwnership",
      "outputs": [],
      "stateMutability": "nonpayable",
      "type": "function"
    },
    {
      "inputs": [
        {
          "internalType": "uint256",
          "name": "_itemId",
          "type": "uint256"
        },
        {
          "internalType": "uint256",
          "name": "newPrice",
          "type": "uint256"
        }
      ],
      "name": "updateListPrice",
      "outputs": [],
      "stateMutability": "nonpayable",
      "type": "function"
    },
    {
      "inputs": [
        {
          "internalType": "uint256",
          "name": "newFee",
          "type": "uint256"
        }
      ],
      "name": "updateMarketplaceFee",
      "outputs": [],
      "stateMutability": "nonpayable",
      "type": "function"
    }
  ],
  "bytecode": "0x60806040523480156200001157600080fd5b506040516200264638038062002646833981810160405281019062000037919062000190565b620000576200004b620000ad60201b60201c565b620000b560201b60201c565b6001808190555033600360006101000a81548173ffffffffffffffffffffffffffffffffffffffff021916908373ffffffffffffffffffffffffffffffffffffffff1602179055508060048190555050620001e0565b600033905090565b60008060009054906101000a900473ffffffffffffffffffffffffffffffffffffffff169050816000806101000a81548173ffffffffffffffffffffffffffffffffffffffff021916908373ffffffffffffffffffffffffffffffffffffffff1602179055508173ffffffffffffffffffffffffffffffffffffffff168173ffffffffffffffffffffffffffffffffffffffff167f8be0079c531659141344cd1fd0a4f28419497f9722a3daafe3b4186f6b6457e060405160405180910390a35050565b6000815190506200018a81620001c6565b92915050565b600060208284031215620001a357600080fd5b6000620001b38482850162000179565b91505092915050565b6000819050919050565b620001d181620001bc565b8114620001dd57600080fd5b50565b61245680620001f06000396000f3fe6080604052600436106100c25760003560e01c8063715018a61161007f578063caf5069011610059578063caf5069014610245578063cd2f071014610270578063e9fd10bb146102ad578063f2fde38b146102d8576100c2565b8063715018a6146101c657806389bfd38f146101dd5780638da5cb5b1461021a576100c2565b806310061631146100c7578063144dcbbc146100f0578063150b7a021461011957806330eb80cd14610156578063327249001461017f5780636a1669641461019b575b600080fd5b3480156100d357600080fd5b506100ee60048036038101906100e991906118f4565b610301565b005b3480156100fc57600080fd5b506101176004803603810190610112919061191d565b610443565b005b34801561012557600080fd5b50610140600480360381019061013b91906117b2565b610512565b60405161014d9190611d5b565b60405180910390f35b34801561016257600080fd5b5061017d600480360381019061017891906118f4565b610526565b005b6101996004803603810190610194919061182d565b6105ac565b005b3480156101a757600080fd5b506101b061092d565b6040516101bd9190611eb1565b60405180910390f35b3480156101d257600080fd5b506101db610933565b005b3480156101e957600080fd5b5061020460048036038101906101ff91906118a5565b6109bb565b6040516102119190611eb1565b60405180910390f35b34801561022657600080fd5b5061022f610c78565b60405161023c9190611cb0565b60405180910390f35b34801561025157600080fd5b5061025a610ca1565b6040516102679190611d39565b60405180910390f35b34801561027c57600080fd5b50610297600480360381019061029291906118f4565b610f61565b6040516102a49190611e96565b60405180910390f35b3480156102b957600080fd5b506102c2611073565b6040516102cf9190611d39565b60405180910390f35b3480156102e457600080fd5b506102ff60048036038101906102fa9190611760565b6113a7565b005b803373ffffffffffffffffffffffffffffffffffffffff166005600083815260200190815260200160002060030160009054906101000a900473ffffffffffffffffffffffffffffffffffffffff1673ffffffffffffffffffffffffffffffffffffffff16146103a6576040517f08c379a000000000000000000000000000000000000000000000000000000000815260040161039d90611d96565b60405180910390fd5b600115156005600084815260200190815260200160002060050160009054906101000a900460ff16151514610410576040517f08c379a000000000000000000000000000000000000000000000000000000000815260040161040790611db6565b60405180910390fd5b60006005600084815260200190815260200160002060050160006101000a81548160ff0219169083151502179055505050565b813373ffffffffffffffffffffffffffffffffffffffff166005600083815260200190815260200160002060030160009054906101000a900473ffffffffffffffffffffffffffffffffffffffff1673ffffffffffffffffffffffffffffffffffffffff16146104e8576040517f08c379a00000000000000000000000000000000000000000000000000000000081526004016104df90611d96565b60405180910390fd5b600082111561050d578160056000858152602001908152602001600020600401819055505b505050565b600063150b7a0260e01b9050949350505050565b61052e61149f565b73ffffffffffffffffffffffffffffffffffffffff1661054c610c78565b73ffffffffffffffffffffffffffffffffffffffff16146105a2576040517f08c379a000000000000000000000000000000000000000000000000000000000815260040161059990611e16565b60405180910390fd5b8060048190555050565b600260015414156105f2576040517f08c379a00000000000000000000000000000000000000000000000000000000081526004016105e990611e76565b60405180910390fd5b600260018190555060006005600083815260200190815260200160002060040154905060006005600084815260200190815260200160002060010154905060006005600085815260200190815260200160002060050160009054906101000a900460ff16905060006005600086815260200190815260200160002060030160009054906101000a900473ffffffffffffffffffffffffffffffffffffffff16905060011515821515146106da576040517f08c379a00000000000000000000000000000000000000000000000000000000081526004016106d190611e36565b60405180910390fd5b83341461071c576040517f08c379a000000000000000000000000000000000000000000000000000000000815260040161071390611df6565b60405180910390fd5b6000808773ffffffffffffffffffffffffffffffffffffffff16632a55205a86886040518363ffffffff1660e01b815260040161075a929190611ecc565b604080518083038186803b15801561077157600080fd5b505afa158015610785573d6000803e3d6000fd5b505050506040513d601f19601f820116820180604052508101906107a99190611869565b915091506000612710346004546107c09190611fd1565b6107ca9190611fa0565b905060008282346107db919061202b565b6107e5919061202b565b90508973ffffffffffffffffffffffffffffffffffffffff166323b872dd86338a6040518463ffffffff1660e01b815260040161082493929190611ccb565b600060405180830381600087803b15801561083e57600080fd5b505af1158015610852573d6000803e3d6000fd5b5050505033600560008b815260200190815260200160002060030160006101000a81548173ffffffffffffffffffffffffffffffffffffffff021916908373ffffffffffffffffffffffffffffffffffffffff1602179055506000600560008b815260200190815260200160002060050160006101000a81548160ff021916908315150217905550610906600360009054906101000a900473ffffffffffffffffffffffffffffffffffffffff16836114a7565b61091084846114a7565b61091a85826114a7565b5050505050505050600180819055505050565b60045481565b61093b61149f565b73ffffffffffffffffffffffffffffffffffffffff16610959610c78565b73ffffffffffffffffffffffffffffffffffffffff16146109af576040517f08c379a00000000000000000000000000000000000000000000000000000000081526004016109a690611e16565b60405180910390fd5b6109b96000611558565b565b60003373ffffffffffffffffffffffffffffffffffffffff168473ffffffffffffffffffffffffffffffffffffffff16636352211e856040518263ffffffff1660e01b8152600401610a0d9190611eb1565b60206040518083038186803b158015610a2557600080fd5b505afa158015610a39573d6000803e3d6000fd5b505050506040513d601f19601f82011682018060405250810190610a5d9190611789565b73ffffffffffffffffffffffffffffffffffffffff1614610ab3576040517f08c379a0000000000000000000000000000000000000000000000000000000008152600401610aaa90611dd6565b60405180910390fd5b6000821115610c70576000610ac8600261161c565b90506040518060c001604052808673ffffffffffffffffffffffffffffffffffffffff1681526020018581526020018281526020013373ffffffffffffffffffffffffffffffffffffffff168152602001848152602001600115158152506005600083815260200190815260200160002060008201518160000160006101000a81548173ffffffffffffffffffffffffffffffffffffffff021916908373ffffffffffffffffffffffffffffffffffffffff160217905550602082015181600101556040820151816002015560608201518160030160006101000a81548173ffffffffffffffffffffffffffffffffffffffff021916908373ffffffffffffffffffffffffffffffffffffffff1602179055506080820151816004015560a08201518160050160006101000a81548160ff021916908315150217905550905050610c12600261162a565b80848673ffffffffffffffffffffffffffffffffffffffff167f945bcd45ca48b070398959da0d64f9ab26587893125448e37782a5323635aaa733876001604051610c5f93929190611d02565b60405180910390a480915050610c71565b5b9392505050565b60008060009054906101000a900473ffffffffffffffffffffffffffffffffffffffff16905090565b60606000610caf600261161c565b905060008060005b83811015610d1157600115156005600083815260200190815260200160002060050160009054906101000a900460ff1615151415610cfe578280610cfa90612125565b9350505b8080610d0990612125565b915050610cb7565b5060008267ffffffffffffffff811115610d54577f4e487b7100000000000000000000000000000000000000000000000000000000600052604160045260246000fd5b604051908082528060200260200182016040528015610d8d57816020015b610d7a611640565b815260200190600190039081610d725790505b50905060005b84811015610f5657600115156005600083815260200190815260200160002060050160009054906101000a900460ff1615151415610f43576000600560008381526020019081526020016000206002015490506000600560008381526020019081526020016000209050806040518060c00160405290816000820160009054906101000a900473ffffffffffffffffffffffffffffffffffffffff1673ffffffffffffffffffffffffffffffffffffffff1673ffffffffffffffffffffffffffffffffffffffff16815260200160018201548152602001600282015481526020016003820160009054906101000a900473ffffffffffffffffffffffffffffffffffffffff1673ffffffffffffffffffffffffffffffffffffffff1673ffffffffffffffffffffffffffffffffffffffff168152602001600482015481526020016005820160009054906101000a900460ff161515151581525050848681518110610f27577f4e487b7100000000000000000000000000000000000000000000000000000000600052603260045260246000fd5b60200260200101819052508480610f3d90612125565b95505050505b8080610f4e90612125565b915050610d93565b508094505050505090565b610f69611640565b600560008381526020019081526020016000206040518060c00160405290816000820160009054906101000a900473ffffffffffffffffffffffffffffffffffffffff1673ffffffffffffffffffffffffffffffffffffffff1673ffffffffffffffffffffffffffffffffffffffff16815260200160018201548152602001600282015481526020016003820160009054906101000a900473ffffffffffffffffffffffffffffffffffffffff1673ffffffffffffffffffffffffffffffffffffffff1673ffffffffffffffffffffffffffffffffffffffff168152602001600482015481526020016005820160009054906101000a900460ff1615151515815250509050919050565b60606000611081600261161c565b905060008060005b8381101561111d573373ffffffffffffffffffffffffffffffffffffffff166005600083815260200190815260200160002060030160009054906101000a900473ffffffffffffffffffffffffffffffffffffffff1673ffffffffffffffffffffffffffffffffffffffff16141561110a57828061110690612125565b9350505b808061111590612125565b915050611089565b5060008267ffffffffffffffff811115611160577f4e487b7100000000000000000000000000000000000000000000000000000000600052604160045260246000fd5b60405190808252806020026020018201604052801561119957816020015b611186611640565b81526020019060019003908161117e5790505b50905060005b8481101561139c573373ffffffffffffffffffffffffffffffffffffffff166005600083815260200190815260200160002060030160009054906101000a900473ffffffffffffffffffffffffffffffffffffffff1673ffffffffffffffffffffffffffffffffffffffff161415611389576000600560008381526020019081526020016000206002015490506000600560008381526020019081526020016000209050806040518060c00160405290816000820160009054906101000a900473ffffffffffffffffffffffffffffffffffffffff1673ffffffffffffffffffffffffffffffffffffffff1673ffffffffffffffffffffffffffffffffffffffff16815260200160018201548152602001600282015481526020016003820160009054906101000a900473ffffffffffffffffffffffffffffffffffffffff1673ffffffffffffffffffffffffffffffffffffffff1673ffffffffffffffffffffffffffffffffffffffff168152602001600482015481526020016005820160009054906101000a900460ff16151515158152505084868151811061136d577f4e487b7100000000000000000000000000000000000000000000000000000000600052603260045260246000fd5b6020026020010181905250848061138390612125565b95505050505b808061139490612125565b91505061119f565b508094505050505090565b6113af61149f565b73ffffffffffffffffffffffffffffffffffffffff166113cd610c78565b73ffffffffffffffffffffffffffffffffffffffff1614611423576040517f08c379a000000000000000000000000000000000000000000000000000000000815260040161141a90611e16565b60405180910390fd5b600073ffffffffffffffffffffffffffffffffffffffff168173ffffffffffffffffffffffffffffffffffffffff161415611493576040517f08c379a000000000000000000000000000000000000000000000000000000000815260040161148a90611d76565b60405180910390fd5b61149c81611558565b50565b600033905090565b60008273ffffffffffffffffffffffffffffffffffffffff16826040516114cd90611c9b565b60006040518083038185875af1925050503d806000811461150a576040519150601f19603f3d011682016040523d82523d6000602084013e61150f565b606091505b5050905080611553576040517f08c379a000000000000000000000000000000000000000000000000000000000815260040161154a90611e56565b60405180910390fd5b505050565b60008060009054906101000a900473ffffffffffffffffffffffffffffffffffffffff169050816000806101000a81548173ffffffffffffffffffffffffffffffffffffffff021916908373ffffffffffffffffffffffffffffffffffffffff1602179055508173ffffffffffffffffffffffffffffffffffffffff168173ffffffffffffffffffffffffffffffffffffffff167f8be0079c531659141344cd1fd0a4f28419497f9722a3daafe3b4186f6b6457e060405160405180910390a35050565b600081600001549050919050565b6001816000016000828254019250508190555050565b6040518060c00160405280600073ffffffffffffffffffffffffffffffffffffffff1681526020016000815260200160008152602001600073ffffffffffffffffffffffffffffffffffffffff168152602001600081526020016000151581525090565b60006116b76116b284611f1a565b611ef5565b9050828152602081018484840111156116cf57600080fd5b6116da8482856120e5565b509392505050565b6000813590506116f1816123f2565b92915050565b600081519050611706816123f2565b92915050565b600082601f83011261171d57600080fd5b813561172d8482602086016116a4565b91505092915050565b60008135905061174581612409565b92915050565b60008151905061175a81612409565b92915050565b60006020828403121561177257600080fd5b6000611780848285016116e2565b91505092915050565b60006020828403121561179b57600080fd5b60006117a9848285016116f7565b91505092915050565b600080600080608085870312156117c857600080fd5b60006117d6878288016116e2565b94505060206117e7878288016116e2565b93505060406117f887828801611736565b925050606085013567ffffffffffffffff81111561181557600080fd5b6118218782880161170c565b91505092959194509250565b6000806040838503121561184057600080fd5b600061184e858286016116e2565b925050602061185f85828601611736565b9150509250929050565b6000806040838503121561187c57600080fd5b600061188a858286016116f7565b925050602061189b8582860161174b565b9150509250929050565b6000806000606084860312156118ba57600080fd5b60006118c8868287016116e2565b93505060206118d986828701611736565b92505060406118ea86828701611736565b9150509250925092565b60006020828403121561190657600080fd5b600061191484828501611736565b91505092915050565b6000806040838503121561193057600080fd5b600061193e85828601611736565b925050602061194f85828601611736565b9150509250929050565b60006119658383611b87565b60c08301905092915050565b61197a81612071565b82525050565b6119898161205f565b82525050565b6119988161205f565b82525050565b60006119a982611f5b565b6119b38185611f73565b93506119be83611f4b565b8060005b838110156119ef5781516119d68882611959565b97506119e183611f66565b9250506001810190506119c2565b5085935050505092915050565b611a0581612083565b82525050565b611a1481612083565b82525050565b611a238161208f565b82525050565b6000611a36602683611f8f565b9150611a418261220c565b604082019050919050565b6000611a59601883611f8f565b9150611a648261225b565b602082019050919050565b6000611a7c601383611f8f565b9150611a8782612284565b602082019050919050565b6000611a9f601983611f8f565b9150611aaa826122ad565b602082019050919050565b6000611ac2602883611f8f565b9150611acd826122d6565b604082019050919050565b6000611ae5602083611f8f565b9150611af082612325565b602082019050919050565b6000611b08601f83611f8f565b9150611b138261234e565b602082019050919050565b6000611b2b602c83611f8f565b9150611b3682612377565b604082019050919050565b6000611b4e600083611f84565b9150611b59826123c6565b600082019050919050565b6000611b71601f83611f8f565b9150611b7c826123c9565b602082019050919050565b60c082016000820151611b9d6000850182611980565b506020820151611bb06020850182611c7d565b506040820151611bc36040850182611c7d565b506060820151611bd66060850182611971565b506080820151611be96080850182611c7d565b5060a0820151611bfc60a08501826119fc565b50505050565b60c082016000820151611c186000850182611980565b506020820151611c2b6020850182611c7d565b506040820151611c3e6040850182611c7d565b506060820151611c516060850182611971565b506080820151611c646080850182611c7d565b5060a0820151611c7760a08501826119fc565b50505050565b611c86816120db565b82525050565b611c95816120db565b82525050565b6000611ca682611b41565b9150819050919050565b6000602082019050611cc5600083018461198f565b92915050565b6000606082019050611ce0600083018661198f565b611ced602083018561198f565b611cfa6040830184611c8c565b949350505050565b6000606082019050611d17600083018661198f565b611d246020830185611c8c565b611d316040830184611a0b565b949350505050565b60006020820190508181036000830152611d53818461199e565b905092915050565b6000602082019050611d706000830184611a1a565b92915050565b60006020820190508181036000830152611d8f81611a29565b9050919050565b60006020820190508181036000830152611daf81611a4c565b9050919050565b60006020820190508181036000830152611dcf81611a6f565b9050919050565b60006020820190508181036000830152611def81611a92565b9050919050565b60006020820190508181036000830152611e0f81611ab5565b9050919050565b60006020820190508181036000830152611e2f81611ad8565b9050919050565b60006020820190508181036000830152611e4f81611afb565b9050919050565b60006020820190508181036000830152611e6f81611b1e565b9050919050565b60006020820190508181036000830152611e8f81611b64565b9050919050565b600060c082019050611eab6000830184611c02565b92915050565b6000602082019050611ec66000830184611c8c565b92915050565b6000604082019050611ee16000830185611c8c565b611eee6020830184611c8c565b9392505050565b6000611eff611f10565b9050611f0b82826120f4565b919050565b6000604051905090565b600067ffffffffffffffff821115611f3557611f346121cc565b5b611f3e826121fb565b9050602081019050919050565b6000819050602082019050919050565b600081519050919050565b6000602082019050919050565b600082825260208201905092915050565b600081905092915050565b600082825260208201905092915050565b6000611fab826120db565b9150611fb6836120db565b925082611fc657611fc561219d565b5b828204905092915050565b6000611fdc826120db565b9150611fe7836120db565b9250817fffffffffffffffffffffffffffffffffffffffffffffffffffffffffffffffff04831182151516156120205761201f61216e565b5b828202905092915050565b6000612036826120db565b9150612041836120db565b9250828210156120545761205361216e565b5b828203905092915050565b600061206a826120bb565b9050919050565b600061207c826120bb565b9050919050565b60008115159050919050565b60007fffffffff0000000000000000000000000000000000000000000000000000000082169050919050565b600073ffffffffffffffffffffffffffffffffffffffff82169050919050565b6000819050919050565b82818337600083830152505050565b6120fd826121fb565b810181811067ffffffffffffffff8211171561211c5761211b6121cc565b5b80604052505050565b6000612130826120db565b91507fffffffffffffffffffffffffffffffffffffffffffffffffffffffffffffffff8214156121635761216261216e565b5b600182019050919050565b7f4e487b7100000000000000000000000000000000000000000000000000000000600052601160045260246000fd5b7f4e487b7100000000000000000000000000000000000000000000000000000000600052601260045260246000fd5b7f4e487b7100000000000000000000000000000000000000000000000000000000600052604160045260246000fd5b6000601f19601f8301169050919050565b7f4f776e61626c653a206e6577206f776e657220697320746865207a65726f206160008201527f6464726573730000000000000000000000000000000000000000000000000000602082015250565b7f43616c6c6572206973206e6f74206974656d206f776e65720000000000000000600082015250565b7f4974656d206973206e6f74206c69737465642e00000000000000000000000000600082015250565b7f43616c6c657220646f6573206e6f74206f776e20746f6b656e00000000000000600082015250565b7f506c656173652073656e642074686520636f727265637420616d6f756e74206f60008201527f662065746865722e000000000000000000000000000000000000000000000000602082015250565b7f4f776e61626c653a2063616c6c6572206973206e6f7420746865206f776e6572600082015250565b7f4974656d20726571756573746564206973206e6f7420666f722073616c652e00600082015250565b7f4661696c656420746f207472616e7366657220726f79616c7469657320746f2060008201527f6d61726b6574706c6163652e0000000000000000000000000000000000000000602082015250565b50565b7f5265656e7472616e637947756172643a207265656e7472616e742063616c6c00600082015250565b6123fb8161205f565b811461240657600080fd5b50565b612412816120db565b811461241d57600080fd5b5056fea2646970667358221220c4431fd723ff3c3b9588c611cac8827f40313d4d542b4d8fb2021d273cf15c2d64736f6c63430008040033",
  "linkReferences": {},
  "deployedLinkReferences": {}
}