{
  "_format": "hh-sol-artifact-1",
  "contractName": "Marketplace",
  "sourceName": "contracts/Marketplace.sol",
  "abi": [
    {
      "inputs": [
        {
          "internalType": "uint256",
          "name": "fee",
          "type": "uint256"
        }
      ],
      "stateMutability": "nonpayable",
      "type": "constructor"
    },
    {
      "anonymous": false,
      "inputs": [
        {
          "indexed": true,
          "internalType": "address",
          "name": "nftAddress",
          "type": "address"
        },
        {
          "indexed": true,
          "internalType": "uint256",
          "name": "tokenId",
          "type": "uint256"
        },
        {
          "indexed": true,
          "internalType": "uint256",
          "name": "itemId",
          "type": "uint256"
        },
        {
          "indexed": false,
          "internalType": "address",
          "name": "owner",
          "type": "address"
        },
        {
          "indexed": false,
          "internalType": "uint256",
          "name": "price",
          "type": "uint256"
        },
        {
          "indexed": false,
          "internalType": "bool",
          "name": "isListed",
          "type": "bool"
        }
      ],
      "name": "ItemListed",
      "type": "event"
    },
    {
      "anonymous": false,
      "inputs": [
        {
          "indexed": true,
          "internalType": "address",
          "name": "previousOwner",
          "type": "address"
        },
        {
          "indexed": true,
          "internalType": "address",
          "name": "newOwner",
          "type": "address"
        }
      ],
      "name": "OwnershipTransferred",
      "type": "event"
    },
    {
      "inputs": [
        {
          "internalType": "uint256",
          "name": "_itemId",
          "type": "uint256"
        }
      ],
      "name": "delistItem",
      "outputs": [],
      "stateMutability": "nonpayable",
      "type": "function"
    },
    {
      "inputs": [
        {
          "internalType": "uint256",
          "name": "_itemId",
          "type": "uint256"
        }
      ],
      "name": "getItemById",
      "outputs": [
        {
          "components": [
            {
              "internalType": "address",
              "name": "nftAddress",
              "type": "address"
            },
            {
              "internalType": "uint256",
              "name": "tokenId",
              "type": "uint256"
            },
            {
              "internalType": "uint256",
              "name": "itemId",
              "type": "uint256"
            },
            {
              "internalType": "address payable",
              "name": "owner",
              "type": "address"
            },
            {
              "internalType": "uint256",
              "name": "price",
              "type": "uint256"
            },
            {
              "internalType": "bool",
              "name": "isListed",
              "type": "bool"
            }
          ],
          "internalType": "struct Marketplace.Item",
          "name": "",
          "type": "tuple"
        }
      ],
      "stateMutability": "view",
      "type": "function"
    },
    {
      "inputs": [],
      "name": "getItemsOwned",
      "outputs": [
        {
          "components": [
            {
              "internalType": "address",
              "name": "nftAddress",
              "type": "address"
            },
            {
              "internalType": "uint256",
              "name": "tokenId",
              "type": "uint256"
            },
            {
              "internalType": "uint256",
              "name": "itemId",
              "type": "uint256"
            },
            {
              "internalType": "address payable",
              "name": "owner",
              "type": "address"
            },
            {
              "internalType": "uint256",
              "name": "price",
              "type": "uint256"
            },
            {
              "internalType": "bool",
              "name": "isListed",
              "type": "bool"
            }
          ],
          "internalType": "struct Marketplace.Item[]",
          "name": "",
          "type": "tuple[]"
        }
      ],
      "stateMutability": "view",
      "type": "function"
    },
    {
      "inputs": [],
      "name": "getListedItems",
      "outputs": [
        {
          "components": [
            {
              "internalType": "address",
              "name": "nftAddress",
              "type": "address"
            },
            {
              "internalType": "uint256",
              "name": "tokenId",
              "type": "uint256"
            },
            {
              "internalType": "uint256",
              "name": "itemId",
              "type": "uint256"
            },
            {
              "internalType": "address payable",
              "name": "owner",
              "type": "address"
            },
            {
              "internalType": "uint256",
              "name": "price",
              "type": "uint256"
            },
            {
              "internalType": "bool",
              "name": "isListed",
              "type": "bool"
            }
          ],
          "internalType": "struct Marketplace.Item[]",
          "name": "",
          "type": "tuple[]"
        }
      ],
      "stateMutability": "view",
      "type": "function"
    },
    {
      "inputs": [
        {
          "internalType": "address",
          "name": "nftAddress",
          "type": "address"
        },
        {
          "internalType": "uint256",
          "name": "_tokenId",
          "type": "uint256"
        },
        {
          "internalType": "uint256",
          "name": "price",
          "type": "uint256"
        }
      ],
      "name": "listItem",
      "outputs": [
        {
          "internalType": "uint256",
          "name": "_itemId",
          "type": "uint256"
        }
      ],
      "stateMutability": "nonpayable",
      "type": "function"
    },
    {
      "inputs": [],
      "name": "marketplaceFee",
      "outputs": [
        {
          "internalType": "uint256",
          "name": "",
          "type": "uint256"
        }
      ],
      "stateMutability": "view",
      "type": "function"
    },
    {
      "inputs": [
        {
          "internalType": "address",
          "name": "",
          "type": "address"
        },
        {
          "internalType": "address",
          "name": "",
          "type": "address"
        },
        {
          "internalType": "uint256",
          "name": "",
          "type": "uint256"
        },
        {
          "internalType": "bytes",
          "name": "",
          "type": "bytes"
        }
      ],
      "name": "onERC721Received",
      "outputs": [
        {
          "internalType": "bytes4",
          "name": "",
          "type": "bytes4"
        }
      ],
      "stateMutability": "nonpayable",
      "type": "function"
    },
    {
      "inputs": [],
      "name": "owner",
      "outputs": [
        {
          "internalType": "address",
          "name": "",
          "type": "address"
        }
      ],
      "stateMutability": "view",
      "type": "function"
    },
    {
      "inputs": [
        {
          "internalType": "address",
          "name": "nftAddress",
          "type": "address"
        },
        {
          "internalType": "uint256",
          "name": "_itemId",
          "type": "uint256"
        }
      ],
      "name": "purchaseItem",
      "outputs": [],
      "stateMutability": "payable",
      "type": "function"
    },
    {
      "inputs": [],
      "name": "renounceOwnership",
      "outputs": [],
      "stateMutability": "nonpayable",
      "type": "function"
    },
    {
      "inputs": [
        {
          "internalType": "address",
          "name": "newOwner",
          "type": "address"
        }
      ],
      "name": "transferOwnership",
      "outputs": [],
      "stateMutability": "nonpayable",
      "type": "function"
    },
    {
      "inputs": [
        {
          "internalType": "uint256",
          "name": "_itemId",
          "type": "uint256"
        },
        {
          "internalType": "uint256",
          "name": "newPrice",
          "type": "uint256"
        }
      ],
      "name": "updateListPrice",
      "outputs": [],
      "stateMutability": "nonpayable",
      "type": "function"
    },
    {
      "inputs": [
        {
          "internalType": "uint256",
          "name": "newFee",
          "type": "uint256"
        }
      ],
      "name": "updateMarketplaceFee",
      "outputs": [],
      "stateMutability": "nonpayable",
      "type": "function"
    }
  ],
  "bytecode": "0x60806040523480156200001157600080fd5b506040516200299a3803806200299a833981810160405281019062000037919062000190565b620000576200004b620000ad60201b60201c565b620000b560201b60201c565b6001808190555033600360006101000a81548173ffffffffffffffffffffffffffffffffffffffff021916908373ffffffffffffffffffffffffffffffffffffffff1602179055508060048190555050620001e0565b600033905090565b60008060009054906101000a900473ffffffffffffffffffffffffffffffffffffffff169050816000806101000a81548173ffffffffffffffffffffffffffffffffffffffff021916908373ffffffffffffffffffffffffffffffffffffffff1602179055508173ffffffffffffffffffffffffffffffffffffffff168173ffffffffffffffffffffffffffffffffffffffff167f8be0079c531659141344cd1fd0a4f28419497f9722a3daafe3b4186f6b6457e060405160405180910390a35050565b6000815190506200018a81620001c6565b92915050565b600060208284031215620001a357600080fd5b6000620001b38482850162000179565b91505092915050565b6000819050919050565b620001d181620001bc565b8114620001dd57600080fd5b50565b6127aa80620001f06000396000f3fe6080604052600436106100c25760003560e01c8063715018a61161007f578063caf5069011610059578063caf5069014610245578063cd2f071014610270578063e9fd10bb146102ad578063f2fde38b146102d8576100c2565b8063715018a6146101c657806389bfd38f146101dd5780638da5cb5b1461021a576100c2565b806310061631146100c7578063144dcbbc146100f0578063150b7a021461011957806330eb80cd14610156578063327249001461017f5780636a1669641461019b575b600080fd5b3480156100d357600080fd5b506100ee60048036038101906100e99190611b1b565b610301565b005b3480156100fc57600080fd5b5061011760048036038101906101129190611b44565b610443565b005b34801561012557600080fd5b50610140600480360381019061013b91906119d9565b610512565b60405161014d9190611fbb565b60405180910390f35b34801561016257600080fd5b5061017d60048036038101906101789190611b1b565b610526565b005b61019960048036038101906101949190611a54565b6105ac565b005b3480156101a757600080fd5b506101b06109ab565b6040516101bd9190612171565b60405180910390f35b3480156101d257600080fd5b506101db6109b1565b005b3480156101e957600080fd5b5061020460048036038101906101ff9190611acc565b610a39565b6040516102119190612171565b60405180910390f35b34801561022657600080fd5b5061022f610cf6565b60405161023c9190611f10565b60405180910390f35b34801561025157600080fd5b5061025a610d1f565b6040516102679190611f99565b60405180910390f35b34801561027c57600080fd5b5061029760048036038101906102929190611b1b565b611003565b6040516102a49190612156565b60405180910390f35b3480156102b957600080fd5b506102c2611115565b6040516102cf9190611f99565b60405180910390f35b3480156102e457600080fd5b506102ff60048036038101906102fa9190611987565b61146d565b005b803373ffffffffffffffffffffffffffffffffffffffff166005600083815260200190815260200160002060030160009054906101000a900473ffffffffffffffffffffffffffffffffffffffff1673ffffffffffffffffffffffffffffffffffffffff16146103a6576040517f08c379a000000000000000000000000000000000000000000000000000000000815260040161039d90612056565b60405180910390fd5b600115156005600084815260200190815260200160002060050160009054906101000a900460ff16151514610410576040517f08c379a000000000000000000000000000000000000000000000000000000000815260040161040790612076565b60405180910390fd5b60006005600084815260200190815260200160002060050160006101000a81548160ff0219169083151502179055505050565b813373ffffffffffffffffffffffffffffffffffffffff166005600083815260200190815260200160002060030160009054906101000a900473ffffffffffffffffffffffffffffffffffffffff1673ffffffffffffffffffffffffffffffffffffffff16146104e8576040517f08c379a00000000000000000000000000000000000000000000000000000000081526004016104df90612056565b60405180910390fd5b600082111561050d578160056000858152602001908152602001600020600401819055505b505050565b600063150b7a0260e01b9050949350505050565b61052e611565565b73ffffffffffffffffffffffffffffffffffffffff1661054c610cf6565b73ffffffffffffffffffffffffffffffffffffffff16146105a2576040517f08c379a0000000000000000000000000000000000000000000000000000000008152600401610599906120d6565b60405180910390fd5b8060048190555050565b600260015414156105f2576040517f08c379a00000000000000000000000000000000000000000000000000000000081526004016105e990612136565b60405180910390fd5b600260018190555060006005600083815260200190815260200160002060040154905060006005600084815260200190815260200160002060010154905060006005600085815260200190815260200160002060050160009054906101000a900460ff16905060006005600086815260200190815260200160002060030160009054906101000a900473ffffffffffffffffffffffffffffffffffffffff16905060011515821515146106da576040517f08c379a00000000000000000000000000000000000000000000000000000000081526004016106d1906120f6565b60405180910390fd5b83341461071c576040517f08c379a0000000000000000000000000000000000000000000000000000000008152600401610713906120b6565b60405180910390fd5b6000808773ffffffffffffffffffffffffffffffffffffffff16632a55205a86886040518363ffffffff1660e01b815260040161075a92919061218c565b604080518083038186803b15801561077157600080fd5b505afa158015610785573d6000803e3d6000fd5b505050506040513d601f19601f820116820180604052508101906107a99190611a90565b915091506107ec6040518060400160405280601081526020017f726f79616c7479207265636569766572000000000000000000000000000000008152508361156d565b61082b6040518060400160405280600e81526020017f726f79616c747920616d6f756e7400000000000000000000000000000000000081525082611609565b60006127103460045461083e91906122f2565b61084891906122c1565b90506000828234610859919061234c565b610863919061234c565b90508973ffffffffffffffffffffffffffffffffffffffff166323b872dd86338a6040518463ffffffff1660e01b81526004016108a293929190611f2b565b600060405180830381600087803b1580156108bc57600080fd5b505af11580156108d0573d6000803e3d6000fd5b5050505033600560008b815260200190815260200160002060030160006101000a81548173ffffffffffffffffffffffffffffffffffffffff021916908373ffffffffffffffffffffffffffffffffffffffff1602179055506000600560008b815260200190815260200160002060050160006101000a81548160ff021916908315150217905550610984600360009054906101000a900473ffffffffffffffffffffffffffffffffffffffff16836116a5565b61098e84846116a5565b61099885826116a5565b5050505050505050600180819055505050565b60045481565b6109b9611565565b73ffffffffffffffffffffffffffffffffffffffff166109d7610cf6565b73ffffffffffffffffffffffffffffffffffffffff1614610a2d576040517f08c379a0000000000000000000000000000000000000000000000000000000008152600401610a24906120d6565b60405180910390fd5b610a376000611756565b565b60003373ffffffffffffffffffffffffffffffffffffffff168473ffffffffffffffffffffffffffffffffffffffff16636352211e856040518263ffffffff1660e01b8152600401610a8b9190612171565b60206040518083038186803b158015610aa357600080fd5b505afa158015610ab7573d6000803e3d6000fd5b505050506040513d601f19601f82011682018060405250810190610adb91906119b0565b73ffffffffffffffffffffffffffffffffffffffff1614610b31576040517f08c379a0000000000000000000000000000000000000000000000000000000008152600401610b2890612096565b60405180910390fd5b6000821115610cee576000610b46600261181a565b90506040518060c001604052808673ffffffffffffffffffffffffffffffffffffffff1681526020018581526020018281526020013373ffffffffffffffffffffffffffffffffffffffff168152602001848152602001600115158152506005600083815260200190815260200160002060008201518160000160006101000a81548173ffffffffffffffffffffffffffffffffffffffff021916908373ffffffffffffffffffffffffffffffffffffffff160217905550602082015181600101556040820151816002015560608201518160030160006101000a81548173ffffffffffffffffffffffffffffffffffffffff021916908373ffffffffffffffffffffffffffffffffffffffff1602179055506080820151816004015560a08201518160050160006101000a81548160ff021916908315150217905550905050610c906002611828565b80848673ffffffffffffffffffffffffffffffffffffffff167f945bcd45ca48b070398959da0d64f9ab26587893125448e37782a5323635aaa733876001604051610cdd93929190611f62565b60405180910390a480915050610cef565b5b9392505050565b60008060009054906101000a900473ffffffffffffffffffffffffffffffffffffffff16905090565b60606000610d2d600261181a565b905060008060005b83811015610d9b576001151560056000600184610d52919061226b565b815260200190815260200160002060050160009054906101000a900460ff1615151415610d88578280610d8490612479565b9350505b8080610d9390612479565b915050610d35565b5060008267ffffffffffffffff811115610dde577f4e487b7100000000000000000000000000000000000000000000000000000000600052604160045260246000fd5b604051908082528060200260200182016040528015610e1757816020015b610e04611867565b815260200190600190039081610dfc5790505b50905060005b84811015610ff8576001151560056000600184610e3a919061226b565b815260200190815260200160002060050160009054906101000a900460ff1615151415610fe557600060056000600184610e74919061226b565b81526020019081526020016000206002015490506000600560008381526020019081526020016000209050806040518060c00160405290816000820160009054906101000a900473ffffffffffffffffffffffffffffffffffffffff1673ffffffffffffffffffffffffffffffffffffffff1673ffffffffffffffffffffffffffffffffffffffff16815260200160018201548152602001600282015481526020016003820160009054906101000a900473ffffffffffffffffffffffffffffffffffffffff1673ffffffffffffffffffffffffffffffffffffffff1673ffffffffffffffffffffffffffffffffffffffff168152602001600482015481526020016005820160009054906101000a900460ff161515151581525050848681518110610fc9577f4e487b7100000000000000000000000000000000000000000000000000000000600052603260045260246000fd5b60200260200101819052508480610fdf90612479565b95505050505b8080610ff090612479565b915050610e1d565b508094505050505090565b61100b611867565b600560008381526020019081526020016000206040518060c00160405290816000820160009054906101000a900473ffffffffffffffffffffffffffffffffffffffff1673ffffffffffffffffffffffffffffffffffffffff1673ffffffffffffffffffffffffffffffffffffffff16815260200160018201548152602001600282015481526020016003820160009054906101000a900473ffffffffffffffffffffffffffffffffffffffff1673ffffffffffffffffffffffffffffffffffffffff1673ffffffffffffffffffffffffffffffffffffffff168152602001600482015481526020016005820160009054906101000a900460ff1615151515815250509050919050565b60606000611123600261181a565b905060008060005b838110156111cb573373ffffffffffffffffffffffffffffffffffffffff166005600060018461115b919061226b565b815260200190815260200160002060030160009054906101000a900473ffffffffffffffffffffffffffffffffffffffff1673ffffffffffffffffffffffffffffffffffffffff1614156111b85782806111b490612479565b9350505b80806111c390612479565b91505061112b565b5060008267ffffffffffffffff81111561120e577f4e487b7100000000000000000000000000000000000000000000000000000000600052604160045260246000fd5b60405190808252806020026020018201604052801561124757816020015b611234611867565b81526020019060019003908161122c5790505b50905060005b84811015611462573373ffffffffffffffffffffffffffffffffffffffff166005600060018461127d919061226b565b815260200190815260200160002060030160009054906101000a900473ffffffffffffffffffffffffffffffffffffffff1673ffffffffffffffffffffffffffffffffffffffff16141561144f576000600560006001846112de919061226b565b81526020019081526020016000206002015490506000600560008381526020019081526020016000209050806040518060c00160405290816000820160009054906101000a900473ffffffffffffffffffffffffffffffffffffffff1673ffffffffffffffffffffffffffffffffffffffff1673ffffffffffffffffffffffffffffffffffffffff16815260200160018201548152602001600282015481526020016003820160009054906101000a900473ffffffffffffffffffffffffffffffffffffffff1673ffffffffffffffffffffffffffffffffffffffff1673ffffffffffffffffffffffffffffffffffffffff168152602001600482015481526020016005820160009054906101000a900460ff161515151581525050848681518110611433577f4e487b7100000000000000000000000000000000000000000000000000000000600052603260045260246000fd5b6020026020010181905250848061144990612479565b95505050505b808061145a90612479565b91505061124d565b508094505050505090565b611475611565565b73ffffffffffffffffffffffffffffffffffffffff16611493610cf6565b73ffffffffffffffffffffffffffffffffffffffff16146114e9576040517f08c379a00000000000000000000000000000000000000000000000000000000081526004016114e0906120d6565b60405180910390fd5b600073ffffffffffffffffffffffffffffffffffffffff168173ffffffffffffffffffffffffffffffffffffffff161415611559576040517f08c379a000000000000000000000000000000000000000000000000000000000815260040161155090612036565b60405180910390fd5b61156281611756565b50565b600033905090565b6116058282604051602401611583929190611fd6565b6040516020818303038152906040527f319af333000000000000000000000000000000000000000000000000000000007bffffffffffffffffffffffffffffffffffffffffffffffffffffffff19166020820180517bffffffffffffffffffffffffffffffffffffffffffffffffffffffff838183161783525050505061183e565b5050565b6116a1828260405160240161161f929190612006565b6040516020818303038152906040527f9710a9d0000000000000000000000000000000000000000000000000000000007bffffffffffffffffffffffffffffffffffffffffffffffffffffffff19166020820180517bffffffffffffffffffffffffffffffffffffffffffffffffffffffff838183161783525050505061183e565b5050565b60008273ffffffffffffffffffffffffffffffffffffffff16826040516116cb90611efb565b60006040518083038185875af1925050503d8060008114611708576040519150601f19603f3d011682016040523d82523d6000602084013e61170d565b606091505b5050905080611751576040517f08c379a000000000000000000000000000000000000000000000000000000000815260040161174890612116565b60405180910390fd5b505050565b60008060009054906101000a900473ffffffffffffffffffffffffffffffffffffffff169050816000806101000a81548173ffffffffffffffffffffffffffffffffffffffff021916908373ffffffffffffffffffffffffffffffffffffffff1602179055508173ffffffffffffffffffffffffffffffffffffffff168173ffffffffffffffffffffffffffffffffffffffff167f8be0079c531659141344cd1fd0a4f28419497f9722a3daafe3b4186f6b6457e060405160405180910390a35050565b600081600001549050919050565b6001816000016000828254019250508190555050565b60008151905060006a636f6e736f6c652e6c6f679050602083016000808483855afa5050505050565b6040518060c00160405280600073ffffffffffffffffffffffffffffffffffffffff1681526020016000815260200160008152602001600073ffffffffffffffffffffffffffffffffffffffff168152602001600081526020016000151581525090565b60006118de6118d9846121da565b6121b5565b9050828152602081018484840111156118f657600080fd5b611901848285612406565b509392505050565b60008135905061191881612746565b92915050565b60008151905061192d81612746565b92915050565b600082601f83011261194457600080fd5b81356119548482602086016118cb565b91505092915050565b60008135905061196c8161275d565b92915050565b6000815190506119818161275d565b92915050565b60006020828403121561199957600080fd5b60006119a784828501611909565b91505092915050565b6000602082840312156119c257600080fd5b60006119d08482850161191e565b91505092915050565b600080600080608085870312156119ef57600080fd5b60006119fd87828801611909565b9450506020611a0e87828801611909565b9350506040611a1f8782880161195d565b925050606085013567ffffffffffffffff811115611a3c57600080fd5b611a4887828801611933565b91505092959194509250565b60008060408385031215611a6757600080fd5b6000611a7585828601611909565b9250506020611a868582860161195d565b9150509250929050565b60008060408385031215611aa357600080fd5b6000611ab18582860161191e565b9250506020611ac285828601611972565b9150509250929050565b600080600060608486031215611ae157600080fd5b6000611aef86828701611909565b9350506020611b008682870161195d565b9250506040611b118682870161195d565b9150509250925092565b600060208284031215611b2d57600080fd5b6000611b3b8482850161195d565b91505092915050565b60008060408385031215611b5757600080fd5b6000611b658582860161195d565b9250506020611b768582860161195d565b9150509250929050565b6000611b8c8383611de7565b60c08301905092915050565b611ba181612392565b82525050565b611bb081612380565b82525050565b611bbf81612380565b82525050565b6000611bd08261221b565b611bda818561223e565b9350611be58361220b565b8060005b83811015611c16578151611bfd8882611b80565b9750611c0883612231565b925050600181019050611be9565b5085935050505092915050565b611c2c816123a4565b82525050565b611c3b816123a4565b82525050565b611c4a816123b0565b82525050565b6000611c5b82612226565b611c65818561225a565b9350611c75818560208601612415565b611c7e8161254f565b840191505092915050565b6000611c9660268361225a565b9150611ca182612560565b604082019050919050565b6000611cb960188361225a565b9150611cc4826125af565b602082019050919050565b6000611cdc60138361225a565b9150611ce7826125d8565b602082019050919050565b6000611cff60198361225a565b9150611d0a82612601565b602082019050919050565b6000611d2260288361225a565b9150611d2d8261262a565b604082019050919050565b6000611d4560208361225a565b9150611d5082612679565b602082019050919050565b6000611d68601f8361225a565b9150611d73826126a2565b602082019050919050565b6000611d8b602c8361225a565b9150611d96826126cb565b604082019050919050565b6000611dae60008361224f565b9150611db98261271a565b600082019050919050565b6000611dd1601f8361225a565b9150611ddc8261271d565b602082019050919050565b60c082016000820151611dfd6000850182611ba7565b506020820151611e106020850182611edd565b506040820151611e236040850182611edd565b506060820151611e366060850182611b98565b506080820151611e496080850182611edd565b5060a0820151611e5c60a0850182611c23565b50505050565b60c082016000820151611e786000850182611ba7565b506020820151611e8b6020850182611edd565b506040820151611e9e6040850182611edd565b506060820151611eb16060850182611b98565b506080820151611ec46080850182611edd565b5060a0820151611ed760a0850182611c23565b50505050565b611ee6816123fc565b82525050565b611ef5816123fc565b82525050565b6000611f0682611da1565b9150819050919050565b6000602082019050611f256000830184611bb6565b92915050565b6000606082019050611f406000830186611bb6565b611f4d6020830185611bb6565b611f5a6040830184611eec565b949350505050565b6000606082019050611f776000830186611bb6565b611f846020830185611eec565b611f916040830184611c32565b949350505050565b60006020820190508181036000830152611fb38184611bc5565b905092915050565b6000602082019050611fd06000830184611c41565b92915050565b60006040820190508181036000830152611ff08185611c50565b9050611fff6020830184611bb6565b9392505050565b600060408201905081810360008301526120208185611c50565b905061202f6020830184611eec565b9392505050565b6000602082019050818103600083015261204f81611c89565b9050919050565b6000602082019050818103600083015261206f81611cac565b9050919050565b6000602082019050818103600083015261208f81611ccf565b9050919050565b600060208201905081810360008301526120af81611cf2565b9050919050565b600060208201905081810360008301526120cf81611d15565b9050919050565b600060208201905081810360008301526120ef81611d38565b9050919050565b6000602082019050818103600083015261210f81611d5b565b9050919050565b6000602082019050818103600083015261212f81611d7e565b9050919050565b6000602082019050818103600083015261214f81611dc4565b9050919050565b600060c08201905061216b6000830184611e62565b92915050565b60006020820190506121866000830184611eec565b92915050565b60006040820190506121a16000830185611eec565b6121ae6020830184611eec565b9392505050565b60006121bf6121d0565b90506121cb8282612448565b919050565b6000604051905090565b600067ffffffffffffffff8211156121f5576121f4612520565b5b6121fe8261254f565b9050602081019050919050565b6000819050602082019050919050565b600081519050919050565b600081519050919050565b6000602082019050919050565b600082825260208201905092915050565b600081905092915050565b600082825260208201905092915050565b6000612276826123fc565b9150612281836123fc565b9250827fffffffffffffffffffffffffffffffffffffffffffffffffffffffffffffffff038211156122b6576122b56124c2565b5b828201905092915050565b60006122cc826123fc565b91506122d7836123fc565b9250826122e7576122e66124f1565b5b828204905092915050565b60006122fd826123fc565b9150612308836123fc565b9250817fffffffffffffffffffffffffffffffffffffffffffffffffffffffffffffffff0483118215151615612341576123406124c2565b5b828202905092915050565b6000612357826123fc565b9150612362836123fc565b925082821015612375576123746124c2565b5b828203905092915050565b600061238b826123dc565b9050919050565b600061239d826123dc565b9050919050565b60008115159050919050565b60007fffffffff0000000000000000000000000000000000000000000000000000000082169050919050565b600073ffffffffffffffffffffffffffffffffffffffff82169050919050565b6000819050919050565b82818337600083830152505050565b60005b83811015612433578082015181840152602081019050612418565b83811115612442576000848401525b50505050565b6124518261254f565b810181811067ffffffffffffffff821117156124705761246f612520565b5b80604052505050565b6000612484826123fc565b91507fffffffffffffffffffffffffffffffffffffffffffffffffffffffffffffffff8214156124b7576124b66124c2565b5b600182019050919050565b7f4e487b7100000000000000000000000000000000000000000000000000000000600052601160045260246000fd5b7f4e487b7100000000000000000000000000000000000000000000000000000000600052601260045260246000fd5b7f4e487b7100000000000000000000000000000000000000000000000000000000600052604160045260246000fd5b6000601f19601f8301169050919050565b7f4f776e61626c653a206e6577206f776e657220697320746865207a65726f206160008201527f6464726573730000000000000000000000000000000000000000000000000000602082015250565b7f43616c6c6572206973206e6f74206974656d206f776e65720000000000000000600082015250565b7f4974656d206973206e6f74206c69737465642e00000000000000000000000000600082015250565b7f43616c6c657220646f6573206e6f74206f776e20746f6b656e00000000000000600082015250565b7f506c656173652073656e642074686520636f727265637420616d6f756e74206f60008201527f662065746865722e000000000000000000000000000000000000000000000000602082015250565b7f4f776e61626c653a2063616c6c6572206973206e6f7420746865206f776e6572600082015250565b7f4974656d20726571756573746564206973206e6f7420666f722073616c652e00600082015250565b7f4661696c656420746f207472616e7366657220726f79616c7469657320746f2060008201527f6d61726b6574706c6163652e0000000000000000000000000000000000000000602082015250565b50565b7f5265656e7472616e637947756172643a207265656e7472616e742063616c6c00600082015250565b61274f81612380565b811461275a57600080fd5b50565b612766816123fc565b811461277157600080fd5b5056fea26469706673582212202a8ba0a5ced084faf2dba67644a7ac1dfb1f601647f91d52fef9f42ea616d7c464736f6c63430008040033",
  "linkReferences": {},
  "deployedLinkReferences": {}
}