{
  "_format": "hh-sol-artifact-1",
  "contractName": "Marketplace",
  "sourceName": "contracts/Marketplace.sol",
  "abi": [
    {
      "inputs": [
        {
          "internalType": "uint256",
          "name": "fee",
          "type": "uint256"
        }
      ],
      "stateMutability": "nonpayable",
      "type": "constructor"
    },
    {
      "anonymous": false,
      "inputs": [
        {
          "indexed": true,
          "internalType": "address",
          "name": "nftAddress",
          "type": "address"
        },
        {
          "indexed": true,
          "internalType": "uint256",
          "name": "tokenId",
          "type": "uint256"
        },
        {
          "indexed": true,
          "internalType": "uint256",
          "name": "itemId",
          "type": "uint256"
        },
        {
          "indexed": false,
          "internalType": "address",
          "name": "owner",
          "type": "address"
        },
        {
          "indexed": false,
          "internalType": "uint256",
          "name": "price",
          "type": "uint256"
        },
        {
          "indexed": false,
          "internalType": "bool",
          "name": "isListed",
          "type": "bool"
        }
      ],
      "name": "ItemListed",
      "type": "event"
    },
    {
      "anonymous": false,
      "inputs": [
        {
          "indexed": true,
          "internalType": "address",
          "name": "previousOwner",
          "type": "address"
        },
        {
          "indexed": true,
          "internalType": "address",
          "name": "newOwner",
          "type": "address"
        }
      ],
      "name": "OwnershipTransferred",
      "type": "event"
    },
    {
      "inputs": [
        {
          "internalType": "uint256",
          "name": "_itemId",
          "type": "uint256"
        }
      ],
      "name": "delistItem",
      "outputs": [],
      "stateMutability": "nonpayable",
      "type": "function"
    },
    {
      "inputs": [
        {
          "internalType": "uint256",
          "name": "_itemId",
          "type": "uint256"
        }
      ],
      "name": "getItemById",
      "outputs": [
        {
          "components": [
            {
              "internalType": "address",
              "name": "nftAddress",
              "type": "address"
            },
            {
              "internalType": "uint256",
              "name": "tokenId",
              "type": "uint256"
            },
            {
              "internalType": "uint256",
              "name": "itemId",
              "type": "uint256"
            },
            {
              "internalType": "address payable",
              "name": "owner",
              "type": "address"
            },
            {
              "internalType": "uint256",
              "name": "price",
              "type": "uint256"
            },
            {
              "internalType": "bool",
              "name": "isListed",
              "type": "bool"
            }
          ],
          "internalType": "struct Marketplace.Item",
          "name": "",
          "type": "tuple"
        }
      ],
      "stateMutability": "view",
      "type": "function"
    },
    {
      "inputs": [
        {
          "internalType": "uint256",
          "name": "tokenId",
          "type": "uint256"
        }
      ],
      "name": "getItemId",
      "outputs": [
        {
          "internalType": "uint256",
          "name": "itemId",
          "type": "uint256"
        }
      ],
      "stateMutability": "view",
      "type": "function"
    },
    {
      "inputs": [],
      "name": "getItemsOwned",
      "outputs": [
        {
          "components": [
            {
              "internalType": "address",
              "name": "nftAddress",
              "type": "address"
            },
            {
              "internalType": "uint256",
              "name": "tokenId",
              "type": "uint256"
            },
            {
              "internalType": "uint256",
              "name": "itemId",
              "type": "uint256"
            },
            {
              "internalType": "address payable",
              "name": "owner",
              "type": "address"
            },
            {
              "internalType": "uint256",
              "name": "price",
              "type": "uint256"
            },
            {
              "internalType": "bool",
              "name": "isListed",
              "type": "bool"
            }
          ],
          "internalType": "struct Marketplace.Item[]",
          "name": "",
          "type": "tuple[]"
        }
      ],
      "stateMutability": "view",
      "type": "function"
    },
    {
      "inputs": [],
      "name": "getListedItems",
      "outputs": [
        {
          "components": [
            {
              "internalType": "address",
              "name": "nftAddress",
              "type": "address"
            },
            {
              "internalType": "uint256",
              "name": "tokenId",
              "type": "uint256"
            },
            {
              "internalType": "uint256",
              "name": "itemId",
              "type": "uint256"
            },
            {
              "internalType": "address payable",
              "name": "owner",
              "type": "address"
            },
            {
              "internalType": "uint256",
              "name": "price",
              "type": "uint256"
            },
            {
              "internalType": "bool",
              "name": "isListed",
              "type": "bool"
            }
          ],
          "internalType": "struct Marketplace.Item[]",
          "name": "",
          "type": "tuple[]"
        }
      ],
      "stateMutability": "view",
      "type": "function"
    },
    {
      "inputs": [
        {
          "internalType": "address",
          "name": "nftAddress",
          "type": "address"
        },
        {
          "internalType": "uint256",
          "name": "_tokenId",
          "type": "uint256"
        },
        {
          "internalType": "uint256",
          "name": "price",
          "type": "uint256"
        }
      ],
      "name": "listItem",
      "outputs": [
        {
          "internalType": "uint256",
          "name": "_itemId",
          "type": "uint256"
        }
      ],
      "stateMutability": "nonpayable",
      "type": "function"
    },
    {
      "inputs": [
        {
          "internalType": "address",
          "name": "",
          "type": "address"
        },
        {
          "internalType": "address",
          "name": "",
          "type": "address"
        },
        {
          "internalType": "uint256",
          "name": "",
          "type": "uint256"
        },
        {
          "internalType": "bytes",
          "name": "",
          "type": "bytes"
        }
      ],
      "name": "onERC721Received",
      "outputs": [
        {
          "internalType": "bytes4",
          "name": "",
          "type": "bytes4"
        }
      ],
      "stateMutability": "nonpayable",
      "type": "function"
    },
    {
      "inputs": [],
      "name": "owner",
      "outputs": [
        {
          "internalType": "address",
          "name": "",
          "type": "address"
        }
      ],
      "stateMutability": "view",
      "type": "function"
    },
    {
      "inputs": [],
      "name": "protocolFee",
      "outputs": [
        {
          "internalType": "uint256",
          "name": "",
          "type": "uint256"
        }
      ],
      "stateMutability": "view",
      "type": "function"
    },
    {
      "inputs": [
        {
          "internalType": "address",
          "name": "nftAddress",
          "type": "address"
        },
        {
          "internalType": "uint256",
          "name": "_itemId",
          "type": "uint256"
        }
      ],
      "name": "purchaseItem",
      "outputs": [],
      "stateMutability": "payable",
      "type": "function"
    },
    {
      "inputs": [],
      "name": "renounceOwnership",
      "outputs": [],
      "stateMutability": "nonpayable",
      "type": "function"
    },
    {
      "inputs": [
        {
          "internalType": "address",
          "name": "newOwner",
          "type": "address"
        }
      ],
      "name": "transferOwnership",
      "outputs": [],
      "stateMutability": "nonpayable",
      "type": "function"
    },
    {
      "inputs": [
        {
          "internalType": "uint256",
          "name": "_itemId",
          "type": "uint256"
        },
        {
          "internalType": "uint256",
          "name": "newPrice",
          "type": "uint256"
        }
      ],
      "name": "updateListPrice",
      "outputs": [],
      "stateMutability": "nonpayable",
      "type": "function"
    },
    {
      "inputs": [
        {
          "internalType": "uint256",
          "name": "newFee",
          "type": "uint256"
        }
      ],
      "name": "updateProtocolFee",
      "outputs": [],
      "stateMutability": "nonpayable",
      "type": "function"
    }
  ],
  "bytecode": "0x60806040523480156200001157600080fd5b50604051620028bc380380620028bc833981810160405281019062000037919062000190565b620000576200004b620000ad60201b60201c565b620000b560201b60201c565b6001808190555033600360006101000a81548173ffffffffffffffffffffffffffffffffffffffff021916908373ffffffffffffffffffffffffffffffffffffffff1602179055508060048190555050620001e0565b600033905090565b60008060009054906101000a900473ffffffffffffffffffffffffffffffffffffffff169050816000806101000a81548173ffffffffffffffffffffffffffffffffffffffff021916908373ffffffffffffffffffffffffffffffffffffffff1602179055508173ffffffffffffffffffffffffffffffffffffffff168173ffffffffffffffffffffffffffffffffffffffff167f8be0079c531659141344cd1fd0a4f28419497f9722a3daafe3b4186f6b6457e060405160405180910390a35050565b6000815190506200018a81620001c6565b92915050565b600060208284031215620001a357600080fd5b6000620001b38482850162000179565b91505092915050565b6000819050919050565b620001d181620001bc565b8114620001dd57600080fd5b50565b6126cc80620001f06000396000f3fe6080604052600436106100dd5760003560e01c80638da5cb5b1161007f578063caf5069011610059578063caf506901461029d578063cd2f0710146102c8578063e9fd10bb14610305578063f2fde38b14610330576100dd565b80638da5cb5b1461020a578063a9a76ece14610235578063b0e21e8a14610272576100dd565b806332724900116100bb57806332724900146101715780634256dd781461018d578063715018a6146101b657806389bfd38f146101cd576100dd565b806310061631146100e2578063144dcbbc1461010b578063150b7a0214610134575b600080fd5b3480156100ee57600080fd5b5061010960048036038101906101049190611b6a565b610359565b005b34801561011757600080fd5b50610132600480360381019061012d9190611b93565b61049b565b005b34801561014057600080fd5b5061015b60048036038101906101569190611a28565b61056a565b6040516101689190611fd1565b60405180910390f35b61018b60048036038101906101869190611aa3565b61057e565b005b34801561019957600080fd5b506101b460048036038101906101af9190611b6a565b6108ff565b005b3480156101c257600080fd5b506101cb610985565b005b3480156101d957600080fd5b506101f460048036038101906101ef9190611b1b565b610a0d565b6040516102019190612127565b60405180910390f35b34801561021657600080fd5b5061021f610ebf565b60405161022c9190611f26565b60405180910390f35b34801561024157600080fd5b5061025c60048036038101906102579190611b6a565b610ee8565b6040516102699190612127565b60405180910390f35b34801561027e57600080fd5b50610287610f05565b6040516102949190612127565b60405180910390f35b3480156102a957600080fd5b506102b2610f0b565b6040516102bf9190611faf565b60405180910390f35b3480156102d457600080fd5b506102ef60048036038101906102ea9190611b6a565b6111d1565b6040516102fc919061210c565b60405180910390f35b34801561031157600080fd5b5061031a6112e3565b6040516103279190611faf565b60405180910390f35b34801561033c57600080fd5b50610357600480360381019061035291906119d6565b61161d565b005b803373ffffffffffffffffffffffffffffffffffffffff166005600083815260200190815260200160002060030160009054906101000a900473ffffffffffffffffffffffffffffffffffffffff1673ffffffffffffffffffffffffffffffffffffffff16146103fe576040517f08c379a00000000000000000000000000000000000000000000000000000000081526004016103f59061200c565b60405180910390fd5b600115156005600084815260200190815260200160002060050160009054906101000a900460ff16151514610468576040517f08c379a000000000000000000000000000000000000000000000000000000000815260040161045f9061202c565b60405180910390fd5b60006005600084815260200190815260200160002060050160006101000a81548160ff0219169083151502179055505050565b813373ffffffffffffffffffffffffffffffffffffffff166005600083815260200190815260200160002060030160009054906101000a900473ffffffffffffffffffffffffffffffffffffffff1673ffffffffffffffffffffffffffffffffffffffff1614610540576040517f08c379a00000000000000000000000000000000000000000000000000000000081526004016105379061200c565b60405180910390fd5b6000821115610565578160056000858152602001908152602001600020600401819055505b505050565b600063150b7a0260e01b9050949350505050565b600260015414156105c4576040517f08c379a00000000000000000000000000000000000000000000000000000000081526004016105bb906120ec565b60405180910390fd5b600260018190555060006005600083815260200190815260200160002060040154905060006005600084815260200190815260200160002060010154905060006005600085815260200190815260200160002060050160009054906101000a900460ff16905060006005600086815260200190815260200160002060030160009054906101000a900473ffffffffffffffffffffffffffffffffffffffff16905060011515821515146106ac576040517f08c379a00000000000000000000000000000000000000000000000000000000081526004016106a3906120ac565b60405180910390fd5b8334146106ee576040517f08c379a00000000000000000000000000000000000000000000000000000000081526004016106e59061206c565b60405180910390fd5b6000808773ffffffffffffffffffffffffffffffffffffffff16632a55205a86886040518363ffffffff1660e01b815260040161072c929190612142565b604080518083038186803b15801561074357600080fd5b505afa158015610757573d6000803e3d6000fd5b505050506040513d601f19601f8201168201806040525081019061077b9190611adf565b915091506000612710346004546107929190612247565b61079c9190612216565b905060008282346107ad91906122a1565b6107b791906122a1565b90508973ffffffffffffffffffffffffffffffffffffffff166323b872dd86338a6040518463ffffffff1660e01b81526004016107f693929190611f41565b600060405180830381600087803b15801561081057600080fd5b505af1158015610824573d6000803e3d6000fd5b5050505033600560008b815260200190815260200160002060030160006101000a81548173ffffffffffffffffffffffffffffffffffffffff021916908373ffffffffffffffffffffffffffffffffffffffff1602179055506000600560008b815260200190815260200160002060050160006101000a81548160ff0219169083151502179055506108d8600360009054906101000a900473ffffffffffffffffffffffffffffffffffffffff1683611715565b6108e28484611715565b6108ec8582611715565b5050505050505050600180819055505050565b6109076117c6565b73ffffffffffffffffffffffffffffffffffffffff16610925610ebf565b73ffffffffffffffffffffffffffffffffffffffff161461097b576040517f08c379a00000000000000000000000000000000000000000000000000000000081526004016109729061208c565b60405180910390fd5b8060048190555050565b61098d6117c6565b73ffffffffffffffffffffffffffffffffffffffff166109ab610ebf565b73ffffffffffffffffffffffffffffffffffffffff1614610a01576040517f08c379a00000000000000000000000000000000000000000000000000000000081526004016109f89061208c565b60405180910390fd5b610a0b60006117ce565b565b60003373ffffffffffffffffffffffffffffffffffffffff168473ffffffffffffffffffffffffffffffffffffffff16636352211e856040518263ffffffff1660e01b8152600401610a5f9190612127565b60206040518083038186803b158015610a7757600080fd5b505afa158015610a8b573d6000803e3d6000fd5b505050506040513d601f19601f82011682018060405250810190610aaf91906119ff565b73ffffffffffffffffffffffffffffffffffffffff1614610b05576040517f08c379a0000000000000000000000000000000000000000000000000000000008152600401610afc9061204c565b60405180910390fd5b6000600660008581526020019081526020016000205490506000831115610eb6576000811415610cfc57610b396002611892565b6000610b4560026118a8565b90506040518060c001604052808773ffffffffffffffffffffffffffffffffffffffff1681526020018681526020018281526020013373ffffffffffffffffffffffffffffffffffffffff168152602001858152602001600115158152506005600083815260200190815260200160002060008201518160000160006101000a81548173ffffffffffffffffffffffffffffffffffffffff021916908373ffffffffffffffffffffffffffffffffffffffff160217905550602082015181600101556040820151816002015560608201518160030160006101000a81548173ffffffffffffffffffffffffffffffffffffffff021916908373ffffffffffffffffffffffffffffffffffffffff1602179055506080820151816004015560a08201518160050160006101000a81548160ff02191690831515021790555090505080600660008781526020019081526020016000208190555080858773ffffffffffffffffffffffffffffffffffffffff167f945bcd45ca48b070398959da0d64f9ab26587893125448e37782a5323635aaa733886001604051610cea93929190611f78565b60405180910390a48092505050610eb8565b60008190506040518060c001604052808773ffffffffffffffffffffffffffffffffffffffff1681526020018681526020018281526020013373ffffffffffffffffffffffffffffffffffffffff168152602001858152602001600115158152506005600083815260200190815260200160002060008201518160000160006101000a81548173ffffffffffffffffffffffffffffffffffffffff021916908373ffffffffffffffffffffffffffffffffffffffff160217905550602082015181600101556040820151816002015560608201518160030160006101000a81548173ffffffffffffffffffffffffffffffffffffffff021916908373ffffffffffffffffffffffffffffffffffffffff1602179055506080820151816004015560a08201518160050160006101000a81548160ff02191690831515021790555090505080600660008781526020019081526020016000208190555080858773ffffffffffffffffffffffffffffffffffffffff167f945bcd45ca48b070398959da0d64f9ab26587893125448e37782a5323635aaa733886001604051610ea493929190611f78565b60405180910390a48092505050610eb8565b505b9392505050565b60008060009054906101000a900473ffffffffffffffffffffffffffffffffffffffff16905090565b600060066000838152602001908152602001600020549050919050565b60045481565b60606000610f1960026118a8565b90506000806000600190505b838111610f7e57600115156005600083815260200190815260200160002060050160009054906101000a900460ff1615151415610f6b578280610f679061239b565b9350505b8080610f769061239b565b915050610f25565b5060008267ffffffffffffffff811115610fc1577f4e487b7100000000000000000000000000000000000000000000000000000000600052604160045260246000fd5b604051908082528060200260200182016040528015610ffa57816020015b610fe76118b6565b815260200190600190039081610fdf5790505b5090506000600190505b8481116111c657600115156005600083815260200190815260200160002060050160009054906101000a900460ff16151514156111b3576000600560008381526020019081526020016000206002015490506000600560008381526020019081526020016000209050806040518060c00160405290816000820160009054906101000a900473ffffffffffffffffffffffffffffffffffffffff1673ffffffffffffffffffffffffffffffffffffffff1673ffffffffffffffffffffffffffffffffffffffff16815260200160018201548152602001600282015481526020016003820160009054906101000a900473ffffffffffffffffffffffffffffffffffffffff1673ffffffffffffffffffffffffffffffffffffffff1673ffffffffffffffffffffffffffffffffffffffff168152602001600482015481526020016005820160009054906101000a900460ff161515151581525050848681518110611197577f4e487b7100000000000000000000000000000000000000000000000000000000600052603260045260246000fd5b602002602001018190525084806111ad9061239b565b95505050505b80806111be9061239b565b915050611004565b508094505050505090565b6111d96118b6565b600560008381526020019081526020016000206040518060c00160405290816000820160009054906101000a900473ffffffffffffffffffffffffffffffffffffffff1673ffffffffffffffffffffffffffffffffffffffff1673ffffffffffffffffffffffffffffffffffffffff16815260200160018201548152602001600282015481526020016003820160009054906101000a900473ffffffffffffffffffffffffffffffffffffffff1673ffffffffffffffffffffffffffffffffffffffff1673ffffffffffffffffffffffffffffffffffffffff168152602001600482015481526020016005820160009054906101000a900460ff1615151515815250509050919050565b606060006112f160026118a8565b90506000806000600190505b838111611390573373ffffffffffffffffffffffffffffffffffffffff166005600083815260200190815260200160002060030160009054906101000a900473ffffffffffffffffffffffffffffffffffffffff1673ffffffffffffffffffffffffffffffffffffffff16141561137d5782806113799061239b565b9350505b80806113889061239b565b9150506112fd565b5060008267ffffffffffffffff8111156113d3577f4e487b7100000000000000000000000000000000000000000000000000000000600052604160045260246000fd5b60405190808252806020026020018201604052801561140c57816020015b6113f96118b6565b8152602001906001900390816113f15790505b5090506000600190505b848111611612573373ffffffffffffffffffffffffffffffffffffffff166005600083815260200190815260200160002060030160009054906101000a900473ffffffffffffffffffffffffffffffffffffffff1673ffffffffffffffffffffffffffffffffffffffff1614156115ff576000600560008381526020019081526020016000206002015490506000600560008381526020019081526020016000209050806040518060c00160405290816000820160009054906101000a900473ffffffffffffffffffffffffffffffffffffffff1673ffffffffffffffffffffffffffffffffffffffff1673ffffffffffffffffffffffffffffffffffffffff16815260200160018201548152602001600282015481526020016003820160009054906101000a900473ffffffffffffffffffffffffffffffffffffffff1673ffffffffffffffffffffffffffffffffffffffff1673ffffffffffffffffffffffffffffffffffffffff168152602001600482015481526020016005820160009054906101000a900460ff1615151515815250508486815181106115e3577f4e487b7100000000000000000000000000000000000000000000000000000000600052603260045260246000fd5b602002602001018190525084806115f99061239b565b95505050505b808061160a9061239b565b915050611416565b508094505050505090565b6116256117c6565b73ffffffffffffffffffffffffffffffffffffffff16611643610ebf565b73ffffffffffffffffffffffffffffffffffffffff1614611699576040517f08c379a00000000000000000000000000000000000000000000000000000000081526004016116909061208c565b60405180910390fd5b600073ffffffffffffffffffffffffffffffffffffffff168173ffffffffffffffffffffffffffffffffffffffff161415611709576040517f08c379a000000000000000000000000000000000000000000000000000000000815260040161170090611fec565b60405180910390fd5b611712816117ce565b50565b60008273ffffffffffffffffffffffffffffffffffffffff168260405161173b90611f11565b60006040518083038185875af1925050503d8060008114611778576040519150601f19603f3d011682016040523d82523d6000602084013e61177d565b606091505b50509050806117c1576040517f08c379a00000000000000000000000000000000000000000000000000000000081526004016117b8906120cc565b60405180910390fd5b505050565b600033905090565b60008060009054906101000a900473ffffffffffffffffffffffffffffffffffffffff169050816000806101000a81548173ffffffffffffffffffffffffffffffffffffffff021916908373ffffffffffffffffffffffffffffffffffffffff1602179055508173ffffffffffffffffffffffffffffffffffffffff168173ffffffffffffffffffffffffffffffffffffffff167f8be0079c531659141344cd1fd0a4f28419497f9722a3daafe3b4186f6b6457e060405160405180910390a35050565b6001816000016000828254019250508190555050565b600081600001549050919050565b6040518060c00160405280600073ffffffffffffffffffffffffffffffffffffffff1681526020016000815260200160008152602001600073ffffffffffffffffffffffffffffffffffffffff168152602001600081526020016000151581525090565b600061192d61192884612190565b61216b565b90508281526020810184848401111561194557600080fd5b61195084828561235b565b509392505050565b60008135905061196781612668565b92915050565b60008151905061197c81612668565b92915050565b600082601f83011261199357600080fd5b81356119a384826020860161191a565b91505092915050565b6000813590506119bb8161267f565b92915050565b6000815190506119d08161267f565b92915050565b6000602082840312156119e857600080fd5b60006119f684828501611958565b91505092915050565b600060208284031215611a1157600080fd5b6000611a1f8482850161196d565b91505092915050565b60008060008060808587031215611a3e57600080fd5b6000611a4c87828801611958565b9450506020611a5d87828801611958565b9350506040611a6e878288016119ac565b925050606085013567ffffffffffffffff811115611a8b57600080fd5b611a9787828801611982565b91505092959194509250565b60008060408385031215611ab657600080fd5b6000611ac485828601611958565b9250506020611ad5858286016119ac565b9150509250929050565b60008060408385031215611af257600080fd5b6000611b008582860161196d565b9250506020611b11858286016119c1565b9150509250929050565b600080600060608486031215611b3057600080fd5b6000611b3e86828701611958565b9350506020611b4f868287016119ac565b9250506040611b60868287016119ac565b9150509250925092565b600060208284031215611b7c57600080fd5b6000611b8a848285016119ac565b91505092915050565b60008060408385031215611ba657600080fd5b6000611bb4858286016119ac565b9250506020611bc5858286016119ac565b9150509250929050565b6000611bdb8383611dfd565b60c08301905092915050565b611bf0816122e7565b82525050565b611bff816122d5565b82525050565b611c0e816122d5565b82525050565b6000611c1f826121d1565b611c2981856121e9565b9350611c34836121c1565b8060005b83811015611c65578151611c4c8882611bcf565b9750611c57836121dc565b925050600181019050611c38565b5085935050505092915050565b611c7b816122f9565b82525050565b611c8a816122f9565b82525050565b611c9981612305565b82525050565b6000611cac602683612205565b9150611cb782612482565b604082019050919050565b6000611ccf601883612205565b9150611cda826124d1565b602082019050919050565b6000611cf2601383612205565b9150611cfd826124fa565b602082019050919050565b6000611d15601983612205565b9150611d2082612523565b602082019050919050565b6000611d38602883612205565b9150611d438261254c565b604082019050919050565b6000611d5b602083612205565b9150611d668261259b565b602082019050919050565b6000611d7e601f83612205565b9150611d89826125c4565b602082019050919050565b6000611da1602c83612205565b9150611dac826125ed565b604082019050919050565b6000611dc46000836121fa565b9150611dcf8261263c565b600082019050919050565b6000611de7601f83612205565b9150611df28261263f565b602082019050919050565b60c082016000820151611e136000850182611bf6565b506020820151611e266020850182611ef3565b506040820151611e396040850182611ef3565b506060820151611e4c6060850182611be7565b506080820151611e5f6080850182611ef3565b5060a0820151611e7260a0850182611c72565b50505050565b60c082016000820151611e8e6000850182611bf6565b506020820151611ea16020850182611ef3565b506040820151611eb46040850182611ef3565b506060820151611ec76060850182611be7565b506080820151611eda6080850182611ef3565b5060a0820151611eed60a0850182611c72565b50505050565b611efc81612351565b82525050565b611f0b81612351565b82525050565b6000611f1c82611db7565b9150819050919050565b6000602082019050611f3b6000830184611c05565b92915050565b6000606082019050611f566000830186611c05565b611f636020830185611c05565b611f706040830184611f02565b949350505050565b6000606082019050611f8d6000830186611c05565b611f9a6020830185611f02565b611fa76040830184611c81565b949350505050565b60006020820190508181036000830152611fc98184611c14565b905092915050565b6000602082019050611fe66000830184611c90565b92915050565b6000602082019050818103600083015261200581611c9f565b9050919050565b6000602082019050818103600083015261202581611cc2565b9050919050565b6000602082019050818103600083015261204581611ce5565b9050919050565b6000602082019050818103600083015261206581611d08565b9050919050565b6000602082019050818103600083015261208581611d2b565b9050919050565b600060208201905081810360008301526120a581611d4e565b9050919050565b600060208201905081810360008301526120c581611d71565b9050919050565b600060208201905081810360008301526120e581611d94565b9050919050565b6000602082019050818103600083015261210581611dda565b9050919050565b600060c0820190506121216000830184611e78565b92915050565b600060208201905061213c6000830184611f02565b92915050565b60006040820190506121576000830185611f02565b6121646020830184611f02565b9392505050565b6000612175612186565b9050612181828261236a565b919050565b6000604051905090565b600067ffffffffffffffff8211156121ab576121aa612442565b5b6121b482612471565b9050602081019050919050565b6000819050602082019050919050565b600081519050919050565b6000602082019050919050565b600082825260208201905092915050565b600081905092915050565b600082825260208201905092915050565b600061222182612351565b915061222c83612351565b92508261223c5761223b612413565b5b828204905092915050565b600061225282612351565b915061225d83612351565b9250817fffffffffffffffffffffffffffffffffffffffffffffffffffffffffffffffff0483118215151615612296576122956123e4565b5b828202905092915050565b60006122ac82612351565b91506122b783612351565b9250828210156122ca576122c96123e4565b5b828203905092915050565b60006122e082612331565b9050919050565b60006122f282612331565b9050919050565b60008115159050919050565b60007fffffffff0000000000000000000000000000000000000000000000000000000082169050919050565b600073ffffffffffffffffffffffffffffffffffffffff82169050919050565b6000819050919050565b82818337600083830152505050565b61237382612471565b810181811067ffffffffffffffff8211171561239257612391612442565b5b80604052505050565b60006123a682612351565b91507fffffffffffffffffffffffffffffffffffffffffffffffffffffffffffffffff8214156123d9576123d86123e4565b5b600182019050919050565b7f4e487b7100000000000000000000000000000000000000000000000000000000600052601160045260246000fd5b7f4e487b7100000000000000000000000000000000000000000000000000000000600052601260045260246000fd5b7f4e487b7100000000000000000000000000000000000000000000000000000000600052604160045260246000fd5b6000601f19601f8301169050919050565b7f4f776e61626c653a206e6577206f776e657220697320746865207a65726f206160008201527f6464726573730000000000000000000000000000000000000000000000000000602082015250565b7f43616c6c6572206973206e6f74206974656d206f776e65720000000000000000600082015250565b7f4974656d206973206e6f74206c69737465642e00000000000000000000000000600082015250565b7f43616c6c657220646f6573206e6f74206f776e20746f6b656e00000000000000600082015250565b7f506c656173652073656e642074686520636f727265637420616d6f756e74206f60008201527f662065746865722e000000000000000000000000000000000000000000000000602082015250565b7f4f776e61626c653a2063616c6c6572206973206e6f7420746865206f776e6572600082015250565b7f4974656d20726571756573746564206973206e6f7420666f722073616c652e00600082015250565b7f4661696c656420746f207472616e7366657220726f79616c7469657320746f2060008201527f6d61726b6574706c6163652e0000000000000000000000000000000000000000602082015250565b50565b7f5265656e7472616e637947756172643a207265656e7472616e742063616c6c00600082015250565b612671816122d5565b811461267c57600080fd5b50565b61268881612351565b811461269357600080fd5b5056fea2646970667358221220ce5638577c0aa1b19c328c1d28f97caa9f0cab081f1a9a041d5dbf59a0bdbb3364736f6c63430008040033",
  "linkReferences": {},
  "deployedLinkReferences": {}
}