{
  "_format": "hh-sol-artifact-1",
  "contractName": "NFT",
  "sourceName": "contracts/NFT.sol",
  "abi": [
    {
      "inputs": [
        {
          "internalType": "address",
          "name": "_marketplaceAddress",
          "type": "address"
        }
      ],
      "stateMutability": "nonpayable",
      "type": "constructor"
    },
    {
      "anonymous": false,
      "inputs": [
        {
          "indexed": true,
          "internalType": "address",
          "name": "_newAddress",
          "type": "address"
        }
      ],
      "name": "AddToWhitelist",
      "type": "event"
    },
    {
      "anonymous": false,
      "inputs": [
        {
          "indexed": true,
          "internalType": "address",
          "name": "owner",
          "type": "address"
        },
        {
          "indexed": true,
          "internalType": "address",
          "name": "approved",
          "type": "address"
        },
        {
          "indexed": true,
          "internalType": "uint256",
          "name": "tokenId",
          "type": "uint256"
        }
      ],
      "name": "Approval",
      "type": "event"
    },
    {
      "anonymous": false,
      "inputs": [
        {
          "indexed": true,
          "internalType": "address",
          "name": "owner",
          "type": "address"
        },
        {
          "indexed": true,
          "internalType": "address",
          "name": "operator",
          "type": "address"
        },
        {
          "indexed": false,
          "internalType": "bool",
          "name": "approved",
          "type": "bool"
        }
      ],
      "name": "ApprovalForAll",
      "type": "event"
    },
    {
      "anonymous": false,
      "inputs": [
        {
          "indexed": true,
          "internalType": "address",
          "name": "previousOwner",
          "type": "address"
        },
        {
          "indexed": true,
          "internalType": "address",
          "name": "newOwner",
          "type": "address"
        }
      ],
      "name": "OwnershipTransferred",
      "type": "event"
    },
    {
      "anonymous": false,
      "inputs": [
        {
          "indexed": true,
          "internalType": "address",
          "name": "_removedAddress",
          "type": "address"
        }
      ],
      "name": "RemoveFromWhitelist",
      "type": "event"
    },
    {
      "anonymous": false,
      "inputs": [
        {
          "indexed": true,
          "internalType": "uint256",
          "name": "_tokenId",
          "type": "uint256"
        },
        {
          "indexed": false,
          "internalType": "string",
          "name": "_uri",
          "type": "string"
        }
      ],
      "name": "TokenURIUpdated",
      "type": "event"
    },
    {
      "anonymous": false,
      "inputs": [
        {
          "indexed": true,
          "internalType": "address",
          "name": "from",
          "type": "address"
        },
        {
          "indexed": true,
          "internalType": "address",
          "name": "to",
          "type": "address"
        },
        {
          "indexed": true,
          "internalType": "uint256",
          "name": "tokenId",
          "type": "uint256"
        }
      ],
      "name": "Transfer",
      "type": "event"
    },
    {
      "inputs": [
        {
          "internalType": "address",
          "name": "_newAddress",
          "type": "address"
        }
      ],
      "name": "addToWhitelist",
      "outputs": [],
      "stateMutability": "nonpayable",
      "type": "function"
    },
    {
      "inputs": [
        {
          "internalType": "address",
          "name": "to",
          "type": "address"
        },
        {
          "internalType": "uint256",
          "name": "tokenId",
          "type": "uint256"
        }
      ],
      "name": "approve",
      "outputs": [],
      "stateMutability": "nonpayable",
      "type": "function"
    },
    {
      "inputs": [
        {
          "internalType": "address",
          "name": "owner",
          "type": "address"
        }
      ],
      "name": "balanceOf",
      "outputs": [
        {
          "internalType": "uint256",
          "name": "",
          "type": "uint256"
        }
      ],
      "stateMutability": "view",
      "type": "function"
    },
    {
      "inputs": [
        {
          "internalType": "uint256",
          "name": "_tokenId",
          "type": "uint256"
        }
      ],
      "name": "burn",
      "outputs": [],
      "stateMutability": "nonpayable",
      "type": "function"
    },
    {
      "inputs": [
        {
          "internalType": "bool",
          "name": "_enabled",
          "type": "bool"
        }
      ],
      "name": "enableWhitelist",
      "outputs": [],
      "stateMutability": "nonpayable",
      "type": "function"
    },
    {
      "inputs": [
        {
          "internalType": "uint256",
          "name": "tokenId",
          "type": "uint256"
        }
      ],
      "name": "getApproved",
      "outputs": [
        {
          "internalType": "address",
          "name": "",
          "type": "address"
        }
      ],
      "stateMutability": "view",
      "type": "function"
    },
    {
      "inputs": [],
      "name": "getMarketAddress",
      "outputs": [
        {
          "internalType": "address",
          "name": "marketAddress",
          "type": "address"
        }
      ],
      "stateMutability": "view",
      "type": "function"
    },
    {
      "inputs": [
        {
          "internalType": "address[]",
          "name": "_whitelistees",
          "type": "address[]"
        }
      ],
      "name": "initWhitelist",
      "outputs": [],
      "stateMutability": "nonpayable",
      "type": "function"
    },
    {
      "inputs": [
        {
          "internalType": "address",
          "name": "owner",
          "type": "address"
        },
        {
          "internalType": "address",
          "name": "operator",
          "type": "address"
        }
      ],
      "name": "isApprovedForAll",
      "outputs": [
        {
          "internalType": "bool",
          "name": "",
          "type": "bool"
        }
      ],
      "stateMutability": "view",
      "type": "function"
    },
    {
      "inputs": [
        {
          "internalType": "address",
          "name": "_address",
          "type": "address"
        }
      ],
      "name": "isWhitelisted",
      "outputs": [
        {
          "internalType": "bool",
          "name": "",
          "type": "bool"
        }
      ],
      "stateMutability": "view",
      "type": "function"
    },
    {
      "inputs": [
        {
          "internalType": "address",
          "name": "to",
          "type": "address"
        },
        {
          "internalType": "string",
          "name": "tokenURI",
          "type": "string"
        }
      ],
      "name": "mint",
      "outputs": [
        {
          "internalType": "uint256",
          "name": "_tokenId",
          "type": "uint256"
        }
      ],
      "stateMutability": "nonpayable",
      "type": "function"
    },
    {
      "inputs": [],
      "name": "name",
      "outputs": [
        {
          "internalType": "string",
          "name": "",
          "type": "string"
        }
      ],
      "stateMutability": "view",
      "type": "function"
    },
    {
      "inputs": [],
      "name": "owner",
      "outputs": [
        {
          "internalType": "address",
          "name": "",
          "type": "address"
        }
      ],
      "stateMutability": "view",
      "type": "function"
    },
    {
      "inputs": [
        {
          "internalType": "uint256",
          "name": "tokenId",
          "type": "uint256"
        }
      ],
      "name": "ownerOf",
      "outputs": [
        {
          "internalType": "address",
          "name": "",
          "type": "address"
        }
      ],
      "stateMutability": "view",
      "type": "function"
    },
    {
      "inputs": [
        {
          "internalType": "address",
          "name": "_removedAddress",
          "type": "address"
        }
      ],
      "name": "removeFromWhitelist",
      "outputs": [],
      "stateMutability": "nonpayable",
      "type": "function"
    },
    {
      "inputs": [],
      "name": "renounceOwnership",
      "outputs": [],
      "stateMutability": "nonpayable",
      "type": "function"
    },
    {
      "inputs": [
        {
          "internalType": "uint256",
          "name": "_tokenId",
          "type": "uint256"
        },
        {
          "internalType": "uint256",
          "name": "_salePrice",
          "type": "uint256"
        }
      ],
      "name": "royaltyInfo",
      "outputs": [
        {
          "internalType": "address",
          "name": "",
          "type": "address"
        },
        {
          "internalType": "uint256",
          "name": "",
          "type": "uint256"
        }
      ],
      "stateMutability": "view",
      "type": "function"
    },
    {
      "inputs": [
        {
          "internalType": "address",
          "name": "from",
          "type": "address"
        },
        {
          "internalType": "address",
          "name": "to",
          "type": "address"
        },
        {
          "internalType": "uint256",
          "name": "tokenId",
          "type": "uint256"
        }
      ],
      "name": "safeTransferFrom",
      "outputs": [],
      "stateMutability": "nonpayable",
      "type": "function"
    },
    {
      "inputs": [
        {
          "internalType": "address",
          "name": "from",
          "type": "address"
        },
        {
          "internalType": "address",
          "name": "to",
          "type": "address"
        },
        {
          "internalType": "uint256",
          "name": "tokenId",
          "type": "uint256"
        },
        {
          "internalType": "bytes",
          "name": "_data",
          "type": "bytes"
        }
      ],
      "name": "safeTransferFrom",
      "outputs": [],
      "stateMutability": "nonpayable",
      "type": "function"
    },
    {
      "inputs": [
        {
          "internalType": "address",
          "name": "operator",
          "type": "address"
        },
        {
          "internalType": "bool",
          "name": "approved",
          "type": "bool"
        }
      ],
      "name": "setApprovalForAll",
      "outputs": [],
      "stateMutability": "nonpayable",
      "type": "function"
    },
    {
      "inputs": [
        {
          "internalType": "uint256",
          "name": "tokenId",
          "type": "uint256"
        },
        {
          "internalType": "uint256",
          "name": "value",
          "type": "uint256"
        }
      ],
      "name": "setTokenRoyalty",
      "outputs": [],
      "stateMutability": "nonpayable",
      "type": "function"
    },
    {
      "inputs": [
        {
          "internalType": "bytes4",
          "name": "interfaceId",
          "type": "bytes4"
        }
      ],
      "name": "supportsInterface",
      "outputs": [
        {
          "internalType": "bool",
          "name": "",
          "type": "bool"
        }
      ],
      "stateMutability": "view",
      "type": "function"
    },
    {
      "inputs": [],
      "name": "symbol",
      "outputs": [
        {
          "internalType": "string",
          "name": "",
          "type": "string"
        }
      ],
      "stateMutability": "view",
      "type": "function"
    },
    {
      "inputs": [
        {
          "internalType": "uint256",
          "name": "a",
          "type": "uint256"
        }
      ],
      "name": "toUint96",
      "outputs": [
        {
          "internalType": "uint96",
          "name": "",
          "type": "uint96"
        }
      ],
      "stateMutability": "pure",
      "type": "function"
    },
    {
      "inputs": [
        {
          "internalType": "uint256",
          "name": "_tokenId",
          "type": "uint256"
        }
      ],
      "name": "tokenCreator",
      "outputs": [
        {
          "internalType": "address",
          "name": "",
          "type": "address"
        }
      ],
      "stateMutability": "view",
      "type": "function"
    },
    {
      "inputs": [
        {
          "internalType": "uint256",
          "name": "tokenId",
          "type": "uint256"
        }
      ],
      "name": "tokenURI",
      "outputs": [
        {
          "internalType": "string",
          "name": "",
          "type": "string"
        }
      ],
      "stateMutability": "view",
      "type": "function"
    },
    {
      "inputs": [],
      "name": "totalSupply",
      "outputs": [
        {
          "internalType": "uint256",
          "name": "",
          "type": "uint256"
        }
      ],
      "stateMutability": "view",
      "type": "function"
    },
    {
      "inputs": [
        {
          "internalType": "address",
          "name": "from",
          "type": "address"
        },
        {
          "internalType": "address",
          "name": "to",
          "type": "address"
        },
        {
          "internalType": "uint256",
          "name": "tokenId",
          "type": "uint256"
        }
      ],
      "name": "transferFrom",
      "outputs": [],
      "stateMutability": "nonpayable",
      "type": "function"
    },
    {
      "inputs": [
        {
          "internalType": "address",
          "name": "newOwner",
          "type": "address"
        }
      ],
      "name": "transferOwnership",
      "outputs": [],
      "stateMutability": "nonpayable",
      "type": "function"
    },
    {
      "inputs": [
        {
          "internalType": "address",
          "name": "from",
          "type": "address"
        },
        {
          "internalType": "address",
          "name": "to",
          "type": "address"
        },
        {
          "internalType": "uint256",
          "name": "tokenId",
          "type": "uint256"
        }
      ],
      "name": "transferToken",
      "outputs": [],
      "stateMutability": "nonpayable",
      "type": "function"
    },
    {
      "inputs": [
        {
          "internalType": "uint256",
          "name": "_tokenId",
          "type": "uint256"
        },
        {
          "internalType": "string",
          "name": "_uri",
          "type": "string"
        }
      ],
      "name": "updateTokenMetadata",
      "outputs": [],
      "stateMutability": "nonpayable",
      "type": "function"
    }
  ],
  "bytecode": "0x60806040526001600c60006101000a81548160ff0219169083151502179055503480156200002c57600080fd5b5060405162004b0e38038062004b0e8339818101604052810190620000529190620002ef565b6040518060400160405280600581526020017f41726b69760000000000000000000000000000000000000000000000000000008152506040518060400160405280600481526020017f41524b56000000000000000000000000000000000000000000000000000000008152508160009080519060200190620000d692919062000228565b508060019080519060200190620000ef92919062000228565b50505062000112620001066200015a60201b60201c565b6200016260201b60201c565b80600e60006101000a81548173ffffffffffffffffffffffffffffffffffffffff021916908373ffffffffffffffffffffffffffffffffffffffff16021790555050620003ce565b600033905090565b6000600760009054906101000a900473ffffffffffffffffffffffffffffffffffffffff16905081600760006101000a81548173ffffffffffffffffffffffffffffffffffffffff021916908373ffffffffffffffffffffffffffffffffffffffff1602179055508173ffffffffffffffffffffffffffffffffffffffff168173ffffffffffffffffffffffffffffffffffffffff167f8be0079c531659141344cd1fd0a4f28419497f9722a3daafe3b4186f6b6457e060405160405180910390a35050565b82805462000236906200034f565b90600052602060002090601f0160209004810192826200025a5760008555620002a6565b82601f106200027557805160ff1916838001178555620002a6565b82800160010185558215620002a6579182015b82811115620002a557825182559160200191906001019062000288565b5b509050620002b59190620002b9565b5090565b5b80821115620002d4576000816000905550600101620002ba565b5090565b600081519050620002e981620003b4565b92915050565b6000602082840312156200030257600080fd5b60006200031284828501620002d8565b91505092915050565b600062000328826200032f565b9050919050565b600073ffffffffffffffffffffffffffffffffffffffff82169050919050565b600060028204905060018216806200036857607f821691505b602082108114156200037f576200037e62000385565b5b50919050565b7f4e487b7100000000000000000000000000000000000000000000000000000000600052602260045260246000fd5b620003bf816200031b565b8114620003cb57600080fd5b50565b61473080620003de6000396000f3fe608060405234801561001057600080fd5b50600436106101e55760003560e01c806370a082311161010f578063bc189d38116100a2578063e7334fe511610071578063e7334fe51461059d578063e985e9c5146105bb578063f2fde38b146105eb578063f5537ede14610607576101e5565b8063bc189d3814610505578063c87b56dd14610521578063d0def52114610551578063e43252d714610581576101e5565b806395d89b41116100de57806395d89b4114610493578063a22cb465146104b1578063b85ecf93146104cd578063b88d4fde146104e9576101e5565b806370a082311461041f578063715018a61461044f5780638ab1d681146104595780638da5cb5b14610475576101e5565b806323b872dd1161018757806340c1a0641161015657806340c1a0641461038757806342842e0e146103b757806342966c68146103d35780636352211e146103ef576101e5565b806323b872dd146102ee5780632a55205a1461030a5780632cb2f52e1461033b5780633af32abf14610357576101e5565b8063081812fc116101c3578063081812fc14610254578063095ea7b31461028457806318160ddd146102a05780631cf887fc146102be576101e5565b806301ffc9a7146101ea578063040b65831461021a57806306fdde0314610236575b600080fd5b61020460048036038101906101ff9190613264565b610623565b604051610211919061384a565b60405180910390f35b610234600480360381019061022f919061323b565b610635565b005b61023e6106ce565b60405161024b9190613865565b60405180910390f35b61026e600480360381019061026991906132b6565b610760565b60405161027b91906137ba565b60405180910390f35b61029e600480360381019061029991906131be565b6107e5565b005b6102a86108fd565b6040516102b59190613b87565b60405180910390f35b6102d860048036038101906102d391906132b6565b61090a565b6040516102e59190613ba2565b60405180910390f35b61030860048036038101906103039190613064565b61091c565b005b610324600480360381019061031f9190613333565b61097c565b604051610332929190613821565b60405180910390f35b610355600480360381019061035091906132df565b610b67565b005b610371600480360381019061036c9190612fff565b610ca9565b60405161037e919061384a565b60405180910390f35b6103a1600480360381019061039c91906132b6565b610d1e565b6040516103ae91906137ba565b60405180910390f35b6103d160048036038101906103cc9190613064565b610d5b565b005b6103ed60048036038101906103e891906132b6565b610d7b565b005b610409600480360381019061040491906132b6565b610e83565b60405161041691906137ba565b60405180910390f35b61043960048036038101906104349190612fff565b610f35565b6040516104469190613b87565b60405180910390f35b610457610fed565b005b610473600480360381019061046e9190612fff565b611075565b005b61047d611140565b60405161048a91906137ba565b60405180910390f35b61049b61116a565b6040516104a89190613865565b60405180910390f35b6104cb60048036038101906104c6919061312e565b6111fc565b005b6104e760048036038101906104e291906131fa565b611212565b005b61050360048036038101906104fe91906130b3565b61130e565b005b61051f600480360381019061051a9190613333565b611370565b005b61053b600480360381019061053691906132b6565b611493565b6040516105489190613865565b60405180910390f35b61056b6004803603810190610566919061316a565b6115e5565b6040516105789190613b87565b60405180910390f35b61059b60048036038101906105969190612fff565b6116e0565b005b6105a56117ab565b6040516105b291906137ba565b60405180910390f35b6105d560048036038101906105d09190613028565b6117d5565b6040516105e2919061384a565b60405180910390f35b61060560048036038101906106009190612fff565b611869565b005b610621600480360381019061061c9190613064565b611961565b005b600061062e82611971565b9050919050565b61063d6119eb565b73ffffffffffffffffffffffffffffffffffffffff1661065b611140565b73ffffffffffffffffffffffffffffffffffffffff16146106b1576040517f08c379a00000000000000000000000000000000000000000000000000000000081526004016106a890613a87565b60405180910390fd5b80600c60006101000a81548160ff02191690831515021790555050565b6060600080546106dd90613e96565b80601f016020809104026020016040519081016040528092919081815260200182805461070990613e96565b80156107565780601f1061072b57610100808354040283529160200191610756565b820191906000526020600020905b81548152906001019060200180831161073957829003601f168201915b5050505050905090565b600061076b826119f3565b6107aa576040517f08c379a00000000000000000000000000000000000000000000000000000000081526004016107a190613a47565b60405180910390fd5b6004600083815260200190815260200160002060009054906101000a900473ffffffffffffffffffffffffffffffffffffffff169050919050565b60006107f082610e83565b90508073ffffffffffffffffffffffffffffffffffffffff168373ffffffffffffffffffffffffffffffffffffffff161415610861576040517f08c379a000000000000000000000000000000000000000000000000000000000815260040161085890613ae7565b60405180910390fd5b8073ffffffffffffffffffffffffffffffffffffffff166108806119eb565b73ffffffffffffffffffffffffffffffffffffffff1614806108af57506108ae816108a96119eb565b6117d5565b5b6108ee576040517f08c379a00000000000000000000000000000000000000000000000000000000081526004016108e590613987565b60405180910390fd5b6108f88383611a5f565b505050565b6000601380549050905090565b600061091582611b18565b9050919050565b61092d6109276119eb565b82611b73565b61096c576040517f08c379a000000000000000000000000000000000000000000000000000000000815260040161096390613b27565b60405180910390fd5b610977838383611c51565b505050565b6000806000600960008681526020019081526020016000206040518060400160405290816000820160009054906101000a900473ffffffffffffffffffffffffffffffffffffffff1673ffffffffffffffffffffffffffffffffffffffff1673ffffffffffffffffffffffffffffffffffffffff1681526020016000820160149054906101000a90046bffffffffffffffffffffffff166bffffffffffffffffffffffff166bffffffffffffffffffffffff16815250509050600073ffffffffffffffffffffffffffffffffffffffff16816000015173ffffffffffffffffffffffffffffffffffffffff161415610b125760086040518060400160405290816000820160009054906101000a900473ffffffffffffffffffffffffffffffffffffffff1673ffffffffffffffffffffffffffffffffffffffff1673ffffffffffffffffffffffffffffffffffffffff1681526020016000820160149054906101000a90046bffffffffffffffffffffffff166bffffffffffffffffffffffff166bffffffffffffffffffffffff168152505090505b6000610b1c611ead565b6bffffffffffffffffffffffff1682602001516bffffffffffffffffffffffff1686610b489190613d3a565b610b529190613d09565b90508160000151819350935050509250929050565b816000610b7382610e83565b90503373ffffffffffffffffffffffffffffffffffffffff168173ffffffffffffffffffffffffffffffffffffffff1614610be3576040517f08c379a0000000000000000000000000000000000000000000000000000000008152600401610bda906138a7565b60405180910390fd5b836000610bef82610d1e565b90503373ffffffffffffffffffffffffffffffffffffffff168173ffffffffffffffffffffffffffffffffffffffff1614610c5f576040517f08c379a0000000000000000000000000000000000000000000000000000000008152600401610c5690613a67565b60405180910390fd5b610c698686611eb7565b857f931f495b9a8e5d8e61946ea5d61e021f636cfe213a801f97589c18c152e408bd86604051610c999190613865565b60405180910390a2505050505050565b6000600c60009054906101000a900460ff1615610d1457600b60008373ffffffffffffffffffffffffffffffffffffffff1673ffffffffffffffffffffffffffffffffffffffff16815260200190815260200160002060009054906101000a900460ff169050610d19565b600190505b919050565b60006010600083815260200190815260200160002060009054906101000a900473ffffffffffffffffffffffffffffffffffffffff169050919050565b610d768383836040518060200160405280600081525061130e565b505050565b806000610d8782610e83565b90503373ffffffffffffffffffffffffffffffffffffffff168173ffffffffffffffffffffffffffffffffffffffff1614610df7576040517f08c379a0000000000000000000000000000000000000000000000000000000008152600401610dee906138a7565b60405180910390fd5b826000610e0382610d1e565b90503373ffffffffffffffffffffffffffffffffffffffff168173ffffffffffffffffffffffffffffffffffffffff1614610e73576040517f08c379a0000000000000000000000000000000000000000000000000000000008152600401610e6a90613a67565b60405180910390fd5b610e7c85611f2b565b5050505050565b6000806002600084815260200190815260200160002060009054906101000a900473ffffffffffffffffffffffffffffffffffffffff169050600073ffffffffffffffffffffffffffffffffffffffff168173ffffffffffffffffffffffffffffffffffffffff161415610f2c576040517f08c379a0000000000000000000000000000000000000000000000000000000008152600401610f23906139c7565b60405180910390fd5b80915050919050565b60008073ffffffffffffffffffffffffffffffffffffffff168273ffffffffffffffffffffffffffffffffffffffff161415610fa6576040517f08c379a0000000000000000000000000000000000000000000000000000000008152600401610f9d906139a7565b60405180910390fd5b600360008373ffffffffffffffffffffffffffffffffffffffff1673ffffffffffffffffffffffffffffffffffffffff168152602001908152602001600020549050919050565b610ff56119eb565b73ffffffffffffffffffffffffffffffffffffffff16611013611140565b73ffffffffffffffffffffffffffffffffffffffff1614611069576040517f08c379a000000000000000000000000000000000000000000000000000000000815260040161106090613a87565b60405180910390fd5b6110736000611f7e565b565b61107d6119eb565b73ffffffffffffffffffffffffffffffffffffffff1661109b611140565b73ffffffffffffffffffffffffffffffffffffffff16146110f1576040517f08c379a00000000000000000000000000000000000000000000000000000000081526004016110e890613a87565b60405180910390fd5b6110fa81612044565b8073ffffffffffffffffffffffffffffffffffffffff167f1f756c8b089af6b33ee121fee8badac2553a2fa89c0575ea91ff8792617746c260405160405180910390a250565b6000600760009054906101000a900473ffffffffffffffffffffffffffffffffffffffff16905090565b60606001805461117990613e96565b80601f01602080910402602001604051908101604052809291908181526020018280546111a590613e96565b80156111f25780601f106111c7576101008083540402835291602001916111f2565b820191906000526020600020905b8154815290600101906020018083116111d557829003601f168201915b5050505050905090565b61120e6112076119eb565b838361209f565b5050565b61121a6119eb565b73ffffffffffffffffffffffffffffffffffffffff16611238611140565b73ffffffffffffffffffffffffffffffffffffffff161461128e576040517f08c379a000000000000000000000000000000000000000000000000000000000815260040161128590613a87565b60405180910390fd5b60005b815181101561130a5760008282815181106112d5577f4e487b7100000000000000000000000000000000000000000000000000000000600052603260045260246000fd5b602002602001015190506112e881610ca9565b6112f6576112f58161220c565b5b50808061130290613ef9565b915050611291565b5050565b61131f6113196119eb565b83611b73565b61135e576040517f08c379a000000000000000000000000000000000000000000000000000000000815260040161135590613b27565b60405180910390fd5b61136a84848484612267565b50505050565b81600061137c82610d1e565b90503373ffffffffffffffffffffffffffffffffffffffff168173ffffffffffffffffffffffffffffffffffffffff16146113ec576040517f08c379a00000000000000000000000000000000000000000000000000000000081526004016113e390613a67565b60405180910390fd5b8360006113f882610e83565b90503373ffffffffffffffffffffffffffffffffffffffff168173ffffffffffffffffffffffffffffffffffffffff1614611468576040517f08c379a000000000000000000000000000000000000000000000000000000000815260040161145f906138a7565b60405180910390fd5b600085111561148b57600061147c8661090a565b90506114898733836122c3565b505b505050505050565b606061149e826119f3565b6114dd576040517f08c379a00000000000000000000000000000000000000000000000000000000081526004016114d490613a27565b60405180910390fd5b60006006600084815260200190815260200160002080546114fd90613e96565b80601f016020809104026020016040519081016040528092919081815260200182805461152990613e96565b80156115765780601f1061154b57610100808354040283529160200191611576565b820191906000526020600020905b81548152906001019060200180831161155957829003601f168201915b50505050509050600061158761246b565b905060008151141561159d5781925050506115e0565b6000825111156115d25780826040516020016115ba929190613796565b604051602081830303815290604052925050506115e0565b6115db84612482565b925050505b919050565b60006115f033610ca9565b61162f576040517f08c379a000000000000000000000000000000000000000000000000000000000815260040161162690613b07565b60405180910390fd5b600061163b600d612529565b90506116478482612537565b6116518184611eb7565b336010600083815260200190815260200160002060006101000a81548173ffffffffffffffffffffffffffffffffffffffff021916908373ffffffffffffffffffffffffffffffffffffffff16021790555060138190806001815401808255809150506001900390600052602060002001600090919091909150556116d6600d612555565b8091505092915050565b6116e86119eb565b73ffffffffffffffffffffffffffffffffffffffff16611706611140565b73ffffffffffffffffffffffffffffffffffffffff161461175c576040517f08c379a000000000000000000000000000000000000000000000000000000000815260040161175390613a87565b60405180910390fd5b6117658161220c565b8073ffffffffffffffffffffffffffffffffffffffff167f75b2135d1c8c3519f3c09c43fe6527089ef09f40c7981ebf0ed46e79e79032c760405160405180910390a250565b6000600e60009054906101000a900473ffffffffffffffffffffffffffffffffffffffff16905090565b6000600560008473ffffffffffffffffffffffffffffffffffffffff1673ffffffffffffffffffffffffffffffffffffffff16815260200190815260200160002060008373ffffffffffffffffffffffffffffffffffffffff1673ffffffffffffffffffffffffffffffffffffffff16815260200190815260200160002060009054906101000a900460ff16905092915050565b6118716119eb565b73ffffffffffffffffffffffffffffffffffffffff1661188f611140565b73ffffffffffffffffffffffffffffffffffffffff16146118e5576040517f08c379a00000000000000000000000000000000000000000000000000000000081526004016118dc90613a87565b60405180910390fd5b600073ffffffffffffffffffffffffffffffffffffffff168173ffffffffffffffffffffffffffffffffffffffff161415611955576040517f08c379a000000000000000000000000000000000000000000000000000000000815260040161194c906138e7565b60405180910390fd5b61195e81611f7e565b50565b61196c83838361091c565b505050565b60007f2a55205a000000000000000000000000000000000000000000000000000000007bffffffffffffffffffffffffffffffffffffffffffffffffffffffff1916827bffffffffffffffffffffffffffffffffffffffffffffffffffffffff191614806119e457506119e38261256b565b5b9050919050565b600033905090565b60008073ffffffffffffffffffffffffffffffffffffffff166002600084815260200190815260200160002060009054906101000a900473ffffffffffffffffffffffffffffffffffffffff1673ffffffffffffffffffffffffffffffffffffffff1614159050919050565b816004600083815260200190815260200160002060006101000a81548173ffffffffffffffffffffffffffffffffffffffff021916908373ffffffffffffffffffffffffffffffffffffffff160217905550808273ffffffffffffffffffffffffffffffffffffffff16611ad283610e83565b73ffffffffffffffffffffffffffffffffffffffff167f8c5be1e5ebec7d5bd14f71427d1e84f3dd0314c0f7b2291e5b200ac8c7c3b92560405160405180910390a45050565b60006bffffffffffffffffffffffff8016821115611b6b576040517f08c379a0000000000000000000000000000000000000000000000000000000008152600401611b6290613887565b60405180910390fd5b819050919050565b6000611b7e826119f3565b611bbd576040517f08c379a0000000000000000000000000000000000000000000000000000000008152600401611bb490613967565b60405180910390fd5b6000611bc883610e83565b90508073ffffffffffffffffffffffffffffffffffffffff168473ffffffffffffffffffffffffffffffffffffffff161480611c3757508373ffffffffffffffffffffffffffffffffffffffff16611c1f84610760565b73ffffffffffffffffffffffffffffffffffffffff16145b80611c485750611c4781856117d5565b5b91505092915050565b8273ffffffffffffffffffffffffffffffffffffffff16611c7182610e83565b73ffffffffffffffffffffffffffffffffffffffff1614611cc7576040517f08c379a0000000000000000000000000000000000000000000000000000000008152600401611cbe90613aa7565b60405180910390fd5b600073ffffffffffffffffffffffffffffffffffffffff168273ffffffffffffffffffffffffffffffffffffffff161415611d37576040517f08c379a0000000000000000000000000000000000000000000000000000000008152600401611d2e90613927565b60405180910390fd5b611d4283838361264d565b611d4d600082611a5f565b6001600360008573ffffffffffffffffffffffffffffffffffffffff1673ffffffffffffffffffffffffffffffffffffffff1681526020019081526020016000206000828254611d9d9190613d94565b925050819055506001600360008473ffffffffffffffffffffffffffffffffffffffff1673ffffffffffffffffffffffffffffffffffffffff1681526020019081526020016000206000828254611df49190613cb3565b92505081905550816002600083815260200190815260200160002060006101000a81548173ffffffffffffffffffffffffffffffffffffffff021916908373ffffffffffffffffffffffffffffffffffffffff160217905550808273ffffffffffffffffffffffffffffffffffffffff168473ffffffffffffffffffffffffffffffffffffffff167fddf252ad1be2c89b69c2b068fc378daa952ba7f163c4a11628f55a4df523b3ef60405160405180910390a4505050565b6000612710905090565b611ec0826119f3565b611eff576040517f08c379a0000000000000000000000000000000000000000000000000000000008152600401611ef6906139e7565b60405180910390fd5b80600660008481526020019081526020016000209080519060200190611f26929190612d4d565b505050565b611f3481612652565b6000600660008381526020019081526020016000208054611f5490613e96565b905014611f7b57600660008281526020019081526020016000206000611f7a9190612dd3565b5b50565b6000600760009054906101000a900473ffffffffffffffffffffffffffffffffffffffff16905081600760006101000a81548173ffffffffffffffffffffffffffffffffffffffff021916908373ffffffffffffffffffffffffffffffffffffffff1602179055508173ffffffffffffffffffffffffffffffffffffffff168173ffffffffffffffffffffffffffffffffffffffff167f8be0079c531659141344cd1fd0a4f28419497f9722a3daafe3b4186f6b6457e060405160405180910390a35050565b6000600b60008373ffffffffffffffffffffffffffffffffffffffff1673ffffffffffffffffffffffffffffffffffffffff16815260200190815260200160002060006101000a81548160ff02191690831515021790555050565b8173ffffffffffffffffffffffffffffffffffffffff168373ffffffffffffffffffffffffffffffffffffffff16141561210e576040517f08c379a000000000000000000000000000000000000000000000000000000000815260040161210590613947565b60405180910390fd5b80600560008573ffffffffffffffffffffffffffffffffffffffff1673ffffffffffffffffffffffffffffffffffffffff16815260200190815260200160002060008473ffffffffffffffffffffffffffffffffffffffff1673ffffffffffffffffffffffffffffffffffffffff16815260200190815260200160002060006101000a81548160ff0219169083151502179055508173ffffffffffffffffffffffffffffffffffffffff168373ffffffffffffffffffffffffffffffffffffffff167f17307eab39ab6107e8899845ad3d59bd9653f200f220920489ca2b5937696c31836040516121ff919061384a565b60405180910390a3505050565b6001600b60008373ffffffffffffffffffffffffffffffffffffffff1673ffffffffffffffffffffffffffffffffffffffff16815260200190815260200160002060006101000a81548160ff02191690831515021790555050565b612272848484611c51565b61227e84848484612763565b6122bd576040517f08c379a00000000000000000000000000000000000000000000000000000000081526004016122b4906138c7565b60405180910390fd5b50505050565b6122cb611ead565b6bffffffffffffffffffffffff16816bffffffffffffffffffffffff161115612329576040517f08c379a000000000000000000000000000000000000000000000000000000000815260040161232090613b67565b60405180910390fd5b600073ffffffffffffffffffffffffffffffffffffffff168273ffffffffffffffffffffffffffffffffffffffff161415612399576040517f08c379a000000000000000000000000000000000000000000000000000000000815260040161239090613b47565b60405180910390fd5b60405180604001604052808373ffffffffffffffffffffffffffffffffffffffff168152602001826bffffffffffffffffffffffff168152506009600085815260200190815260200160002060008201518160000160006101000a81548173ffffffffffffffffffffffffffffffffffffffff021916908373ffffffffffffffffffffffffffffffffffffffff16021790555060208201518160000160146101000a8154816bffffffffffffffffffffffff02191690836bffffffffffffffffffffffff160217905550905050505050565b606060405180602001604052806000815250905090565b606061248d826119f3565b6124cc576040517f08c379a00000000000000000000000000000000000000000000000000000000081526004016124c390613ac7565b60405180910390fd5b60006124d661246b565b905060008151116124f65760405180602001604052806000815250612521565b80612500846128fa565b604051602001612511929190613796565b6040516020818303038152906040525b915050919050565b600081600001549050919050565b612551828260405180602001604052806000815250612aa7565b5050565b6001816000016000828254019250508190555050565b60007f80ac58cd000000000000000000000000000000000000000000000000000000007bffffffffffffffffffffffffffffffffffffffffffffffffffffffff1916827bffffffffffffffffffffffffffffffffffffffffffffffffffffffff1916148061263657507f5b5e139f000000000000000000000000000000000000000000000000000000007bffffffffffffffffffffffffffffffffffffffffffffffffffffffff1916827bffffffffffffffffffffffffffffffffffffffffffffffffffffffff1916145b80612646575061264582612b02565b5b9050919050565b505050565b600061265d82610e83565b905061266b8160008461264d565b612676600083611a5f565b6001600360008373ffffffffffffffffffffffffffffffffffffffff1673ffffffffffffffffffffffffffffffffffffffff16815260200190815260200160002060008282546126c69190613d94565b925050819055506002600083815260200190815260200160002060006101000a81549073ffffffffffffffffffffffffffffffffffffffff021916905581600073ffffffffffffffffffffffffffffffffffffffff168273ffffffffffffffffffffffffffffffffffffffff167fddf252ad1be2c89b69c2b068fc378daa952ba7f163c4a11628f55a4df523b3ef60405160405180910390a45050565b60006127848473ffffffffffffffffffffffffffffffffffffffff16612b6c565b156128ed578373ffffffffffffffffffffffffffffffffffffffff1663150b7a026127ad6119eb565b8786866040518563ffffffff1660e01b81526004016127cf94939291906137d5565b602060405180830381600087803b1580156127e957600080fd5b505af192505050801561281a57506040513d601f19601f82011682018060405250810190612817919061328d565b60015b61289d573d806000811461284a576040519150601f19603f3d011682016040523d82523d6000602084013e61284f565b606091505b50600081511415612895576040517f08c379a000000000000000000000000000000000000000000000000000000000815260040161288c906138c7565b60405180910390fd5b805181602001fd5b63150b7a0260e01b7bffffffffffffffffffffffffffffffffffffffffffffffffffffffff1916817bffffffffffffffffffffffffffffffffffffffffffffffffffffffff1916149150506128f2565b600190505b949350505050565b60606000821415612942576040518060400160405280600181526020017f30000000000000000000000000000000000000000000000000000000000000008152509050612aa2565b600082905060005b6000821461297457808061295d90613ef9565b915050600a8261296d9190613d09565b915061294a565b60008167ffffffffffffffff8111156129b6577f4e487b7100000000000000000000000000000000000000000000000000000000600052604160045260246000fd5b6040519080825280601f01601f1916602001820160405280156129e85781602001600182028036833780820191505090505b5090505b60008514612a9b57600182612a019190613d94565b9150600a85612a109190613f42565b6030612a1c9190613cb3565b60f81b818381518110612a58577f4e487b7100000000000000000000000000000000000000000000000000000000600052603260045260246000fd5b60200101907effffffffffffffffffffffffffffffffffffffffffffffffffffffffffffff1916908160001a905350600a85612a949190613d09565b94506129ec565b8093505050505b919050565b612ab18383612b7f565b612abe6000848484612763565b612afd576040517f08c379a0000000000000000000000000000000000000000000000000000000008152600401612af4906138c7565b60405180910390fd5b505050565b60007f01ffc9a7000000000000000000000000000000000000000000000000000000007bffffffffffffffffffffffffffffffffffffffffffffffffffffffff1916827bffffffffffffffffffffffffffffffffffffffffffffffffffffffff1916149050919050565b600080823b905060008111915050919050565b600073ffffffffffffffffffffffffffffffffffffffff168273ffffffffffffffffffffffffffffffffffffffff161415612bef576040517f08c379a0000000000000000000000000000000000000000000000000000000008152600401612be690613a07565b60405180910390fd5b612bf8816119f3565b15612c38576040517f08c379a0000000000000000000000000000000000000000000000000000000008152600401612c2f90613907565b60405180910390fd5b612c446000838361264d565b6001600360008473ffffffffffffffffffffffffffffffffffffffff1673ffffffffffffffffffffffffffffffffffffffff1681526020019081526020016000206000828254612c949190613cb3565b92505081905550816002600083815260200190815260200160002060006101000a81548173ffffffffffffffffffffffffffffffffffffffff021916908373ffffffffffffffffffffffffffffffffffffffff160217905550808273ffffffffffffffffffffffffffffffffffffffff16600073ffffffffffffffffffffffffffffffffffffffff167fddf252ad1be2c89b69c2b068fc378daa952ba7f163c4a11628f55a4df523b3ef60405160405180910390a45050565b828054612d5990613e96565b90600052602060002090601f016020900481019282612d7b5760008555612dc2565b82601f10612d9457805160ff1916838001178555612dc2565b82800160010185558215612dc2579182015b82811115612dc1578251825591602001919060010190612da6565b5b509050612dcf9190612e13565b5090565b508054612ddf90613e96565b6000825580601f10612df15750612e10565b601f016020900490600052602060002090810190612e0f9190612e13565b5b50565b5b80821115612e2c576000816000905550600101612e14565b5090565b6000612e43612e3e84613be2565b613bbd565b90508083825260208201905082856020860282011115612e6257600080fd5b60005b85811015612e925781612e788882612f18565b845260208401935060208301925050600181019050612e65565b5050509392505050565b6000612eaf612eaa84613c0e565b613bbd565b905082815260208101848484011115612ec757600080fd5b612ed2848285613e54565b509392505050565b6000612eed612ee884613c3f565b613bbd565b905082815260208101848484011115612f0557600080fd5b612f10848285613e54565b509392505050565b600081359050612f278161469e565b92915050565b600082601f830112612f3e57600080fd5b8135612f4e848260208601612e30565b91505092915050565b600081359050612f66816146b5565b92915050565b600081359050612f7b816146cc565b92915050565b600081519050612f90816146cc565b92915050565b600082601f830112612fa757600080fd5b8135612fb7848260208601612e9c565b91505092915050565b600082601f830112612fd157600080fd5b8135612fe1848260208601612eda565b91505092915050565b600081359050612ff9816146e3565b92915050565b60006020828403121561301157600080fd5b600061301f84828501612f18565b91505092915050565b6000806040838503121561303b57600080fd5b600061304985828601612f18565b925050602061305a85828601612f18565b9150509250929050565b60008060006060848603121561307957600080fd5b600061308786828701612f18565b935050602061309886828701612f18565b92505060406130a986828701612fea565b9150509250925092565b600080600080608085870312156130c957600080fd5b60006130d787828801612f18565b94505060206130e887828801612f18565b93505060406130f987828801612fea565b925050606085013567ffffffffffffffff81111561311657600080fd5b61312287828801612f96565b91505092959194509250565b6000806040838503121561314157600080fd5b600061314f85828601612f18565b925050602061316085828601612f57565b9150509250929050565b6000806040838503121561317d57600080fd5b600061318b85828601612f18565b925050602083013567ffffffffffffffff8111156131a857600080fd5b6131b485828601612fc0565b9150509250929050565b600080604083850312156131d157600080fd5b60006131df85828601612f18565b92505060206131f085828601612fea565b9150509250929050565b60006020828403121561320c57600080fd5b600082013567ffffffffffffffff81111561322657600080fd5b61323284828501612f2d565b91505092915050565b60006020828403121561324d57600080fd5b600061325b84828501612f57565b91505092915050565b60006020828403121561327657600080fd5b600061328484828501612f6c565b91505092915050565b60006020828403121561329f57600080fd5b60006132ad84828501612f81565b91505092915050565b6000602082840312156132c857600080fd5b60006132d684828501612fea565b91505092915050565b600080604083850312156132f257600080fd5b600061330085828601612fea565b925050602083013567ffffffffffffffff81111561331d57600080fd5b61332985828601612fc0565b9150509250929050565b6000806040838503121561334657600080fd5b600061335485828601612fea565b925050602061336585828601612fea565b9150509250929050565b61337881613dc8565b82525050565b61338781613dda565b82525050565b600061339882613c70565b6133a28185613c86565b93506133b2818560208601613e63565b6133bb8161402f565b840191505092915050565b60006133d182613c7b565b6133db8185613c97565b93506133eb818560208601613e63565b6133f48161402f565b840191505092915050565b600061340a82613c7b565b6134148185613ca8565b9350613424818560208601613e63565b80840191505092915050565b600061343d602683613c97565b915061344882614040565b604082019050919050565b6000613460601783613c97565b915061346b8261408f565b602082019050919050565b6000613483603283613c97565b915061348e826140b8565b604082019050919050565b60006134a6602683613c97565b91506134b182614107565b604082019050919050565b60006134c9601c83613c97565b91506134d482614156565b602082019050919050565b60006134ec602483613c97565b91506134f78261417f565b604082019050919050565b600061350f601983613c97565b915061351a826141ce565b602082019050919050565b6000613532602c83613c97565b915061353d826141f7565b604082019050919050565b6000613555603883613c97565b915061356082614246565b604082019050919050565b6000613578602a83613c97565b915061358382614295565b604082019050919050565b600061359b602983613c97565b91506135a6826142e4565b604082019050919050565b60006135be602e83613c97565b91506135c982614333565b604082019050919050565b60006135e1602083613c97565b91506135ec82614382565b602082019050919050565b6000613604603183613c97565b915061360f826143ab565b604082019050919050565b6000613627602c83613c97565b9150613632826143fa565b604082019050919050565b600061364a601983613c97565b915061365582614449565b602082019050919050565b600061366d602083613c97565b915061367882614472565b602082019050919050565b6000613690602983613c97565b915061369b8261449b565b604082019050919050565b60006136b3602f83613c97565b91506136be826144ea565b604082019050919050565b60006136d6602183613c97565b91506136e182614539565b604082019050919050565b60006136f9602483613c97565b915061370482614588565b604082019050919050565b600061371c603183613c97565b9150613727826145d7565b604082019050919050565b600061373f601b83613c97565b915061374a82614626565b602082019050919050565b6000613762602a83613c97565b915061376d8261464f565b604082019050919050565b61378181613e32565b82525050565b61379081613e3c565b82525050565b60006137a282856133ff565b91506137ae82846133ff565b91508190509392505050565b60006020820190506137cf600083018461336f565b92915050565b60006080820190506137ea600083018761336f565b6137f7602083018661336f565b6138046040830185613778565b8181036060830152613816818461338d565b905095945050505050565b6000604082019050613836600083018561336f565b6138436020830184613778565b9392505050565b600060208201905061385f600083018461337e565b92915050565b6000602082019050818103600083015261387f81846133c6565b905092915050565b600060208201905081810360008301526138a081613430565b9050919050565b600060208201905081810360008301526138c081613453565b9050919050565b600060208201905081810360008301526138e081613476565b9050919050565b6000602082019050818103600083015261390081613499565b9050919050565b60006020820190508181036000830152613920816134bc565b9050919050565b60006020820190508181036000830152613940816134df565b9050919050565b6000602082019050818103600083015261396081613502565b9050919050565b6000602082019050818103600083015261398081613525565b9050919050565b600060208201905081810360008301526139a081613548565b9050919050565b600060208201905081810360008301526139c08161356b565b9050919050565b600060208201905081810360008301526139e08161358e565b9050919050565b60006020820190508181036000830152613a00816135b1565b9050919050565b60006020820190508181036000830152613a20816135d4565b9050919050565b60006020820190508181036000830152613a40816135f7565b9050919050565b60006020820190508181036000830152613a608161361a565b9050919050565b60006020820190508181036000830152613a808161363d565b9050919050565b60006020820190508181036000830152613aa081613660565b9050919050565b60006020820190508181036000830152613ac081613683565b9050919050565b60006020820190508181036000830152613ae0816136a6565b9050919050565b60006020820190508181036000830152613b00816136c9565b9050919050565b60006020820190508181036000830152613b20816136ec565b9050919050565b60006020820190508181036000830152613b408161370f565b9050919050565b60006020820190508181036000830152613b6081613732565b9050919050565b60006020820190508181036000830152613b8081613755565b9050919050565b6000602082019050613b9c6000830184613778565b92915050565b6000602082019050613bb76000830184613787565b92915050565b6000613bc7613bd8565b9050613bd38282613ec8565b919050565b6000604051905090565b600067ffffffffffffffff821115613bfd57613bfc614000565b5b602082029050602081019050919050565b600067ffffffffffffffff821115613c2957613c28614000565b5b613c328261402f565b9050602081019050919050565b600067ffffffffffffffff821115613c5a57613c59614000565b5b613c638261402f565b9050602081019050919050565b600081519050919050565b600081519050919050565b600082825260208201905092915050565b600082825260208201905092915050565b600081905092915050565b6000613cbe82613e32565b9150613cc983613e32565b9250827fffffffffffffffffffffffffffffffffffffffffffffffffffffffffffffffff03821115613cfe57613cfd613f73565b5b828201905092915050565b6000613d1482613e32565b9150613d1f83613e32565b925082613d2f57613d2e613fa2565b5b828204905092915050565b6000613d4582613e32565b9150613d5083613e32565b9250817fffffffffffffffffffffffffffffffffffffffffffffffffffffffffffffffff0483118215151615613d8957613d88613f73565b5b828202905092915050565b6000613d9f82613e32565b9150613daa83613e32565b925082821015613dbd57613dbc613f73565b5b828203905092915050565b6000613dd382613e12565b9050919050565b60008115159050919050565b60007fffffffff0000000000000000000000000000000000000000000000000000000082169050919050565b600073ffffffffffffffffffffffffffffffffffffffff82169050919050565b6000819050919050565b60006bffffffffffffffffffffffff82169050919050565b82818337600083830152505050565b60005b83811015613e81578082015181840152602081019050613e66565b83811115613e90576000848401525b50505050565b60006002820490506001821680613eae57607f821691505b60208210811415613ec257613ec1613fd1565b5b50919050565b613ed18261402f565b810181811067ffffffffffffffff82111715613ef057613eef614000565b5b80604052505050565b6000613f0482613e32565b91507fffffffffffffffffffffffffffffffffffffffffffffffffffffffffffffffff821415613f3757613f36613f73565b5b600182019050919050565b6000613f4d82613e32565b9150613f5883613e32565b925082613f6857613f67613fa2565b5b828206905092915050565b7f4e487b7100000000000000000000000000000000000000000000000000000000600052601160045260246000fd5b7f4e487b7100000000000000000000000000000000000000000000000000000000600052601260045260246000fd5b7f4e487b7100000000000000000000000000000000000000000000000000000000600052602260045260246000fd5b7f4e487b7100000000000000000000000000000000000000000000000000000000600052604160045260246000fd5b6000601f19601f8301169050919050565b7f53616665436173743a2076616c756520646f65736e27742066697420696e203960008201527f3620626974730000000000000000000000000000000000000000000000000000602082015250565b7f43616c6c6572206973206e6f7420746865206f776e6572000000000000000000600082015250565b7f4552433732313a207472616e7366657220746f206e6f6e20455243373231526560008201527f63656976657220696d706c656d656e7465720000000000000000000000000000602082015250565b7f4f776e61626c653a206e6577206f776e657220697320746865207a65726f206160008201527f6464726573730000000000000000000000000000000000000000000000000000602082015250565b7f4552433732313a20746f6b656e20616c7265616479206d696e74656400000000600082015250565b7f4552433732313a207472616e7366657220746f20746865207a65726f2061646460008201527f7265737300000000000000000000000000000000000000000000000000000000602082015250565b7f4552433732313a20617070726f766520746f2063616c6c657200000000000000600082015250565b7f4552433732313a206f70657261746f7220717565727920666f72206e6f6e657860008201527f697374656e7420746f6b656e0000000000000000000000000000000000000000602082015250565b7f4552433732313a20617070726f76652063616c6c6572206973206e6f74206f7760008201527f6e6572206e6f7220617070726f76656420666f7220616c6c0000000000000000602082015250565b7f4552433732313a2062616c616e636520717565727920666f7220746865207a6560008201527f726f206164647265737300000000000000000000000000000000000000000000602082015250565b7f4552433732313a206f776e657220717565727920666f72206e6f6e657869737460008201527f656e7420746f6b656e0000000000000000000000000000000000000000000000602082015250565b7f45524337323155524953746f726167653a2055524920736574206f66206e6f6e60008201527f6578697374656e7420746f6b656e000000000000000000000000000000000000602082015250565b7f4552433732313a206d696e7420746f20746865207a65726f2061646472657373600082015250565b7f45524337323155524953746f726167653a2055524920717565727920666f722060008201527f6e6f6e6578697374656e7420746f6b656e000000000000000000000000000000602082015250565b7f4552433732313a20617070726f76656420717565727920666f72206e6f6e657860008201527f697374656e7420746f6b656e0000000000000000000000000000000000000000602082015250565b7f43616c6c6572206973206e6f74207468652063726561746f7200000000000000600082015250565b7f4f776e61626c653a2063616c6c6572206973206e6f7420746865206f776e6572600082015250565b7f4552433732313a207472616e73666572206f6620746f6b656e2074686174206960008201527f73206e6f74206f776e0000000000000000000000000000000000000000000000602082015250565b7f4552433732314d657461646174613a2055524920717565727920666f72206e6f60008201527f6e6578697374656e7420746f6b656e0000000000000000000000000000000000602082015250565b7f4552433732313a20617070726f76616c20746f2063757272656e74206f776e6560008201527f7200000000000000000000000000000000000000000000000000000000000000602082015250565b7f4d7573742062652077686974656c697374656420746f2063726561746520746f60008201527f6b656e7300000000000000000000000000000000000000000000000000000000602082015250565b7f4552433732313a207472616e736665722063616c6c6572206973206e6f74206f60008201527f776e6572206e6f7220617070726f766564000000000000000000000000000000602082015250565b7f455243323938313a20496e76616c696420706172616d65746572730000000000600082015250565b7f455243323938313a20726f79616c7479206665652077696c6c2065786365656460008201527f2073616c65507269636500000000000000000000000000000000000000000000602082015250565b6146a781613dc8565b81146146b257600080fd5b50565b6146be81613dda565b81146146c957600080fd5b50565b6146d581613de6565b81146146e057600080fd5b50565b6146ec81613e32565b81146146f757600080fd5b5056fea2646970667358221220a51ce4b7ac0bdfa88d535d4788f4c626a18a585fcfe2519b27460019482f19cd64736f6c63430008040033",
  "linkReferences": {},
  "deployedLinkReferences": {}
}