{
  "_format": "hh-sol-artifact-1",
  "contractName": "NFT",
  "sourceName": "contracts/NFT.sol",
  "abi": [
    {
      "inputs": [
        {
          "internalType": "address",
          "name": "_marketplaceAddress",
          "type": "address"
        }
      ],
      "stateMutability": "nonpayable",
      "type": "constructor"
    },
    {
      "anonymous": false,
      "inputs": [
        {
          "indexed": true,
          "internalType": "address",
          "name": "_newAddress",
          "type": "address"
        }
      ],
      "name": "AddToWhitelist",
      "type": "event"
    },
    {
      "anonymous": false,
      "inputs": [
        {
          "indexed": true,
          "internalType": "address",
          "name": "owner",
          "type": "address"
        },
        {
          "indexed": true,
          "internalType": "address",
          "name": "approved",
          "type": "address"
        },
        {
          "indexed": true,
          "internalType": "uint256",
          "name": "tokenId",
          "type": "uint256"
        }
      ],
      "name": "Approval",
      "type": "event"
    },
    {
      "anonymous": false,
      "inputs": [
        {
          "indexed": true,
          "internalType": "address",
          "name": "owner",
          "type": "address"
        },
        {
          "indexed": true,
          "internalType": "address",
          "name": "operator",
          "type": "address"
        },
        {
          "indexed": false,
          "internalType": "bool",
          "name": "approved",
          "type": "bool"
        }
      ],
      "name": "ApprovalForAll",
      "type": "event"
    },
    {
      "anonymous": false,
      "inputs": [
        {
          "indexed": true,
          "internalType": "address",
          "name": "previousOwner",
          "type": "address"
        },
        {
          "indexed": true,
          "internalType": "address",
          "name": "newOwner",
          "type": "address"
        }
      ],
      "name": "OwnershipTransferred",
      "type": "event"
    },
    {
      "anonymous": false,
      "inputs": [
        {
          "indexed": true,
          "internalType": "address",
          "name": "_removedAddress",
          "type": "address"
        }
      ],
      "name": "RemoveFromWhitelist",
      "type": "event"
    },
    {
      "anonymous": false,
      "inputs": [
        {
          "indexed": true,
          "internalType": "uint256",
          "name": "_tokenId",
          "type": "uint256"
        },
        {
          "indexed": false,
          "internalType": "string",
          "name": "_uri",
          "type": "string"
        }
      ],
      "name": "TokenURIUpdated",
      "type": "event"
    },
    {
      "anonymous": false,
      "inputs": [
        {
          "indexed": true,
          "internalType": "address",
          "name": "from",
          "type": "address"
        },
        {
          "indexed": true,
          "internalType": "address",
          "name": "to",
          "type": "address"
        },
        {
          "indexed": true,
          "internalType": "uint256",
          "name": "tokenId",
          "type": "uint256"
        }
      ],
      "name": "Transfer",
      "type": "event"
    },
    {
      "inputs": [
        {
          "internalType": "address",
          "name": "_newAddress",
          "type": "address"
        }
      ],
      "name": "addToWhitelist",
      "outputs": [],
      "stateMutability": "nonpayable",
      "type": "function"
    },
    {
      "inputs": [
        {
          "internalType": "address",
          "name": "to",
          "type": "address"
        },
        {
          "internalType": "uint256",
          "name": "tokenId",
          "type": "uint256"
        }
      ],
      "name": "approve",
      "outputs": [],
      "stateMutability": "nonpayable",
      "type": "function"
    },
    {
      "inputs": [
        {
          "internalType": "address",
          "name": "owner",
          "type": "address"
        }
      ],
      "name": "balanceOf",
      "outputs": [
        {
          "internalType": "uint256",
          "name": "",
          "type": "uint256"
        }
      ],
      "stateMutability": "view",
      "type": "function"
    },
    {
      "inputs": [
        {
          "internalType": "uint256",
          "name": "_tokenId",
          "type": "uint256"
        }
      ],
      "name": "burn",
      "outputs": [],
      "stateMutability": "nonpayable",
      "type": "function"
    },
    {
      "inputs": [
        {
          "internalType": "bool",
          "name": "_enabled",
          "type": "bool"
        }
      ],
      "name": "enableWhitelist",
      "outputs": [],
      "stateMutability": "nonpayable",
      "type": "function"
    },
    {
      "inputs": [
        {
          "internalType": "uint256",
          "name": "tokenId",
          "type": "uint256"
        }
      ],
      "name": "getApproved",
      "outputs": [
        {
          "internalType": "address",
          "name": "",
          "type": "address"
        }
      ],
      "stateMutability": "view",
      "type": "function"
    },
    {
      "inputs": [],
      "name": "getMarketAddress",
      "outputs": [
        {
          "internalType": "address",
          "name": "marketAddress",
          "type": "address"
        }
      ],
      "stateMutability": "view",
      "type": "function"
    },
    {
      "inputs": [
        {
          "internalType": "address[]",
          "name": "_whitelistees",
          "type": "address[]"
        }
      ],
      "name": "initWhitelist",
      "outputs": [],
      "stateMutability": "nonpayable",
      "type": "function"
    },
    {
      "inputs": [
        {
          "internalType": "address",
          "name": "owner",
          "type": "address"
        },
        {
          "internalType": "address",
          "name": "operator",
          "type": "address"
        }
      ],
      "name": "isApprovedForAll",
      "outputs": [
        {
          "internalType": "bool",
          "name": "",
          "type": "bool"
        }
      ],
      "stateMutability": "view",
      "type": "function"
    },
    {
      "inputs": [
        {
          "internalType": "address",
          "name": "_address",
          "type": "address"
        }
      ],
      "name": "isWhitelisted",
      "outputs": [
        {
          "internalType": "bool",
          "name": "",
          "type": "bool"
        }
      ],
      "stateMutability": "view",
      "type": "function"
    },
    {
      "inputs": [
        {
          "internalType": "address",
          "name": "to",
          "type": "address"
        },
        {
          "internalType": "string",
          "name": "tokenURI",
          "type": "string"
        }
      ],
      "name": "mint",
      "outputs": [
        {
          "internalType": "uint256",
          "name": "_tokenId",
          "type": "uint256"
        }
      ],
      "stateMutability": "nonpayable",
      "type": "function"
    },
    {
      "inputs": [],
      "name": "name",
      "outputs": [
        {
          "internalType": "string",
          "name": "",
          "type": "string"
        }
      ],
      "stateMutability": "view",
      "type": "function"
    },
    {
      "inputs": [],
      "name": "owner",
      "outputs": [
        {
          "internalType": "address",
          "name": "",
          "type": "address"
        }
      ],
      "stateMutability": "view",
      "type": "function"
    },
    {
      "inputs": [
        {
          "internalType": "uint256",
          "name": "tokenId",
          "type": "uint256"
        }
      ],
      "name": "ownerOf",
      "outputs": [
        {
          "internalType": "address",
          "name": "",
          "type": "address"
        }
      ],
      "stateMutability": "view",
      "type": "function"
    },
    {
      "inputs": [
        {
          "internalType": "address",
          "name": "_removedAddress",
          "type": "address"
        }
      ],
      "name": "removeFromWhitelist",
      "outputs": [],
      "stateMutability": "nonpayable",
      "type": "function"
    },
    {
      "inputs": [],
      "name": "renounceOwnership",
      "outputs": [],
      "stateMutability": "nonpayable",
      "type": "function"
    },
    {
      "inputs": [
        {
          "internalType": "uint256",
          "name": "_tokenId",
          "type": "uint256"
        },
        {
          "internalType": "uint256",
          "name": "_salePrice",
          "type": "uint256"
        }
      ],
      "name": "royaltyInfo",
      "outputs": [
        {
          "internalType": "address",
          "name": "",
          "type": "address"
        },
        {
          "internalType": "uint256",
          "name": "",
          "type": "uint256"
        }
      ],
      "stateMutability": "view",
      "type": "function"
    },
    {
      "inputs": [
        {
          "internalType": "address",
          "name": "from",
          "type": "address"
        },
        {
          "internalType": "address",
          "name": "to",
          "type": "address"
        },
        {
          "internalType": "uint256",
          "name": "tokenId",
          "type": "uint256"
        }
      ],
      "name": "safeTransferFrom",
      "outputs": [],
      "stateMutability": "nonpayable",
      "type": "function"
    },
    {
      "inputs": [
        {
          "internalType": "address",
          "name": "from",
          "type": "address"
        },
        {
          "internalType": "address",
          "name": "to",
          "type": "address"
        },
        {
          "internalType": "uint256",
          "name": "tokenId",
          "type": "uint256"
        },
        {
          "internalType": "bytes",
          "name": "_data",
          "type": "bytes"
        }
      ],
      "name": "safeTransferFrom",
      "outputs": [],
      "stateMutability": "nonpayable",
      "type": "function"
    },
    {
      "inputs": [
        {
          "internalType": "address",
          "name": "operator",
          "type": "address"
        },
        {
          "internalType": "bool",
          "name": "approved",
          "type": "bool"
        }
      ],
      "name": "setApprovalForAll",
      "outputs": [],
      "stateMutability": "nonpayable",
      "type": "function"
    },
    {
      "inputs": [
        {
          "internalType": "uint256",
          "name": "tokenId",
          "type": "uint256"
        },
        {
          "internalType": "uint256",
          "name": "value",
          "type": "uint256"
        }
      ],
      "name": "setTokenRoyalty",
      "outputs": [],
      "stateMutability": "nonpayable",
      "type": "function"
    },
    {
      "inputs": [
        {
          "internalType": "bytes4",
          "name": "interfaceId",
          "type": "bytes4"
        }
      ],
      "name": "supportsInterface",
      "outputs": [
        {
          "internalType": "bool",
          "name": "",
          "type": "bool"
        }
      ],
      "stateMutability": "view",
      "type": "function"
    },
    {
      "inputs": [],
      "name": "symbol",
      "outputs": [
        {
          "internalType": "string",
          "name": "",
          "type": "string"
        }
      ],
      "stateMutability": "view",
      "type": "function"
    },
    {
      "inputs": [
        {
          "internalType": "uint256",
          "name": "a",
          "type": "uint256"
        }
      ],
      "name": "toUint96",
      "outputs": [
        {
          "internalType": "uint96",
          "name": "",
          "type": "uint96"
        }
      ],
      "stateMutability": "pure",
      "type": "function"
    },
    {
      "inputs": [
        {
          "internalType": "uint256",
          "name": "_tokenId",
          "type": "uint256"
        }
      ],
      "name": "tokenCreator",
      "outputs": [
        {
          "internalType": "address",
          "name": "",
          "type": "address"
        }
      ],
      "stateMutability": "view",
      "type": "function"
    },
    {
      "inputs": [
        {
          "internalType": "uint256",
          "name": "tokenId",
          "type": "uint256"
        }
      ],
      "name": "tokenURI",
      "outputs": [
        {
          "internalType": "string",
          "name": "",
          "type": "string"
        }
      ],
      "stateMutability": "view",
      "type": "function"
    },
    {
      "inputs": [
        {
          "internalType": "address",
          "name": "from",
          "type": "address"
        },
        {
          "internalType": "address",
          "name": "to",
          "type": "address"
        },
        {
          "internalType": "uint256",
          "name": "tokenId",
          "type": "uint256"
        }
      ],
      "name": "transferFrom",
      "outputs": [],
      "stateMutability": "nonpayable",
      "type": "function"
    },
    {
      "inputs": [
        {
          "internalType": "address",
          "name": "newOwner",
          "type": "address"
        }
      ],
      "name": "transferOwnership",
      "outputs": [],
      "stateMutability": "nonpayable",
      "type": "function"
    },
    {
      "inputs": [
        {
          "internalType": "address",
          "name": "from",
          "type": "address"
        },
        {
          "internalType": "address",
          "name": "to",
          "type": "address"
        },
        {
          "internalType": "uint256",
          "name": "tokenId",
          "type": "uint256"
        }
      ],
      "name": "transferToken",
      "outputs": [],
      "stateMutability": "nonpayable",
      "type": "function"
    },
    {
      "inputs": [
        {
          "internalType": "uint256",
          "name": "_tokenId",
          "type": "uint256"
        },
        {
          "internalType": "string",
          "name": "_uri",
          "type": "string"
        }
      ],
      "name": "updateTokenMetadata",
      "outputs": [],
      "stateMutability": "nonpayable",
      "type": "function"
    }
  ],
  "bytecode": "0x60806040526001600c60006101000a81548160ff0219169083151502179055503480156200002c57600080fd5b5060405162004aaf38038062004aaf8339818101604052810190620000529190620002ef565b6040518060400160405280600581526020017f41726b69760000000000000000000000000000000000000000000000000000008152506040518060400160405280600481526020017f41524b56000000000000000000000000000000000000000000000000000000008152508160009080519060200190620000d692919062000228565b508060019080519060200190620000ef92919062000228565b50505062000112620001066200015a60201b60201c565b6200016260201b60201c565b80600e60006101000a81548173ffffffffffffffffffffffffffffffffffffffff021916908373ffffffffffffffffffffffffffffffffffffffff16021790555050620003ce565b600033905090565b6000600760009054906101000a900473ffffffffffffffffffffffffffffffffffffffff16905081600760006101000a81548173ffffffffffffffffffffffffffffffffffffffff021916908373ffffffffffffffffffffffffffffffffffffffff1602179055508173ffffffffffffffffffffffffffffffffffffffff168173ffffffffffffffffffffffffffffffffffffffff167f8be0079c531659141344cd1fd0a4f28419497f9722a3daafe3b4186f6b6457e060405160405180910390a35050565b82805462000236906200034f565b90600052602060002090601f0160209004810192826200025a5760008555620002a6565b82601f106200027557805160ff1916838001178555620002a6565b82800160010185558215620002a6579182015b82811115620002a557825182559160200191906001019062000288565b5b509050620002b59190620002b9565b5090565b5b80821115620002d4576000816000905550600101620002ba565b5090565b600081519050620002e981620003b4565b92915050565b6000602082840312156200030257600080fd5b60006200031284828501620002d8565b91505092915050565b600062000328826200032f565b9050919050565b600073ffffffffffffffffffffffffffffffffffffffff82169050919050565b600060028204905060018216806200036857607f821691505b602082108114156200037f576200037e62000385565b5b50919050565b7f4e487b7100000000000000000000000000000000000000000000000000000000600052602260045260246000fd5b620003bf816200031b565b8114620003cb57600080fd5b50565b6146d180620003de6000396000f3fe608060405234801561001057600080fd5b50600436106101da5760003560e01c8063715018a611610104578063bc189d38116100a2578063e7334fe511610071578063e7334fe514610574578063e985e9c514610592578063f2fde38b146105c2578063f5537ede146105de576101da565b8063bc189d38146104dc578063c87b56dd146104f8578063d0def52114610528578063e43252d714610558576101da565b806395d89b41116100de57806395d89b411461046a578063a22cb46514610488578063b85ecf93146104a4578063b88d4fde146104c0576101da565b8063715018a6146104265780638ab1d681146104305780638da5cb5b1461044c576101da565b80632a55205a1161017c57806342842e0e1161014b57806342842e0e1461038e57806342966c68146103aa5780636352211e146103c657806370a08231146103f6576101da565b80632a55205a146102e15780632cb2f52e146103125780633af32abf1461032e57806340c1a0641461035e576101da565b8063081812fc116101b8578063081812fc14610249578063095ea7b3146102795780631cf887fc1461029557806323b872dd146102c5576101da565b806301ffc9a7146101df578063040b65831461020f57806306fdde031461022b575b600080fd5b6101f960048036038101906101f49190613205565b6105fa565b60405161020691906137eb565b60405180910390f35b610229600480360381019061022491906131dc565b61060c565b005b6102336106a5565b6040516102409190613806565b60405180910390f35b610263600480360381019061025e9190613257565b610737565b604051610270919061375b565b60405180910390f35b610293600480360381019061028e919061315f565b6107bc565b005b6102af60048036038101906102aa9190613257565b6108d4565b6040516102bc9190613b43565b60405180910390f35b6102df60048036038101906102da9190613005565b6108e6565b005b6102fb60048036038101906102f691906132d4565b610946565b6040516103099291906137c2565b60405180910390f35b61032c60048036038101906103279190613280565b610b31565b005b61034860048036038101906103439190612fa0565b610c73565b60405161035591906137eb565b60405180910390f35b61037860048036038101906103739190613257565b610ce8565b604051610385919061375b565b60405180910390f35b6103a860048036038101906103a39190613005565b610d25565b005b6103c460048036038101906103bf9190613257565b610d45565b005b6103e060048036038101906103db9190613257565b610e4d565b6040516103ed919061375b565b60405180910390f35b610410600480360381019061040b9190612fa0565b610eff565b60405161041d9190613b28565b60405180910390f35b61042e610fb7565b005b61044a60048036038101906104459190612fa0565b61103f565b005b61045461110a565b604051610461919061375b565b60405180910390f35b610472611134565b60405161047f9190613806565b60405180910390f35b6104a2600480360381019061049d91906130cf565b6111c6565b005b6104be60048036038101906104b9919061319b565b6111dc565b005b6104da60048036038101906104d59190613054565b6112d8565b005b6104f660048036038101906104f191906132d4565b61133a565b005b610512600480360381019061050d9190613257565b61145d565b60405161051f9190613806565b60405180910390f35b610542600480360381019061053d919061310b565b6115af565b60405161054f9190613b28565b60405180910390f35b610572600480360381019061056d9190612fa0565b611681565b005b61057c61174c565b604051610589919061375b565b60405180910390f35b6105ac60048036038101906105a79190612fc9565b611776565b6040516105b991906137eb565b60405180910390f35b6105dc60048036038101906105d79190612fa0565b61180a565b005b6105f860048036038101906105f39190613005565b611902565b005b600061060582611912565b9050919050565b61061461198c565b73ffffffffffffffffffffffffffffffffffffffff1661063261110a565b73ffffffffffffffffffffffffffffffffffffffff1614610688576040517f08c379a000000000000000000000000000000000000000000000000000000000815260040161067f90613a28565b60405180910390fd5b80600c60006101000a81548160ff02191690831515021790555050565b6060600080546106b490613e37565b80601f01602080910402602001604051908101604052809291908181526020018280546106e090613e37565b801561072d5780601f106107025761010080835404028352916020019161072d565b820191906000526020600020905b81548152906001019060200180831161071057829003601f168201915b5050505050905090565b600061074282611994565b610781576040517f08c379a0000000000000000000000000000000000000000000000000000000008152600401610778906139e8565b60405180910390fd5b6004600083815260200190815260200160002060009054906101000a900473ffffffffffffffffffffffffffffffffffffffff169050919050565b60006107c782610e4d565b90508073ffffffffffffffffffffffffffffffffffffffff168373ffffffffffffffffffffffffffffffffffffffff161415610838576040517f08c379a000000000000000000000000000000000000000000000000000000000815260040161082f90613a88565b60405180910390fd5b8073ffffffffffffffffffffffffffffffffffffffff1661085761198c565b73ffffffffffffffffffffffffffffffffffffffff16148061088657506108858161088061198c565b611776565b5b6108c5576040517f08c379a00000000000000000000000000000000000000000000000000000000081526004016108bc90613928565b60405180910390fd5b6108cf8383611a00565b505050565b60006108df82611ab9565b9050919050565b6108f76108f161198c565b82611b14565b610936576040517f08c379a000000000000000000000000000000000000000000000000000000000815260040161092d90613ac8565b60405180910390fd5b610941838383611bf2565b505050565b6000806000600960008681526020019081526020016000206040518060400160405290816000820160009054906101000a900473ffffffffffffffffffffffffffffffffffffffff1673ffffffffffffffffffffffffffffffffffffffff1673ffffffffffffffffffffffffffffffffffffffff1681526020016000820160149054906101000a90046bffffffffffffffffffffffff166bffffffffffffffffffffffff166bffffffffffffffffffffffff16815250509050600073ffffffffffffffffffffffffffffffffffffffff16816000015173ffffffffffffffffffffffffffffffffffffffff161415610adc5760086040518060400160405290816000820160009054906101000a900473ffffffffffffffffffffffffffffffffffffffff1673ffffffffffffffffffffffffffffffffffffffff1673ffffffffffffffffffffffffffffffffffffffff1681526020016000820160149054906101000a90046bffffffffffffffffffffffff166bffffffffffffffffffffffff166bffffffffffffffffffffffff168152505090505b6000610ae6611e4e565b6bffffffffffffffffffffffff1682602001516bffffffffffffffffffffffff1686610b129190613cdb565b610b1c9190613caa565b90508160000151819350935050509250929050565b816000610b3d82610e4d565b90503373ffffffffffffffffffffffffffffffffffffffff168173ffffffffffffffffffffffffffffffffffffffff1614610bad576040517f08c379a0000000000000000000000000000000000000000000000000000000008152600401610ba490613848565b60405180910390fd5b836000610bb982610ce8565b90503373ffffffffffffffffffffffffffffffffffffffff168173ffffffffffffffffffffffffffffffffffffffff1614610c29576040517f08c379a0000000000000000000000000000000000000000000000000000000008152600401610c2090613a08565b60405180910390fd5b610c338686611e58565b857f931f495b9a8e5d8e61946ea5d61e021f636cfe213a801f97589c18c152e408bd86604051610c639190613806565b60405180910390a2505050505050565b6000600c60009054906101000a900460ff1615610cde57600b60008373ffffffffffffffffffffffffffffffffffffffff1673ffffffffffffffffffffffffffffffffffffffff16815260200190815260200160002060009054906101000a900460ff169050610ce3565b600190505b919050565b60006010600083815260200190815260200160002060009054906101000a900473ffffffffffffffffffffffffffffffffffffffff169050919050565b610d40838383604051806020016040528060008152506112d8565b505050565b806000610d5182610e4d565b90503373ffffffffffffffffffffffffffffffffffffffff168173ffffffffffffffffffffffffffffffffffffffff1614610dc1576040517f08c379a0000000000000000000000000000000000000000000000000000000008152600401610db890613848565b60405180910390fd5b826000610dcd82610ce8565b90503373ffffffffffffffffffffffffffffffffffffffff168173ffffffffffffffffffffffffffffffffffffffff1614610e3d576040517f08c379a0000000000000000000000000000000000000000000000000000000008152600401610e3490613a08565b60405180910390fd5b610e4685611ecc565b5050505050565b6000806002600084815260200190815260200160002060009054906101000a900473ffffffffffffffffffffffffffffffffffffffff169050600073ffffffffffffffffffffffffffffffffffffffff168173ffffffffffffffffffffffffffffffffffffffff161415610ef6576040517f08c379a0000000000000000000000000000000000000000000000000000000008152600401610eed90613968565b60405180910390fd5b80915050919050565b60008073ffffffffffffffffffffffffffffffffffffffff168273ffffffffffffffffffffffffffffffffffffffff161415610f70576040517f08c379a0000000000000000000000000000000000000000000000000000000008152600401610f6790613948565b60405180910390fd5b600360008373ffffffffffffffffffffffffffffffffffffffff1673ffffffffffffffffffffffffffffffffffffffff168152602001908152602001600020549050919050565b610fbf61198c565b73ffffffffffffffffffffffffffffffffffffffff16610fdd61110a565b73ffffffffffffffffffffffffffffffffffffffff1614611033576040517f08c379a000000000000000000000000000000000000000000000000000000000815260040161102a90613a28565b60405180910390fd5b61103d6000611f1f565b565b61104761198c565b73ffffffffffffffffffffffffffffffffffffffff1661106561110a565b73ffffffffffffffffffffffffffffffffffffffff16146110bb576040517f08c379a00000000000000000000000000000000000000000000000000000000081526004016110b290613a28565b60405180910390fd5b6110c481611fe5565b8073ffffffffffffffffffffffffffffffffffffffff167f1f756c8b089af6b33ee121fee8badac2553a2fa89c0575ea91ff8792617746c260405160405180910390a250565b6000600760009054906101000a900473ffffffffffffffffffffffffffffffffffffffff16905090565b60606001805461114390613e37565b80601f016020809104026020016040519081016040528092919081815260200182805461116f90613e37565b80156111bc5780601f10611191576101008083540402835291602001916111bc565b820191906000526020600020905b81548152906001019060200180831161119f57829003601f168201915b5050505050905090565b6111d86111d161198c565b8383612040565b5050565b6111e461198c565b73ffffffffffffffffffffffffffffffffffffffff1661120261110a565b73ffffffffffffffffffffffffffffffffffffffff1614611258576040517f08c379a000000000000000000000000000000000000000000000000000000000815260040161124f90613a28565b60405180910390fd5b60005b81518110156112d457600082828151811061129f577f4e487b7100000000000000000000000000000000000000000000000000000000600052603260045260246000fd5b602002602001015190506112b281610c73565b6112c0576112bf816121ad565b5b5080806112cc90613e9a565b91505061125b565b5050565b6112e96112e361198c565b83611b14565b611328576040517f08c379a000000000000000000000000000000000000000000000000000000000815260040161131f90613ac8565b60405180910390fd5b61133484848484612208565b50505050565b81600061134682610ce8565b90503373ffffffffffffffffffffffffffffffffffffffff168173ffffffffffffffffffffffffffffffffffffffff16146113b6576040517f08c379a00000000000000000000000000000000000000000000000000000000081526004016113ad90613a08565b60405180910390fd5b8360006113c282610e4d565b90503373ffffffffffffffffffffffffffffffffffffffff168173ffffffffffffffffffffffffffffffffffffffff1614611432576040517f08c379a000000000000000000000000000000000000000000000000000000000815260040161142990613848565b60405180910390fd5b6000851115611455576000611446866108d4565b9050611453873383612264565b505b505050505050565b606061146882611994565b6114a7576040517f08c379a000000000000000000000000000000000000000000000000000000000815260040161149e906139c8565b60405180910390fd5b60006006600084815260200190815260200160002080546114c790613e37565b80601f01602080910402602001604051908101604052809291908181526020018280546114f390613e37565b80156115405780601f1061151557610100808354040283529160200191611540565b820191906000526020600020905b81548152906001019060200180831161152357829003601f168201915b50505050509050600061155161240c565b90506000815114156115675781925050506115aa565b60008251111561159c578082604051602001611584929190613737565b604051602081830303815290604052925050506115aa565b6115a584612423565b925050505b919050565b60006115ba33610c73565b6115f9576040517f08c379a00000000000000000000000000000000000000000000000000000000081526004016115f090613aa8565b60405180910390fd5b6000611605600d6124ca565b905061161184826124d8565b61161b8184611e58565b336010600083815260200190815260200160002060006101000a81548173ffffffffffffffffffffffffffffffffffffffff021916908373ffffffffffffffffffffffffffffffffffffffff160217905550611677600d6124f6565b8091505092915050565b61168961198c565b73ffffffffffffffffffffffffffffffffffffffff166116a761110a565b73ffffffffffffffffffffffffffffffffffffffff16146116fd576040517f08c379a00000000000000000000000000000000000000000000000000000000081526004016116f490613a28565b60405180910390fd5b611706816121ad565b8073ffffffffffffffffffffffffffffffffffffffff167f75b2135d1c8c3519f3c09c43fe6527089ef09f40c7981ebf0ed46e79e79032c760405160405180910390a250565b6000600e60009054906101000a900473ffffffffffffffffffffffffffffffffffffffff16905090565b6000600560008473ffffffffffffffffffffffffffffffffffffffff1673ffffffffffffffffffffffffffffffffffffffff16815260200190815260200160002060008373ffffffffffffffffffffffffffffffffffffffff1673ffffffffffffffffffffffffffffffffffffffff16815260200190815260200160002060009054906101000a900460ff16905092915050565b61181261198c565b73ffffffffffffffffffffffffffffffffffffffff1661183061110a565b73ffffffffffffffffffffffffffffffffffffffff1614611886576040517f08c379a000000000000000000000000000000000000000000000000000000000815260040161187d90613a28565b60405180910390fd5b600073ffffffffffffffffffffffffffffffffffffffff168173ffffffffffffffffffffffffffffffffffffffff1614156118f6576040517f08c379a00000000000000000000000000000000000000000000000000000000081526004016118ed90613888565b60405180910390fd5b6118ff81611f1f565b50565b61190d8383836108e6565b505050565b60007f2a55205a000000000000000000000000000000000000000000000000000000007bffffffffffffffffffffffffffffffffffffffffffffffffffffffff1916827bffffffffffffffffffffffffffffffffffffffffffffffffffffffff1916148061198557506119848261250c565b5b9050919050565b600033905090565b60008073ffffffffffffffffffffffffffffffffffffffff166002600084815260200190815260200160002060009054906101000a900473ffffffffffffffffffffffffffffffffffffffff1673ffffffffffffffffffffffffffffffffffffffff1614159050919050565b816004600083815260200190815260200160002060006101000a81548173ffffffffffffffffffffffffffffffffffffffff021916908373ffffffffffffffffffffffffffffffffffffffff160217905550808273ffffffffffffffffffffffffffffffffffffffff16611a7383610e4d565b73ffffffffffffffffffffffffffffffffffffffff167f8c5be1e5ebec7d5bd14f71427d1e84f3dd0314c0f7b2291e5b200ac8c7c3b92560405160405180910390a45050565b60006bffffffffffffffffffffffff8016821115611b0c576040517f08c379a0000000000000000000000000000000000000000000000000000000008152600401611b0390613828565b60405180910390fd5b819050919050565b6000611b1f82611994565b611b5e576040517f08c379a0000000000000000000000000000000000000000000000000000000008152600401611b5590613908565b60405180910390fd5b6000611b6983610e4d565b90508073ffffffffffffffffffffffffffffffffffffffff168473ffffffffffffffffffffffffffffffffffffffff161480611bd857508373ffffffffffffffffffffffffffffffffffffffff16611bc084610737565b73ffffffffffffffffffffffffffffffffffffffff16145b80611be95750611be88185611776565b5b91505092915050565b8273ffffffffffffffffffffffffffffffffffffffff16611c1282610e4d565b73ffffffffffffffffffffffffffffffffffffffff1614611c68576040517f08c379a0000000000000000000000000000000000000000000000000000000008152600401611c5f90613a48565b60405180910390fd5b600073ffffffffffffffffffffffffffffffffffffffff168273ffffffffffffffffffffffffffffffffffffffff161415611cd8576040517f08c379a0000000000000000000000000000000000000000000000000000000008152600401611ccf906138c8565b60405180910390fd5b611ce38383836125ee565b611cee600082611a00565b6001600360008573ffffffffffffffffffffffffffffffffffffffff1673ffffffffffffffffffffffffffffffffffffffff1681526020019081526020016000206000828254611d3e9190613d35565b925050819055506001600360008473ffffffffffffffffffffffffffffffffffffffff1673ffffffffffffffffffffffffffffffffffffffff1681526020019081526020016000206000828254611d959190613c54565b92505081905550816002600083815260200190815260200160002060006101000a81548173ffffffffffffffffffffffffffffffffffffffff021916908373ffffffffffffffffffffffffffffffffffffffff160217905550808273ffffffffffffffffffffffffffffffffffffffff168473ffffffffffffffffffffffffffffffffffffffff167fddf252ad1be2c89b69c2b068fc378daa952ba7f163c4a11628f55a4df523b3ef60405160405180910390a4505050565b6000612710905090565b611e6182611994565b611ea0576040517f08c379a0000000000000000000000000000000000000000000000000000000008152600401611e9790613988565b60405180910390fd5b80600660008481526020019081526020016000209080519060200190611ec7929190612cee565b505050565b611ed5816125f3565b6000600660008381526020019081526020016000208054611ef590613e37565b905014611f1c57600660008281526020019081526020016000206000611f1b9190612d74565b5b50565b6000600760009054906101000a900473ffffffffffffffffffffffffffffffffffffffff16905081600760006101000a81548173ffffffffffffffffffffffffffffffffffffffff021916908373ffffffffffffffffffffffffffffffffffffffff1602179055508173ffffffffffffffffffffffffffffffffffffffff168173ffffffffffffffffffffffffffffffffffffffff167f8be0079c531659141344cd1fd0a4f28419497f9722a3daafe3b4186f6b6457e060405160405180910390a35050565b6000600b60008373ffffffffffffffffffffffffffffffffffffffff1673ffffffffffffffffffffffffffffffffffffffff16815260200190815260200160002060006101000a81548160ff02191690831515021790555050565b8173ffffffffffffffffffffffffffffffffffffffff168373ffffffffffffffffffffffffffffffffffffffff1614156120af576040517f08c379a00000000000000000000000000000000000000000000000000000000081526004016120a6906138e8565b60405180910390fd5b80600560008573ffffffffffffffffffffffffffffffffffffffff1673ffffffffffffffffffffffffffffffffffffffff16815260200190815260200160002060008473ffffffffffffffffffffffffffffffffffffffff1673ffffffffffffffffffffffffffffffffffffffff16815260200190815260200160002060006101000a81548160ff0219169083151502179055508173ffffffffffffffffffffffffffffffffffffffff168373ffffffffffffffffffffffffffffffffffffffff167f17307eab39ab6107e8899845ad3d59bd9653f200f220920489ca2b5937696c31836040516121a091906137eb565b60405180910390a3505050565b6001600b60008373ffffffffffffffffffffffffffffffffffffffff1673ffffffffffffffffffffffffffffffffffffffff16815260200190815260200160002060006101000a81548160ff02191690831515021790555050565b612213848484611bf2565b61221f84848484612704565b61225e576040517f08c379a000000000000000000000000000000000000000000000000000000000815260040161225590613868565b60405180910390fd5b50505050565b61226c611e4e565b6bffffffffffffffffffffffff16816bffffffffffffffffffffffff1611156122ca576040517f08c379a00000000000000000000000000000000000000000000000000000000081526004016122c190613b08565b60405180910390fd5b600073ffffffffffffffffffffffffffffffffffffffff168273ffffffffffffffffffffffffffffffffffffffff16141561233a576040517f08c379a000000000000000000000000000000000000000000000000000000000815260040161233190613ae8565b60405180910390fd5b60405180604001604052808373ffffffffffffffffffffffffffffffffffffffff168152602001826bffffffffffffffffffffffff168152506009600085815260200190815260200160002060008201518160000160006101000a81548173ffffffffffffffffffffffffffffffffffffffff021916908373ffffffffffffffffffffffffffffffffffffffff16021790555060208201518160000160146101000a8154816bffffffffffffffffffffffff02191690836bffffffffffffffffffffffff160217905550905050505050565b606060405180602001604052806000815250905090565b606061242e82611994565b61246d576040517f08c379a000000000000000000000000000000000000000000000000000000000815260040161246490613a68565b60405180910390fd5b600061247761240c565b9050600081511161249757604051806020016040528060008152506124c2565b806124a18461289b565b6040516020016124b2929190613737565b6040516020818303038152906040525b915050919050565b600081600001549050919050565b6124f2828260405180602001604052806000815250612a48565b5050565b6001816000016000828254019250508190555050565b60007f80ac58cd000000000000000000000000000000000000000000000000000000007bffffffffffffffffffffffffffffffffffffffffffffffffffffffff1916827bffffffffffffffffffffffffffffffffffffffffffffffffffffffff191614806125d757507f5b5e139f000000000000000000000000000000000000000000000000000000007bffffffffffffffffffffffffffffffffffffffffffffffffffffffff1916827bffffffffffffffffffffffffffffffffffffffffffffffffffffffff1916145b806125e757506125e682612aa3565b5b9050919050565b505050565b60006125fe82610e4d565b905061260c816000846125ee565b612617600083611a00565b6001600360008373ffffffffffffffffffffffffffffffffffffffff1673ffffffffffffffffffffffffffffffffffffffff16815260200190815260200160002060008282546126679190613d35565b925050819055506002600083815260200190815260200160002060006101000a81549073ffffffffffffffffffffffffffffffffffffffff021916905581600073ffffffffffffffffffffffffffffffffffffffff168273ffffffffffffffffffffffffffffffffffffffff167fddf252ad1be2c89b69c2b068fc378daa952ba7f163c4a11628f55a4df523b3ef60405160405180910390a45050565b60006127258473ffffffffffffffffffffffffffffffffffffffff16612b0d565b1561288e578373ffffffffffffffffffffffffffffffffffffffff1663150b7a0261274e61198c565b8786866040518563ffffffff1660e01b81526004016127709493929190613776565b602060405180830381600087803b15801561278a57600080fd5b505af19250505080156127bb57506040513d601f19601f820116820180604052508101906127b8919061322e565b60015b61283e573d80600081146127eb576040519150601f19603f3d011682016040523d82523d6000602084013e6127f0565b606091505b50600081511415612836576040517f08c379a000000000000000000000000000000000000000000000000000000000815260040161282d90613868565b60405180910390fd5b805181602001fd5b63150b7a0260e01b7bffffffffffffffffffffffffffffffffffffffffffffffffffffffff1916817bffffffffffffffffffffffffffffffffffffffffffffffffffffffff191614915050612893565b600190505b949350505050565b606060008214156128e3576040518060400160405280600181526020017f30000000000000000000000000000000000000000000000000000000000000008152509050612a43565b600082905060005b600082146129155780806128fe90613e9a565b915050600a8261290e9190613caa565b91506128eb565b60008167ffffffffffffffff811115612957577f4e487b7100000000000000000000000000000000000000000000000000000000600052604160045260246000fd5b6040519080825280601f01601f1916602001820160405280156129895781602001600182028036833780820191505090505b5090505b60008514612a3c576001826129a29190613d35565b9150600a856129b19190613ee3565b60306129bd9190613c54565b60f81b8183815181106129f9577f4e487b7100000000000000000000000000000000000000000000000000000000600052603260045260246000fd5b60200101907effffffffffffffffffffffffffffffffffffffffffffffffffffffffffffff1916908160001a905350600a85612a359190613caa565b945061298d565b8093505050505b919050565b612a528383612b20565b612a5f6000848484612704565b612a9e576040517f08c379a0000000000000000000000000000000000000000000000000000000008152600401612a9590613868565b60405180910390fd5b505050565b60007f01ffc9a7000000000000000000000000000000000000000000000000000000007bffffffffffffffffffffffffffffffffffffffffffffffffffffffff1916827bffffffffffffffffffffffffffffffffffffffffffffffffffffffff1916149050919050565b600080823b905060008111915050919050565b600073ffffffffffffffffffffffffffffffffffffffff168273ffffffffffffffffffffffffffffffffffffffff161415612b90576040517f08c379a0000000000000000000000000000000000000000000000000000000008152600401612b87906139a8565b60405180910390fd5b612b9981611994565b15612bd9576040517f08c379a0000000000000000000000000000000000000000000000000000000008152600401612bd0906138a8565b60405180910390fd5b612be5600083836125ee565b6001600360008473ffffffffffffffffffffffffffffffffffffffff1673ffffffffffffffffffffffffffffffffffffffff1681526020019081526020016000206000828254612c359190613c54565b92505081905550816002600083815260200190815260200160002060006101000a81548173ffffffffffffffffffffffffffffffffffffffff021916908373ffffffffffffffffffffffffffffffffffffffff160217905550808273ffffffffffffffffffffffffffffffffffffffff16600073ffffffffffffffffffffffffffffffffffffffff167fddf252ad1be2c89b69c2b068fc378daa952ba7f163c4a11628f55a4df523b3ef60405160405180910390a45050565b828054612cfa90613e37565b90600052602060002090601f016020900481019282612d1c5760008555612d63565b82601f10612d3557805160ff1916838001178555612d63565b82800160010185558215612d63579182015b82811115612d62578251825591602001919060010190612d47565b5b509050612d709190612db4565b5090565b508054612d8090613e37565b6000825580601f10612d925750612db1565b601f016020900490600052602060002090810190612db09190612db4565b5b50565b5b80821115612dcd576000816000905550600101612db5565b5090565b6000612de4612ddf84613b83565b613b5e565b90508083825260208201905082856020860282011115612e0357600080fd5b60005b85811015612e335781612e198882612eb9565b845260208401935060208301925050600181019050612e06565b5050509392505050565b6000612e50612e4b84613baf565b613b5e565b905082815260208101848484011115612e6857600080fd5b612e73848285613df5565b509392505050565b6000612e8e612e8984613be0565b613b5e565b905082815260208101848484011115612ea657600080fd5b612eb1848285613df5565b509392505050565b600081359050612ec88161463f565b92915050565b600082601f830112612edf57600080fd5b8135612eef848260208601612dd1565b91505092915050565b600081359050612f0781614656565b92915050565b600081359050612f1c8161466d565b92915050565b600081519050612f318161466d565b92915050565b600082601f830112612f4857600080fd5b8135612f58848260208601612e3d565b91505092915050565b600082601f830112612f7257600080fd5b8135612f82848260208601612e7b565b91505092915050565b600081359050612f9a81614684565b92915050565b600060208284031215612fb257600080fd5b6000612fc084828501612eb9565b91505092915050565b60008060408385031215612fdc57600080fd5b6000612fea85828601612eb9565b9250506020612ffb85828601612eb9565b9150509250929050565b60008060006060848603121561301a57600080fd5b600061302886828701612eb9565b935050602061303986828701612eb9565b925050604061304a86828701612f8b565b9150509250925092565b6000806000806080858703121561306a57600080fd5b600061307887828801612eb9565b945050602061308987828801612eb9565b935050604061309a87828801612f8b565b925050606085013567ffffffffffffffff8111156130b757600080fd5b6130c387828801612f37565b91505092959194509250565b600080604083850312156130e257600080fd5b60006130f085828601612eb9565b925050602061310185828601612ef8565b9150509250929050565b6000806040838503121561311e57600080fd5b600061312c85828601612eb9565b925050602083013567ffffffffffffffff81111561314957600080fd5b61315585828601612f61565b9150509250929050565b6000806040838503121561317257600080fd5b600061318085828601612eb9565b925050602061319185828601612f8b565b9150509250929050565b6000602082840312156131ad57600080fd5b600082013567ffffffffffffffff8111156131c757600080fd5b6131d384828501612ece565b91505092915050565b6000602082840312156131ee57600080fd5b60006131fc84828501612ef8565b91505092915050565b60006020828403121561321757600080fd5b600061322584828501612f0d565b91505092915050565b60006020828403121561324057600080fd5b600061324e84828501612f22565b91505092915050565b60006020828403121561326957600080fd5b600061327784828501612f8b565b91505092915050565b6000806040838503121561329357600080fd5b60006132a185828601612f8b565b925050602083013567ffffffffffffffff8111156132be57600080fd5b6132ca85828601612f61565b9150509250929050565b600080604083850312156132e757600080fd5b60006132f585828601612f8b565b925050602061330685828601612f8b565b9150509250929050565b61331981613d69565b82525050565b61332881613d7b565b82525050565b600061333982613c11565b6133438185613c27565b9350613353818560208601613e04565b61335c81613fd0565b840191505092915050565b600061337282613c1c565b61337c8185613c38565b935061338c818560208601613e04565b61339581613fd0565b840191505092915050565b60006133ab82613c1c565b6133b58185613c49565b93506133c5818560208601613e04565b80840191505092915050565b60006133de602683613c38565b91506133e982613fe1565b604082019050919050565b6000613401601783613c38565b915061340c82614030565b602082019050919050565b6000613424603283613c38565b915061342f82614059565b604082019050919050565b6000613447602683613c38565b9150613452826140a8565b604082019050919050565b600061346a601c83613c38565b9150613475826140f7565b602082019050919050565b600061348d602483613c38565b915061349882614120565b604082019050919050565b60006134b0601983613c38565b91506134bb8261416f565b602082019050919050565b60006134d3602c83613c38565b91506134de82614198565b604082019050919050565b60006134f6603883613c38565b9150613501826141e7565b604082019050919050565b6000613519602a83613c38565b915061352482614236565b604082019050919050565b600061353c602983613c38565b915061354782614285565b604082019050919050565b600061355f602e83613c38565b915061356a826142d4565b604082019050919050565b6000613582602083613c38565b915061358d82614323565b602082019050919050565b60006135a5603183613c38565b91506135b08261434c565b604082019050919050565b60006135c8602c83613c38565b91506135d38261439b565b604082019050919050565b60006135eb601983613c38565b91506135f6826143ea565b602082019050919050565b600061360e602083613c38565b915061361982614413565b602082019050919050565b6000613631602983613c38565b915061363c8261443c565b604082019050919050565b6000613654602f83613c38565b915061365f8261448b565b604082019050919050565b6000613677602183613c38565b9150613682826144da565b604082019050919050565b600061369a602483613c38565b91506136a582614529565b604082019050919050565b60006136bd603183613c38565b91506136c882614578565b604082019050919050565b60006136e0601b83613c38565b91506136eb826145c7565b602082019050919050565b6000613703602a83613c38565b915061370e826145f0565b604082019050919050565b61372281613dd3565b82525050565b61373181613ddd565b82525050565b600061374382856133a0565b915061374f82846133a0565b91508190509392505050565b60006020820190506137706000830184613310565b92915050565b600060808201905061378b6000830187613310565b6137986020830186613310565b6137a56040830185613719565b81810360608301526137b7818461332e565b905095945050505050565b60006040820190506137d76000830185613310565b6137e46020830184613719565b9392505050565b6000602082019050613800600083018461331f565b92915050565b600060208201905081810360008301526138208184613367565b905092915050565b60006020820190508181036000830152613841816133d1565b9050919050565b60006020820190508181036000830152613861816133f4565b9050919050565b6000602082019050818103600083015261388181613417565b9050919050565b600060208201905081810360008301526138a18161343a565b9050919050565b600060208201905081810360008301526138c18161345d565b9050919050565b600060208201905081810360008301526138e181613480565b9050919050565b60006020820190508181036000830152613901816134a3565b9050919050565b60006020820190508181036000830152613921816134c6565b9050919050565b60006020820190508181036000830152613941816134e9565b9050919050565b600060208201905081810360008301526139618161350c565b9050919050565b600060208201905081810360008301526139818161352f565b9050919050565b600060208201905081810360008301526139a181613552565b9050919050565b600060208201905081810360008301526139c181613575565b9050919050565b600060208201905081810360008301526139e181613598565b9050919050565b60006020820190508181036000830152613a01816135bb565b9050919050565b60006020820190508181036000830152613a21816135de565b9050919050565b60006020820190508181036000830152613a4181613601565b9050919050565b60006020820190508181036000830152613a6181613624565b9050919050565b60006020820190508181036000830152613a8181613647565b9050919050565b60006020820190508181036000830152613aa18161366a565b9050919050565b60006020820190508181036000830152613ac18161368d565b9050919050565b60006020820190508181036000830152613ae1816136b0565b9050919050565b60006020820190508181036000830152613b01816136d3565b9050919050565b60006020820190508181036000830152613b21816136f6565b9050919050565b6000602082019050613b3d6000830184613719565b92915050565b6000602082019050613b586000830184613728565b92915050565b6000613b68613b79565b9050613b748282613e69565b919050565b6000604051905090565b600067ffffffffffffffff821115613b9e57613b9d613fa1565b5b602082029050602081019050919050565b600067ffffffffffffffff821115613bca57613bc9613fa1565b5b613bd382613fd0565b9050602081019050919050565b600067ffffffffffffffff821115613bfb57613bfa613fa1565b5b613c0482613fd0565b9050602081019050919050565b600081519050919050565b600081519050919050565b600082825260208201905092915050565b600082825260208201905092915050565b600081905092915050565b6000613c5f82613dd3565b9150613c6a83613dd3565b9250827fffffffffffffffffffffffffffffffffffffffffffffffffffffffffffffffff03821115613c9f57613c9e613f14565b5b828201905092915050565b6000613cb582613dd3565b9150613cc083613dd3565b925082613cd057613ccf613f43565b5b828204905092915050565b6000613ce682613dd3565b9150613cf183613dd3565b9250817fffffffffffffffffffffffffffffffffffffffffffffffffffffffffffffffff0483118215151615613d2a57613d29613f14565b5b828202905092915050565b6000613d4082613dd3565b9150613d4b83613dd3565b925082821015613d5e57613d5d613f14565b5b828203905092915050565b6000613d7482613db3565b9050919050565b60008115159050919050565b60007fffffffff0000000000000000000000000000000000000000000000000000000082169050919050565b600073ffffffffffffffffffffffffffffffffffffffff82169050919050565b6000819050919050565b60006bffffffffffffffffffffffff82169050919050565b82818337600083830152505050565b60005b83811015613e22578082015181840152602081019050613e07565b83811115613e31576000848401525b50505050565b60006002820490506001821680613e4f57607f821691505b60208210811415613e6357613e62613f72565b5b50919050565b613e7282613fd0565b810181811067ffffffffffffffff82111715613e9157613e90613fa1565b5b80604052505050565b6000613ea582613dd3565b91507fffffffffffffffffffffffffffffffffffffffffffffffffffffffffffffffff821415613ed857613ed7613f14565b5b600182019050919050565b6000613eee82613dd3565b9150613ef983613dd3565b925082613f0957613f08613f43565b5b828206905092915050565b7f4e487b7100000000000000000000000000000000000000000000000000000000600052601160045260246000fd5b7f4e487b7100000000000000000000000000000000000000000000000000000000600052601260045260246000fd5b7f4e487b7100000000000000000000000000000000000000000000000000000000600052602260045260246000fd5b7f4e487b7100000000000000000000000000000000000000000000000000000000600052604160045260246000fd5b6000601f19601f8301169050919050565b7f53616665436173743a2076616c756520646f65736e27742066697420696e203960008201527f3620626974730000000000000000000000000000000000000000000000000000602082015250565b7f43616c6c6572206973206e6f7420746865206f776e6572000000000000000000600082015250565b7f4552433732313a207472616e7366657220746f206e6f6e20455243373231526560008201527f63656976657220696d706c656d656e7465720000000000000000000000000000602082015250565b7f4f776e61626c653a206e6577206f776e657220697320746865207a65726f206160008201527f6464726573730000000000000000000000000000000000000000000000000000602082015250565b7f4552433732313a20746f6b656e20616c7265616479206d696e74656400000000600082015250565b7f4552433732313a207472616e7366657220746f20746865207a65726f2061646460008201527f7265737300000000000000000000000000000000000000000000000000000000602082015250565b7f4552433732313a20617070726f766520746f2063616c6c657200000000000000600082015250565b7f4552433732313a206f70657261746f7220717565727920666f72206e6f6e657860008201527f697374656e7420746f6b656e0000000000000000000000000000000000000000602082015250565b7f4552433732313a20617070726f76652063616c6c6572206973206e6f74206f7760008201527f6e6572206e6f7220617070726f76656420666f7220616c6c0000000000000000602082015250565b7f4552433732313a2062616c616e636520717565727920666f7220746865207a6560008201527f726f206164647265737300000000000000000000000000000000000000000000602082015250565b7f4552433732313a206f776e657220717565727920666f72206e6f6e657869737460008201527f656e7420746f6b656e0000000000000000000000000000000000000000000000602082015250565b7f45524337323155524953746f726167653a2055524920736574206f66206e6f6e60008201527f6578697374656e7420746f6b656e000000000000000000000000000000000000602082015250565b7f4552433732313a206d696e7420746f20746865207a65726f2061646472657373600082015250565b7f45524337323155524953746f726167653a2055524920717565727920666f722060008201527f6e6f6e6578697374656e7420746f6b656e000000000000000000000000000000602082015250565b7f4552433732313a20617070726f76656420717565727920666f72206e6f6e657860008201527f697374656e7420746f6b656e0000000000000000000000000000000000000000602082015250565b7f43616c6c6572206973206e6f74207468652063726561746f7200000000000000600082015250565b7f4f776e61626c653a2063616c6c6572206973206e6f7420746865206f776e6572600082015250565b7f4552433732313a207472616e73666572206f6620746f6b656e2074686174206960008201527f73206e6f74206f776e0000000000000000000000000000000000000000000000602082015250565b7f4552433732314d657461646174613a2055524920717565727920666f72206e6f60008201527f6e6578697374656e7420746f6b656e0000000000000000000000000000000000602082015250565b7f4552433732313a20617070726f76616c20746f2063757272656e74206f776e6560008201527f7200000000000000000000000000000000000000000000000000000000000000602082015250565b7f4d7573742062652077686974656c697374656420746f2063726561746520746f60008201527f6b656e7300000000000000000000000000000000000000000000000000000000602082015250565b7f4552433732313a207472616e736665722063616c6c6572206973206e6f74206f60008201527f776e6572206e6f7220617070726f766564000000000000000000000000000000602082015250565b7f455243323938313a20496e76616c696420706172616d65746572730000000000600082015250565b7f455243323938313a20726f79616c7479206665652077696c6c2065786365656460008201527f2073616c65507269636500000000000000000000000000000000000000000000602082015250565b61464881613d69565b811461465357600080fd5b50565b61465f81613d7b565b811461466a57600080fd5b50565b61467681613d87565b811461468157600080fd5b50565b61468d81613dd3565b811461469857600080fd5b5056fea2646970667358221220ce8e43dc6202ee19338cb0d6c291e9e669be236eec976b37d08a769c5cb0253564736f6c63430008040033",
  "linkReferences": {},
  "deployedLinkReferences": {}
}