{
  "_format": "hh-sol-artifact-1",
  "contractName": "NFT",
  "sourceName": "contracts/NFT.sol",
  "abi": [
    {
      "inputs": [
        {
          "internalType": "address",
          "name": "_marketplaceAddress",
          "type": "address"
        }
      ],
      "stateMutability": "nonpayable",
      "type": "constructor"
    },
    {
      "anonymous": false,
      "inputs": [
        {
          "indexed": true,
          "internalType": "address",
          "name": "_newAddress",
          "type": "address"
        }
      ],
      "name": "AddToWhitelist",
      "type": "event"
    },
    {
      "anonymous": false,
      "inputs": [
        {
          "indexed": true,
          "internalType": "address",
          "name": "owner",
          "type": "address"
        },
        {
          "indexed": true,
          "internalType": "address",
          "name": "approved",
          "type": "address"
        },
        {
          "indexed": true,
          "internalType": "uint256",
          "name": "tokenId",
          "type": "uint256"
        }
      ],
      "name": "Approval",
      "type": "event"
    },
    {
      "anonymous": false,
      "inputs": [
        {
          "indexed": true,
          "internalType": "address",
          "name": "owner",
          "type": "address"
        },
        {
          "indexed": true,
          "internalType": "address",
          "name": "operator",
          "type": "address"
        },
        {
          "indexed": false,
          "internalType": "bool",
          "name": "approved",
          "type": "bool"
        }
      ],
      "name": "ApprovalForAll",
      "type": "event"
    },
    {
      "anonymous": false,
      "inputs": [
        {
          "indexed": true,
          "internalType": "address",
          "name": "previousOwner",
          "type": "address"
        },
        {
          "indexed": true,
          "internalType": "address",
          "name": "newOwner",
          "type": "address"
        }
      ],
      "name": "OwnershipTransferred",
      "type": "event"
    },
    {
      "anonymous": false,
      "inputs": [
        {
          "indexed": true,
          "internalType": "address",
          "name": "_removedAddress",
          "type": "address"
        }
      ],
      "name": "RemoveFromWhitelist",
      "type": "event"
    },
    {
      "anonymous": false,
      "inputs": [
        {
          "indexed": true,
          "internalType": "uint256",
          "name": "_tokenId",
          "type": "uint256"
        },
        {
          "indexed": false,
          "internalType": "string",
          "name": "_uri",
          "type": "string"
        }
      ],
      "name": "TokenURIUpdated",
      "type": "event"
    },
    {
      "anonymous": false,
      "inputs": [
        {
          "indexed": true,
          "internalType": "address",
          "name": "from",
          "type": "address"
        },
        {
          "indexed": true,
          "internalType": "address",
          "name": "to",
          "type": "address"
        },
        {
          "indexed": true,
          "internalType": "uint256",
          "name": "tokenId",
          "type": "uint256"
        }
      ],
      "name": "Transfer",
      "type": "event"
    },
    {
      "inputs": [
        {
          "internalType": "address",
          "name": "_newAddress",
          "type": "address"
        }
      ],
      "name": "addToWhitelist",
      "outputs": [],
      "stateMutability": "nonpayable",
      "type": "function"
    },
    {
      "inputs": [
        {
          "internalType": "address",
          "name": "to",
          "type": "address"
        },
        {
          "internalType": "uint256",
          "name": "tokenId",
          "type": "uint256"
        }
      ],
      "name": "approve",
      "outputs": [],
      "stateMutability": "nonpayable",
      "type": "function"
    },
    {
      "inputs": [
        {
          "internalType": "address",
          "name": "owner",
          "type": "address"
        }
      ],
      "name": "balanceOf",
      "outputs": [
        {
          "internalType": "uint256",
          "name": "",
          "type": "uint256"
        }
      ],
      "stateMutability": "view",
      "type": "function"
    },
    {
      "inputs": [
        {
          "internalType": "uint256",
          "name": "_tokenId",
          "type": "uint256"
        }
      ],
      "name": "burn",
      "outputs": [],
      "stateMutability": "nonpayable",
      "type": "function"
    },
    {
      "inputs": [
        {
          "internalType": "bool",
          "name": "_enabled",
          "type": "bool"
        }
      ],
      "name": "enableWhitelist",
      "outputs": [],
      "stateMutability": "nonpayable",
      "type": "function"
    },
    {
      "inputs": [
        {
          "internalType": "uint256",
          "name": "tokenId",
          "type": "uint256"
        }
      ],
      "name": "getApproved",
      "outputs": [
        {
          "internalType": "address",
          "name": "",
          "type": "address"
        }
      ],
      "stateMutability": "view",
      "type": "function"
    },
    {
      "inputs": [],
      "name": "getMarketAddress",
      "outputs": [
        {
          "internalType": "address",
          "name": "marketAddress",
          "type": "address"
        }
      ],
      "stateMutability": "view",
      "type": "function"
    },
    {
      "inputs": [
        {
          "internalType": "address[]",
          "name": "_whitelistees",
          "type": "address[]"
        }
      ],
      "name": "initWhitelist",
      "outputs": [],
      "stateMutability": "nonpayable",
      "type": "function"
    },
    {
      "inputs": [
        {
          "internalType": "address",
          "name": "owner",
          "type": "address"
        },
        {
          "internalType": "address",
          "name": "operator",
          "type": "address"
        }
      ],
      "name": "isApprovedForAll",
      "outputs": [
        {
          "internalType": "bool",
          "name": "",
          "type": "bool"
        }
      ],
      "stateMutability": "view",
      "type": "function"
    },
    {
      "inputs": [
        {
          "internalType": "address",
          "name": "_address",
          "type": "address"
        }
      ],
      "name": "isWhitelisted",
      "outputs": [
        {
          "internalType": "bool",
          "name": "",
          "type": "bool"
        }
      ],
      "stateMutability": "view",
      "type": "function"
    },
    {
      "inputs": [
        {
          "internalType": "address",
          "name": "to",
          "type": "address"
        },
        {
          "internalType": "string",
          "name": "tokenURI",
          "type": "string"
        },
        {
          "internalType": "address",
          "name": "royaltyRecipient",
          "type": "address"
        },
        {
          "internalType": "uint256",
          "name": "royaltyValue",
          "type": "uint256"
        }
      ],
      "name": "mint",
      "outputs": [
        {
          "internalType": "uint256",
          "name": "_tokenId",
          "type": "uint256"
        }
      ],
      "stateMutability": "nonpayable",
      "type": "function"
    },
    {
      "inputs": [],
      "name": "name",
      "outputs": [
        {
          "internalType": "string",
          "name": "",
          "type": "string"
        }
      ],
      "stateMutability": "view",
      "type": "function"
    },
    {
      "inputs": [],
      "name": "owner",
      "outputs": [
        {
          "internalType": "address",
          "name": "",
          "type": "address"
        }
      ],
      "stateMutability": "view",
      "type": "function"
    },
    {
      "inputs": [
        {
          "internalType": "uint256",
          "name": "tokenId",
          "type": "uint256"
        }
      ],
      "name": "ownerOf",
      "outputs": [
        {
          "internalType": "address",
          "name": "",
          "type": "address"
        }
      ],
      "stateMutability": "view",
      "type": "function"
    },
    {
      "inputs": [
        {
          "internalType": "address",
          "name": "_removedAddress",
          "type": "address"
        }
      ],
      "name": "removeFromWhitelist",
      "outputs": [],
      "stateMutability": "nonpayable",
      "type": "function"
    },
    {
      "inputs": [],
      "name": "renounceOwnership",
      "outputs": [],
      "stateMutability": "nonpayable",
      "type": "function"
    },
    {
      "inputs": [
        {
          "internalType": "uint256",
          "name": "tokenId",
          "type": "uint256"
        },
        {
          "internalType": "uint256",
          "name": "value",
          "type": "uint256"
        }
      ],
      "name": "royaltyInfo",
      "outputs": [
        {
          "internalType": "address",
          "name": "receiver",
          "type": "address"
        },
        {
          "internalType": "uint256",
          "name": "royaltyAmount",
          "type": "uint256"
        }
      ],
      "stateMutability": "view",
      "type": "function"
    },
    {
      "inputs": [
        {
          "internalType": "address",
          "name": "from",
          "type": "address"
        },
        {
          "internalType": "address",
          "name": "to",
          "type": "address"
        },
        {
          "internalType": "uint256",
          "name": "tokenId",
          "type": "uint256"
        }
      ],
      "name": "safeTransferFrom",
      "outputs": [],
      "stateMutability": "nonpayable",
      "type": "function"
    },
    {
      "inputs": [
        {
          "internalType": "address",
          "name": "from",
          "type": "address"
        },
        {
          "internalType": "address",
          "name": "to",
          "type": "address"
        },
        {
          "internalType": "uint256",
          "name": "tokenId",
          "type": "uint256"
        },
        {
          "internalType": "bytes",
          "name": "_data",
          "type": "bytes"
        }
      ],
      "name": "safeTransferFrom",
      "outputs": [],
      "stateMutability": "nonpayable",
      "type": "function"
    },
    {
      "inputs": [
        {
          "internalType": "address",
          "name": "operator",
          "type": "address"
        },
        {
          "internalType": "bool",
          "name": "approved",
          "type": "bool"
        }
      ],
      "name": "setApprovalForAll",
      "outputs": [],
      "stateMutability": "nonpayable",
      "type": "function"
    },
    {
      "inputs": [
        {
          "internalType": "bytes4",
          "name": "interfaceId",
          "type": "bytes4"
        }
      ],
      "name": "supportsInterface",
      "outputs": [
        {
          "internalType": "bool",
          "name": "",
          "type": "bool"
        }
      ],
      "stateMutability": "view",
      "type": "function"
    },
    {
      "inputs": [],
      "name": "symbol",
      "outputs": [
        {
          "internalType": "string",
          "name": "",
          "type": "string"
        }
      ],
      "stateMutability": "view",
      "type": "function"
    },
    {
      "inputs": [
        {
          "internalType": "uint256",
          "name": "_tokenId",
          "type": "uint256"
        }
      ],
      "name": "tokenCreator",
      "outputs": [
        {
          "internalType": "address",
          "name": "",
          "type": "address"
        }
      ],
      "stateMutability": "view",
      "type": "function"
    },
    {
      "inputs": [
        {
          "internalType": "uint256",
          "name": "tokenId",
          "type": "uint256"
        }
      ],
      "name": "tokenURI",
      "outputs": [
        {
          "internalType": "string",
          "name": "",
          "type": "string"
        }
      ],
      "stateMutability": "view",
      "type": "function"
    },
    {
      "inputs": [
        {
          "internalType": "address",
          "name": "from",
          "type": "address"
        },
        {
          "internalType": "address",
          "name": "to",
          "type": "address"
        },
        {
          "internalType": "uint256",
          "name": "tokenId",
          "type": "uint256"
        }
      ],
      "name": "transferFrom",
      "outputs": [],
      "stateMutability": "nonpayable",
      "type": "function"
    },
    {
      "inputs": [
        {
          "internalType": "address",
          "name": "newOwner",
          "type": "address"
        }
      ],
      "name": "transferOwnership",
      "outputs": [],
      "stateMutability": "nonpayable",
      "type": "function"
    },
    {
      "inputs": [
        {
          "internalType": "address",
          "name": "from",
          "type": "address"
        },
        {
          "internalType": "address",
          "name": "to",
          "type": "address"
        },
        {
          "internalType": "uint256",
          "name": "tokenId",
          "type": "uint256"
        }
      ],
      "name": "transferToken",
      "outputs": [],
      "stateMutability": "nonpayable",
      "type": "function"
    },
    {
      "inputs": [
        {
          "internalType": "uint256",
          "name": "_tokenId",
          "type": "uint256"
        },
        {
          "internalType": "string",
          "name": "_uri",
          "type": "string"
        }
      ],
      "name": "updateTokenMetadata",
      "outputs": [],
      "stateMutability": "nonpayable",
      "type": "function"
    },
    {
      "inputs": [
        {
          "internalType": "uint256",
          "name": "_tokenId",
          "type": "uint256"
        },
        {
          "internalType": "uint256",
          "name": "royaltyValue",
          "type": "uint256"
        }
      ],
      "name": "updateTokenRoyalty",
      "outputs": [],
      "stateMutability": "nonpayable",
      "type": "function"
    }
  ],
  "bytecode": "0x60806040526001600c60006101000a81548160ff0219169083151502179055503480156200002c57600080fd5b506040516200463c3803806200463c8339818101604052810190620000529190620002ef565b6040518060400160405280600581526020017f41726b69760000000000000000000000000000000000000000000000000000008152506040518060400160405280600481526020017f41524b56000000000000000000000000000000000000000000000000000000008152508160009080519060200190620000d692919062000228565b508060019080519060200190620000ef92919062000228565b50505062000112620001066200015a60201b60201c565b6200016260201b60201c565b80600e60006101000a81548173ffffffffffffffffffffffffffffffffffffffff021916908373ffffffffffffffffffffffffffffffffffffffff16021790555050620003ce565b600033905090565b6000600760009054906101000a900473ffffffffffffffffffffffffffffffffffffffff16905081600760006101000a81548173ffffffffffffffffffffffffffffffffffffffff021916908373ffffffffffffffffffffffffffffffffffffffff1602179055508173ffffffffffffffffffffffffffffffffffffffff168173ffffffffffffffffffffffffffffffffffffffff167f8be0079c531659141344cd1fd0a4f28419497f9722a3daafe3b4186f6b6457e060405160405180910390a35050565b82805462000236906200034f565b90600052602060002090601f0160209004810192826200025a5760008555620002a6565b82601f106200027557805160ff1916838001178555620002a6565b82800160010185558215620002a6579182015b82811115620002a557825182559160200191906001019062000288565b5b509050620002b59190620002b9565b5090565b5b80821115620002d4576000816000905550600101620002ba565b5090565b600081519050620002e981620003b4565b92915050565b6000602082840312156200030257600080fd5b60006200031284828501620002d8565b91505092915050565b600062000328826200032f565b9050919050565b600073ffffffffffffffffffffffffffffffffffffffff82169050919050565b600060028204905060018216806200036857607f821691505b602082108114156200037f576200037e62000385565b5b50919050565b7f4e487b7100000000000000000000000000000000000000000000000000000000600052602260045260246000fd5b620003bf816200031b565b8114620003cb57600080fd5b50565b61425e80620003de6000396000f3fe608060405234801561001057600080fd5b50600436106101cf5760003560e01c8063715018a611610104578063c62beb07116100a2578063e7334fe511610071578063e7334fe514610539578063e985e9c514610557578063f2fde38b14610587578063f5537ede146105a3576101cf565b8063c62beb07146104a1578063c87b56dd146104bd578063da14cbbc146104ed578063e43252d71461051d576101cf565b806395d89b41116100de57806395d89b411461042f578063a22cb4651461044d578063b85ecf9314610469578063b88d4fde14610485576101cf565b8063715018a6146103eb5780638ab1d681146103f55780638da5cb5b14610411576101cf565b80632cb2f52e1161017157806342842e0e1161014b57806342842e0e1461035357806342966c681461036f5780636352211e1461038b57806370a08231146103bb576101cf565b80632cb2f52e146102d75780633af32abf146102f357806340c1a06414610323576101cf565b8063081812fc116101ad578063081812fc1461023e578063095ea7b31461026e57806323b872dd1461028a5780632a55205a146102a6576101cf565b806301ffc9a7146101d4578063040b65831461020457806306fdde0314610220575b600080fd5b6101ee60048036038101906101e99190612ef8565b6105bf565b6040516101fb9190613489565b60405180910390f35b61021e60048036038101906102199190612ecf565b6105d1565b005b61022861066a565b60405161023591906134a4565b60405180910390f35b61025860048036038101906102539190612f4a565b6106fc565b60405161026591906133f9565b60405180910390f35b61028860048036038101906102839190612e52565b610781565b005b6102a4600480360381019061029f9190612cd1565b610899565b005b6102c060048036038101906102bb9190612fc7565b6108f9565b6040516102ce929190613460565b60405180910390f35b6102f160048036038101906102ec9190612f73565b6109ee565b005b61030d60048036038101906103089190612c6c565b610b30565b60405161031a9190613489565b60405180910390f35b61033d60048036038101906103389190612f4a565b610ba5565b60405161034a91906133f9565b60405180910390f35b61036d60048036038101906103689190612cd1565b610be2565b005b61038960048036038101906103849190612f4a565b610c02565b005b6103a560048036038101906103a09190612f4a565b610c8c565b6040516103b291906133f9565b60405180910390f35b6103d560048036038101906103d09190612c6c565b610d3e565b6040516103e29190613786565b60405180910390f35b6103f3610df6565b005b61040f600480360381019061040a9190612c6c565b610e7e565b005b610419610f49565b60405161042691906133f9565b60405180910390f35b610437610f73565b60405161044491906134a4565b60405180910390f35b61046760048036038101906104629190612d9b565b611005565b005b610483600480360381019061047e9190612e8e565b61101b565b005b61049f600480360381019061049a9190612d20565b611117565b005b6104bb60048036038101906104b69190612fc7565b611179565b005b6104d760048036038101906104d29190612f4a565b611206565b6040516104e491906134a4565b60405180910390f35b61050760048036038101906105029190612dd7565b611358565b6040516105149190613786565b60405180910390f35b61053760048036038101906105329190612c6c565b61143e565b005b610541611509565b60405161054e91906133f9565b60405180910390f35b610571600480360381019061056c9190612c95565b611533565b60405161057e9190613489565b60405180910390f35b6105a1600480360381019061059c9190612c6c565b6115c7565b005b6105bd60048036038101906105b89190612cd1565b6116bf565b005b60006105ca826116cf565b9050919050565b6105d9611749565b73ffffffffffffffffffffffffffffffffffffffff166105f7610f49565b73ffffffffffffffffffffffffffffffffffffffff161461064d576040517f08c379a0000000000000000000000000000000000000000000000000000000008152600401610644906136c6565b60405180910390fd5b80600c60006101000a81548160ff02191690831515021790555050565b60606000805461067990613a62565b80601f01602080910402602001604051908101604052809291908181526020018280546106a590613a62565b80156106f25780601f106106c7576101008083540402835291602001916106f2565b820191906000526020600020905b8154815290600101906020018083116106d557829003601f168201915b5050505050905090565b600061070782611751565b610746576040517f08c379a000000000000000000000000000000000000000000000000000000000815260040161073d90613686565b60405180910390fd5b6004600083815260200190815260200160002060009054906101000a900473ffffffffffffffffffffffffffffffffffffffff169050919050565b600061078c82610c8c565b90508073ffffffffffffffffffffffffffffffffffffffff168373ffffffffffffffffffffffffffffffffffffffff1614156107fd576040517f08c379a00000000000000000000000000000000000000000000000000000000081526004016107f490613726565b60405180910390fd5b8073ffffffffffffffffffffffffffffffffffffffff1661081c611749565b73ffffffffffffffffffffffffffffffffffffffff16148061084b575061084a81610845611749565b611533565b5b61088a576040517f08c379a0000000000000000000000000000000000000000000000000000000008152600401610881906135c6565b60405180910390fd5b61089483836117bd565b505050565b6108aa6108a4611749565b82611876565b6108e9576040517f08c379a00000000000000000000000000000000000000000000000000000000081526004016108e090613766565b60405180910390fd5b6108f4838383611954565b505050565b6000806000601260008681526020019081526020016000206040518060400160405290816000820160009054906101000a900473ffffffffffffffffffffffffffffffffffffffff1673ffffffffffffffffffffffffffffffffffffffff1673ffffffffffffffffffffffffffffffffffffffff1681526020016000820160149054906101000a90046bffffffffffffffffffffffff166bffffffffffffffffffffffff166bffffffffffffffffffffffff168152505090508060000151925061271081602001516bffffffffffffffffffffffff16856109da919061391e565b6109e491906138ed565b9150509250929050565b8160006109fa82610c8c565b90503373ffffffffffffffffffffffffffffffffffffffff168173ffffffffffffffffffffffffffffffffffffffff1614610a6a576040517f08c379a0000000000000000000000000000000000000000000000000000000008152600401610a61906134c6565b60405180910390fd5b836000610a7682610ba5565b90503373ffffffffffffffffffffffffffffffffffffffff168173ffffffffffffffffffffffffffffffffffffffff1614610ae6576040517f08c379a0000000000000000000000000000000000000000000000000000000008152600401610add906136a6565b60405180910390fd5b610af08686611bb0565b857f931f495b9a8e5d8e61946ea5d61e021f636cfe213a801f97589c18c152e408bd86604051610b2091906134a4565b60405180910390a2505050505050565b6000600c60009054906101000a900460ff1615610b9b57600b60008373ffffffffffffffffffffffffffffffffffffffff1673ffffffffffffffffffffffffffffffffffffffff16815260200190815260200160002060009054906101000a900460ff169050610ba0565b600190505b919050565b60006010600083815260200190815260200160002060009054906101000a900473ffffffffffffffffffffffffffffffffffffffff169050919050565b610bfd83838360405180602001604052806000815250611117565b505050565b806000610c0e82610c8c565b90503373ffffffffffffffffffffffffffffffffffffffff168173ffffffffffffffffffffffffffffffffffffffff1614610c7e576040517f08c379a0000000000000000000000000000000000000000000000000000000008152600401610c75906134c6565b60405180910390fd5b610c8783611c24565b505050565b6000806002600084815260200190815260200160002060009054906101000a900473ffffffffffffffffffffffffffffffffffffffff169050600073ffffffffffffffffffffffffffffffffffffffff168173ffffffffffffffffffffffffffffffffffffffff161415610d35576040517f08c379a0000000000000000000000000000000000000000000000000000000008152600401610d2c90613606565b60405180910390fd5b80915050919050565b60008073ffffffffffffffffffffffffffffffffffffffff168273ffffffffffffffffffffffffffffffffffffffff161415610daf576040517f08c379a0000000000000000000000000000000000000000000000000000000008152600401610da6906135e6565b60405180910390fd5b600360008373ffffffffffffffffffffffffffffffffffffffff1673ffffffffffffffffffffffffffffffffffffffff168152602001908152602001600020549050919050565b610dfe611749565b73ffffffffffffffffffffffffffffffffffffffff16610e1c610f49565b73ffffffffffffffffffffffffffffffffffffffff1614610e72576040517f08c379a0000000000000000000000000000000000000000000000000000000008152600401610e69906136c6565b60405180910390fd5b610e7c6000611c77565b565b610e86611749565b73ffffffffffffffffffffffffffffffffffffffff16610ea4610f49565b73ffffffffffffffffffffffffffffffffffffffff1614610efa576040517f08c379a0000000000000000000000000000000000000000000000000000000008152600401610ef1906136c6565b60405180910390fd5b610f0381611d3d565b8073ffffffffffffffffffffffffffffffffffffffff167f1f756c8b089af6b33ee121fee8badac2553a2fa89c0575ea91ff8792617746c260405160405180910390a250565b6000600760009054906101000a900473ffffffffffffffffffffffffffffffffffffffff16905090565b606060018054610f8290613a62565b80601f0160208091040260200160405190810160405280929190818152602001828054610fae90613a62565b8015610ffb5780601f10610fd057610100808354040283529160200191610ffb565b820191906000526020600020905b815481529060010190602001808311610fde57829003601f168201915b5050505050905090565b611017611010611749565b8383611d98565b5050565b611023611749565b73ffffffffffffffffffffffffffffffffffffffff16611041610f49565b73ffffffffffffffffffffffffffffffffffffffff1614611097576040517f08c379a000000000000000000000000000000000000000000000000000000000815260040161108e906136c6565b60405180910390fd5b60005b81518110156111135760008282815181106110de577f4e487b7100000000000000000000000000000000000000000000000000000000600052603260045260246000fd5b602002602001015190506110f181610b30565b6110ff576110fe81611f05565b5b50808061110b90613ac5565b91505061109a565b5050565b611128611122611749565b83611876565b611167576040517f08c379a000000000000000000000000000000000000000000000000000000000815260040161115e90613766565b60405180910390fd5b61117384848484611f60565b50505050565b81600061118582610ba5565b90503373ffffffffffffffffffffffffffffffffffffffff168173ffffffffffffffffffffffffffffffffffffffff16146111f5576040517f08c379a00000000000000000000000000000000000000000000000000000000081526004016111ec906136a6565b60405180910390fd5b611200843385611fbc565b50505050565b606061121182611751565b611250576040517f08c379a000000000000000000000000000000000000000000000000000000000815260040161124790613666565b60405180910390fd5b600060066000848152602001908152602001600020805461127090613a62565b80601f016020809104026020016040519081016040528092919081815260200182805461129c90613a62565b80156112e95780601f106112be576101008083540402835291602001916112e9565b820191906000526020600020905b8154815290600101906020018083116112cc57829003601f168201915b5050505050905060006112fa6120d8565b9050600081511415611310578192505050611353565b60008251111561134557808260405160200161132d9291906133d5565b60405160208183030381529060405292505050611353565b61134e846120ef565b925050505b919050565b600061136333610b30565b6113a2576040517f08c379a000000000000000000000000000000000000000000000000000000000815260040161139990613746565b60405180910390fd5b60006113ae600d612196565b90506113ba86826121a4565b6113c48186611bb0565b336010600083815260200190815260200160002060006101000a81548173ffffffffffffffffffffffffffffffffffffffff021916908373ffffffffffffffffffffffffffffffffffffffff160217905550600083111561142b5761142a818585611fbc565b5b611435600d6121c2565b50949350505050565b611446611749565b73ffffffffffffffffffffffffffffffffffffffff16611464610f49565b73ffffffffffffffffffffffffffffffffffffffff16146114ba576040517f08c379a00000000000000000000000000000000000000000000000000000000081526004016114b1906136c6565b60405180910390fd5b6114c381611f05565b8073ffffffffffffffffffffffffffffffffffffffff167f75b2135d1c8c3519f3c09c43fe6527089ef09f40c7981ebf0ed46e79e79032c760405160405180910390a250565b6000600e60009054906101000a900473ffffffffffffffffffffffffffffffffffffffff16905090565b6000600560008473ffffffffffffffffffffffffffffffffffffffff1673ffffffffffffffffffffffffffffffffffffffff16815260200190815260200160002060008373ffffffffffffffffffffffffffffffffffffffff1673ffffffffffffffffffffffffffffffffffffffff16815260200190815260200160002060009054906101000a900460ff16905092915050565b6115cf611749565b73ffffffffffffffffffffffffffffffffffffffff166115ed610f49565b73ffffffffffffffffffffffffffffffffffffffff1614611643576040517f08c379a000000000000000000000000000000000000000000000000000000000815260040161163a906136c6565b60405180910390fd5b600073ffffffffffffffffffffffffffffffffffffffff168173ffffffffffffffffffffffffffffffffffffffff1614156116b3576040517f08c379a00000000000000000000000000000000000000000000000000000000081526004016116aa90613526565b60405180910390fd5b6116bc81611c77565b50565b6116ca838383610899565b505050565b60007f2a55205a000000000000000000000000000000000000000000000000000000007bffffffffffffffffffffffffffffffffffffffffffffffffffffffff1916827bffffffffffffffffffffffffffffffffffffffffffffffffffffffff191614806117425750611741826121d8565b5b9050919050565b600033905090565b60008073ffffffffffffffffffffffffffffffffffffffff166002600084815260200190815260200160002060009054906101000a900473ffffffffffffffffffffffffffffffffffffffff1673ffffffffffffffffffffffffffffffffffffffff1614159050919050565b816004600083815260200190815260200160002060006101000a81548173ffffffffffffffffffffffffffffffffffffffff021916908373ffffffffffffffffffffffffffffffffffffffff160217905550808273ffffffffffffffffffffffffffffffffffffffff1661183083610c8c565b73ffffffffffffffffffffffffffffffffffffffff167f8c5be1e5ebec7d5bd14f71427d1e84f3dd0314c0f7b2291e5b200ac8c7c3b92560405160405180910390a45050565b600061188182611751565b6118c0576040517f08c379a00000000000000000000000000000000000000000000000000000000081526004016118b7906135a6565b60405180910390fd5b60006118cb83610c8c565b90508073ffffffffffffffffffffffffffffffffffffffff168473ffffffffffffffffffffffffffffffffffffffff16148061193a57508373ffffffffffffffffffffffffffffffffffffffff16611922846106fc565b73ffffffffffffffffffffffffffffffffffffffff16145b8061194b575061194a8185611533565b5b91505092915050565b8273ffffffffffffffffffffffffffffffffffffffff1661197482610c8c565b73ffffffffffffffffffffffffffffffffffffffff16146119ca576040517f08c379a00000000000000000000000000000000000000000000000000000000081526004016119c1906136e6565b60405180910390fd5b600073ffffffffffffffffffffffffffffffffffffffff168273ffffffffffffffffffffffffffffffffffffffff161415611a3a576040517f08c379a0000000000000000000000000000000000000000000000000000000008152600401611a3190613566565b60405180910390fd5b611a458383836122ba565b611a506000826117bd565b6001600360008573ffffffffffffffffffffffffffffffffffffffff1673ffffffffffffffffffffffffffffffffffffffff1681526020019081526020016000206000828254611aa09190613978565b925050819055506001600360008473ffffffffffffffffffffffffffffffffffffffff1673ffffffffffffffffffffffffffffffffffffffff1681526020019081526020016000206000828254611af79190613897565b92505081905550816002600083815260200190815260200160002060006101000a81548173ffffffffffffffffffffffffffffffffffffffff021916908373ffffffffffffffffffffffffffffffffffffffff160217905550808273ffffffffffffffffffffffffffffffffffffffff168473ffffffffffffffffffffffffffffffffffffffff167fddf252ad1be2c89b69c2b068fc378daa952ba7f163c4a11628f55a4df523b3ef60405160405180910390a4505050565b611bb982611751565b611bf8576040517f08c379a0000000000000000000000000000000000000000000000000000000008152600401611bef90613626565b60405180910390fd5b80600660008481526020019081526020016000209080519060200190611c1f9291906129ba565b505050565b611c2d816122bf565b6000600660008381526020019081526020016000208054611c4d90613a62565b905014611c7457600660008281526020019081526020016000206000611c739190612a40565b5b50565b6000600760009054906101000a900473ffffffffffffffffffffffffffffffffffffffff16905081600760006101000a81548173ffffffffffffffffffffffffffffffffffffffff021916908373ffffffffffffffffffffffffffffffffffffffff1602179055508173ffffffffffffffffffffffffffffffffffffffff168173ffffffffffffffffffffffffffffffffffffffff167f8be0079c531659141344cd1fd0a4f28419497f9722a3daafe3b4186f6b6457e060405160405180910390a35050565b6000600b60008373ffffffffffffffffffffffffffffffffffffffff1673ffffffffffffffffffffffffffffffffffffffff16815260200190815260200160002060006101000a81548160ff02191690831515021790555050565b8173ffffffffffffffffffffffffffffffffffffffff168373ffffffffffffffffffffffffffffffffffffffff161415611e07576040517f08c379a0000000000000000000000000000000000000000000000000000000008152600401611dfe90613586565b60405180910390fd5b80600560008573ffffffffffffffffffffffffffffffffffffffff1673ffffffffffffffffffffffffffffffffffffffff16815260200190815260200160002060008473ffffffffffffffffffffffffffffffffffffffff1673ffffffffffffffffffffffffffffffffffffffff16815260200190815260200160002060006101000a81548160ff0219169083151502179055508173ffffffffffffffffffffffffffffffffffffffff168373ffffffffffffffffffffffffffffffffffffffff167f17307eab39ab6107e8899845ad3d59bd9653f200f220920489ca2b5937696c3183604051611ef89190613489565b60405180910390a3505050565b6001600b60008373ffffffffffffffffffffffffffffffffffffffff1673ffffffffffffffffffffffffffffffffffffffff16815260200190815260200160002060006101000a81548160ff02191690831515021790555050565b611f6b848484611954565b611f77848484846123d0565b611fb6576040517f08c379a0000000000000000000000000000000000000000000000000000000008152600401611fad90613506565b60405180910390fd5b50505050565b612710811115612001576040517f08c379a0000000000000000000000000000000000000000000000000000000008152600401611ff8906134e6565b60405180910390fd5b60405180604001604052808373ffffffffffffffffffffffffffffffffffffffff1681526020018262ffffff166bffffffffffffffffffffffff168152506012600085815260200190815260200160002060008201518160000160006101000a81548173ffffffffffffffffffffffffffffffffffffffff021916908373ffffffffffffffffffffffffffffffffffffffff16021790555060208201518160000160146101000a8154816bffffffffffffffffffffffff02191690836bffffffffffffffffffffffff160217905550905050505050565b606060405180602001604052806000815250905090565b60606120fa82611751565b612139576040517f08c379a000000000000000000000000000000000000000000000000000000000815260040161213090613706565b60405180910390fd5b60006121436120d8565b90506000815111612163576040518060200160405280600081525061218e565b8061216d84612567565b60405160200161217e9291906133d5565b6040516020818303038152906040525b915050919050565b600081600001549050919050565b6121be828260405180602001604052806000815250612714565b5050565b6001816000016000828254019250508190555050565b60007f80ac58cd000000000000000000000000000000000000000000000000000000007bffffffffffffffffffffffffffffffffffffffffffffffffffffffff1916827bffffffffffffffffffffffffffffffffffffffffffffffffffffffff191614806122a357507f5b5e139f000000000000000000000000000000000000000000000000000000007bffffffffffffffffffffffffffffffffffffffffffffffffffffffff1916827bffffffffffffffffffffffffffffffffffffffffffffffffffffffff1916145b806122b357506122b28261276f565b5b9050919050565b505050565b60006122ca82610c8c565b90506122d8816000846122ba565b6122e36000836117bd565b6001600360008373ffffffffffffffffffffffffffffffffffffffff1673ffffffffffffffffffffffffffffffffffffffff16815260200190815260200160002060008282546123339190613978565b925050819055506002600083815260200190815260200160002060006101000a81549073ffffffffffffffffffffffffffffffffffffffff021916905581600073ffffffffffffffffffffffffffffffffffffffff168273ffffffffffffffffffffffffffffffffffffffff167fddf252ad1be2c89b69c2b068fc378daa952ba7f163c4a11628f55a4df523b3ef60405160405180910390a45050565b60006123f18473ffffffffffffffffffffffffffffffffffffffff166127d9565b1561255a578373ffffffffffffffffffffffffffffffffffffffff1663150b7a0261241a611749565b8786866040518563ffffffff1660e01b815260040161243c9493929190613414565b602060405180830381600087803b15801561245657600080fd5b505af192505050801561248757506040513d601f19601f820116820180604052508101906124849190612f21565b60015b61250a573d80600081146124b7576040519150601f19603f3d011682016040523d82523d6000602084013e6124bc565b606091505b50600081511415612502576040517f08c379a00000000000000000000000000000000000000000000000000000000081526004016124f990613506565b60405180910390fd5b805181602001fd5b63150b7a0260e01b7bffffffffffffffffffffffffffffffffffffffffffffffffffffffff1916817bffffffffffffffffffffffffffffffffffffffffffffffffffffffff19161491505061255f565b600190505b949350505050565b606060008214156125af576040518060400160405280600181526020017f3000000000000000000000000000000000000000000000000000000000000000815250905061270f565b600082905060005b600082146125e15780806125ca90613ac5565b915050600a826125da91906138ed565b91506125b7565b60008167ffffffffffffffff811115612623577f4e487b7100000000000000000000000000000000000000000000000000000000600052604160045260246000fd5b6040519080825280601f01601f1916602001820160405280156126555781602001600182028036833780820191505090505b5090505b600085146127085760018261266e9190613978565b9150600a8561267d9190613b0e565b60306126899190613897565b60f81b8183815181106126c5577f4e487b7100000000000000000000000000000000000000000000000000000000600052603260045260246000fd5b60200101907effffffffffffffffffffffffffffffffffffffffffffffffffffffffffffff1916908160001a905350600a8561270191906138ed565b9450612659565b8093505050505b919050565b61271e83836127ec565b61272b60008484846123d0565b61276a576040517f08c379a000000000000000000000000000000000000000000000000000000000815260040161276190613506565b60405180910390fd5b505050565b60007f01ffc9a7000000000000000000000000000000000000000000000000000000007bffffffffffffffffffffffffffffffffffffffffffffffffffffffff1916827bffffffffffffffffffffffffffffffffffffffffffffffffffffffff1916149050919050565b600080823b905060008111915050919050565b600073ffffffffffffffffffffffffffffffffffffffff168273ffffffffffffffffffffffffffffffffffffffff16141561285c576040517f08c379a000000000000000000000000000000000000000000000000000000000815260040161285390613646565b60405180910390fd5b61286581611751565b156128a5576040517f08c379a000000000000000000000000000000000000000000000000000000000815260040161289c90613546565b60405180910390fd5b6128b1600083836122ba565b6001600360008473ffffffffffffffffffffffffffffffffffffffff1673ffffffffffffffffffffffffffffffffffffffff16815260200190815260200160002060008282546129019190613897565b92505081905550816002600083815260200190815260200160002060006101000a81548173ffffffffffffffffffffffffffffffffffffffff021916908373ffffffffffffffffffffffffffffffffffffffff160217905550808273ffffffffffffffffffffffffffffffffffffffff16600073ffffffffffffffffffffffffffffffffffffffff167fddf252ad1be2c89b69c2b068fc378daa952ba7f163c4a11628f55a4df523b3ef60405160405180910390a45050565b8280546129c690613a62565b90600052602060002090601f0160209004810192826129e85760008555612a2f565b82601f10612a0157805160ff1916838001178555612a2f565b82800160010185558215612a2f579182015b82811115612a2e578251825591602001919060010190612a13565b5b509050612a3c9190612a80565b5090565b508054612a4c90613a62565b6000825580601f10612a5e5750612a7d565b601f016020900490600052602060002090810190612a7c9190612a80565b5b50565b5b80821115612a99576000816000905550600101612a81565b5090565b6000612ab0612aab846137c6565b6137a1565b90508083825260208201905082856020860282011115612acf57600080fd5b60005b85811015612aff5781612ae58882612b85565b845260208401935060208301925050600181019050612ad2565b5050509392505050565b6000612b1c612b17846137f2565b6137a1565b905082815260208101848484011115612b3457600080fd5b612b3f848285613a20565b509392505050565b6000612b5a612b5584613823565b6137a1565b905082815260208101848484011115612b7257600080fd5b612b7d848285613a20565b509392505050565b600081359050612b94816141cc565b92915050565b600082601f830112612bab57600080fd5b8135612bbb848260208601612a9d565b91505092915050565b600081359050612bd3816141e3565b92915050565b600081359050612be8816141fa565b92915050565b600081519050612bfd816141fa565b92915050565b600082601f830112612c1457600080fd5b8135612c24848260208601612b09565b91505092915050565b600082601f830112612c3e57600080fd5b8135612c4e848260208601612b47565b91505092915050565b600081359050612c6681614211565b92915050565b600060208284031215612c7e57600080fd5b6000612c8c84828501612b85565b91505092915050565b60008060408385031215612ca857600080fd5b6000612cb685828601612b85565b9250506020612cc785828601612b85565b9150509250929050565b600080600060608486031215612ce657600080fd5b6000612cf486828701612b85565b9350506020612d0586828701612b85565b9250506040612d1686828701612c57565b9150509250925092565b60008060008060808587031215612d3657600080fd5b6000612d4487828801612b85565b9450506020612d5587828801612b85565b9350506040612d6687828801612c57565b925050606085013567ffffffffffffffff811115612d8357600080fd5b612d8f87828801612c03565b91505092959194509250565b60008060408385031215612dae57600080fd5b6000612dbc85828601612b85565b9250506020612dcd85828601612bc4565b9150509250929050565b60008060008060808587031215612ded57600080fd5b6000612dfb87828801612b85565b945050602085013567ffffffffffffffff811115612e1857600080fd5b612e2487828801612c2d565b9350506040612e3587828801612b85565b9250506060612e4687828801612c57565b91505092959194509250565b60008060408385031215612e6557600080fd5b6000612e7385828601612b85565b9250506020612e8485828601612c57565b9150509250929050565b600060208284031215612ea057600080fd5b600082013567ffffffffffffffff811115612eba57600080fd5b612ec684828501612b9a565b91505092915050565b600060208284031215612ee157600080fd5b6000612eef84828501612bc4565b91505092915050565b600060208284031215612f0a57600080fd5b6000612f1884828501612bd9565b91505092915050565b600060208284031215612f3357600080fd5b6000612f4184828501612bee565b91505092915050565b600060208284031215612f5c57600080fd5b6000612f6a84828501612c57565b91505092915050565b60008060408385031215612f8657600080fd5b6000612f9485828601612c57565b925050602083013567ffffffffffffffff811115612fb157600080fd5b612fbd85828601612c2d565b9150509250929050565b60008060408385031215612fda57600080fd5b6000612fe885828601612c57565b9250506020612ff985828601612c57565b9150509250929050565b61300c816139ac565b82525050565b61301b816139be565b82525050565b600061302c82613854565b613036818561386a565b9350613046818560208601613a2f565b61304f81613bfb565b840191505092915050565b60006130658261385f565b61306f818561387b565b935061307f818560208601613a2f565b61308881613bfb565b840191505092915050565b600061309e8261385f565b6130a8818561388c565b93506130b8818560208601613a2f565b80840191505092915050565b60006130d160178361387b565b91506130dc82613c0c565b602082019050919050565b60006130f4601a8361387b565b91506130ff82613c35565b602082019050919050565b600061311760328361387b565b915061312282613c5e565b604082019050919050565b600061313a60268361387b565b915061314582613cad565b604082019050919050565b600061315d601c8361387b565b915061316882613cfc565b602082019050919050565b600061318060248361387b565b915061318b82613d25565b604082019050919050565b60006131a360198361387b565b91506131ae82613d74565b602082019050919050565b60006131c6602c8361387b565b91506131d182613d9d565b604082019050919050565b60006131e960388361387b565b91506131f482613dec565b604082019050919050565b600061320c602a8361387b565b915061321782613e3b565b604082019050919050565b600061322f60298361387b565b915061323a82613e8a565b604082019050919050565b6000613252602e8361387b565b915061325d82613ed9565b604082019050919050565b600061327560208361387b565b915061328082613f28565b602082019050919050565b600061329860318361387b565b91506132a382613f51565b604082019050919050565b60006132bb602c8361387b565b91506132c682613fa0565b604082019050919050565b60006132de60198361387b565b91506132e982613fef565b602082019050919050565b600061330160208361387b565b915061330c82614018565b602082019050919050565b600061332460298361387b565b915061332f82614041565b604082019050919050565b6000613347602f8361387b565b915061335282614090565b604082019050919050565b600061336a60218361387b565b9150613375826140df565b604082019050919050565b600061338d60248361387b565b91506133988261412e565b604082019050919050565b60006133b060318361387b565b91506133bb8261417d565b604082019050919050565b6133cf81613a16565b82525050565b60006133e18285613093565b91506133ed8284613093565b91508190509392505050565b600060208201905061340e6000830184613003565b92915050565b60006080820190506134296000830187613003565b6134366020830186613003565b61344360408301856133c6565b81810360608301526134558184613021565b905095945050505050565b60006040820190506134756000830185613003565b61348260208301846133c6565b9392505050565b600060208201905061349e6000830184613012565b92915050565b600060208201905081810360008301526134be818461305a565b905092915050565b600060208201905081810360008301526134df816130c4565b9050919050565b600060208201905081810360008301526134ff816130e7565b9050919050565b6000602082019050818103600083015261351f8161310a565b9050919050565b6000602082019050818103600083015261353f8161312d565b9050919050565b6000602082019050818103600083015261355f81613150565b9050919050565b6000602082019050818103600083015261357f81613173565b9050919050565b6000602082019050818103600083015261359f81613196565b9050919050565b600060208201905081810360008301526135bf816131b9565b9050919050565b600060208201905081810360008301526135df816131dc565b9050919050565b600060208201905081810360008301526135ff816131ff565b9050919050565b6000602082019050818103600083015261361f81613222565b9050919050565b6000602082019050818103600083015261363f81613245565b9050919050565b6000602082019050818103600083015261365f81613268565b9050919050565b6000602082019050818103600083015261367f8161328b565b9050919050565b6000602082019050818103600083015261369f816132ae565b9050919050565b600060208201905081810360008301526136bf816132d1565b9050919050565b600060208201905081810360008301526136df816132f4565b9050919050565b600060208201905081810360008301526136ff81613317565b9050919050565b6000602082019050818103600083015261371f8161333a565b9050919050565b6000602082019050818103600083015261373f8161335d565b9050919050565b6000602082019050818103600083015261375f81613380565b9050919050565b6000602082019050818103600083015261377f816133a3565b9050919050565b600060208201905061379b60008301846133c6565b92915050565b60006137ab6137bc565b90506137b78282613a94565b919050565b6000604051905090565b600067ffffffffffffffff8211156137e1576137e0613bcc565b5b602082029050602081019050919050565b600067ffffffffffffffff82111561380d5761380c613bcc565b5b61381682613bfb565b9050602081019050919050565b600067ffffffffffffffff82111561383e5761383d613bcc565b5b61384782613bfb565b9050602081019050919050565b600081519050919050565b600081519050919050565b600082825260208201905092915050565b600082825260208201905092915050565b600081905092915050565b60006138a282613a16565b91506138ad83613a16565b9250827fffffffffffffffffffffffffffffffffffffffffffffffffffffffffffffffff038211156138e2576138e1613b3f565b5b828201905092915050565b60006138f882613a16565b915061390383613a16565b92508261391357613912613b6e565b5b828204905092915050565b600061392982613a16565b915061393483613a16565b9250817fffffffffffffffffffffffffffffffffffffffffffffffffffffffffffffffff048311821515161561396d5761396c613b3f565b5b828202905092915050565b600061398382613a16565b915061398e83613a16565b9250828210156139a1576139a0613b3f565b5b828203905092915050565b60006139b7826139f6565b9050919050565b60008115159050919050565b60007fffffffff0000000000000000000000000000000000000000000000000000000082169050919050565b600073ffffffffffffffffffffffffffffffffffffffff82169050919050565b6000819050919050565b82818337600083830152505050565b60005b83811015613a4d578082015181840152602081019050613a32565b83811115613a5c576000848401525b50505050565b60006002820490506001821680613a7a57607f821691505b60208210811415613a8e57613a8d613b9d565b5b50919050565b613a9d82613bfb565b810181811067ffffffffffffffff82111715613abc57613abb613bcc565b5b80604052505050565b6000613ad082613a16565b91507fffffffffffffffffffffffffffffffffffffffffffffffffffffffffffffffff821415613b0357613b02613b3f565b5b600182019050919050565b6000613b1982613a16565b9150613b2483613a16565b925082613b3457613b33613b6e565b5b828206905092915050565b7f4e487b7100000000000000000000000000000000000000000000000000000000600052601160045260246000fd5b7f4e487b7100000000000000000000000000000000000000000000000000000000600052601260045260246000fd5b7f4e487b7100000000000000000000000000000000000000000000000000000000600052602260045260246000fd5b7f4e487b7100000000000000000000000000000000000000000000000000000000600052604160045260246000fd5b6000601f19601f8301169050919050565b7f43616c6c6572206973206e6f7420746865206f776e6572000000000000000000600082015250565b7f45524332393831526f79616c746965733a20546f6f2068696768000000000000600082015250565b7f4552433732313a207472616e7366657220746f206e6f6e20455243373231526560008201527f63656976657220696d706c656d656e7465720000000000000000000000000000602082015250565b7f4f776e61626c653a206e6577206f776e657220697320746865207a65726f206160008201527f6464726573730000000000000000000000000000000000000000000000000000602082015250565b7f4552433732313a20746f6b656e20616c7265616479206d696e74656400000000600082015250565b7f4552433732313a207472616e7366657220746f20746865207a65726f2061646460008201527f7265737300000000000000000000000000000000000000000000000000000000602082015250565b7f4552433732313a20617070726f766520746f2063616c6c657200000000000000600082015250565b7f4552433732313a206f70657261746f7220717565727920666f72206e6f6e657860008201527f697374656e7420746f6b656e0000000000000000000000000000000000000000602082015250565b7f4552433732313a20617070726f76652063616c6c6572206973206e6f74206f7760008201527f6e6572206e6f7220617070726f76656420666f7220616c6c0000000000000000602082015250565b7f4552433732313a2062616c616e636520717565727920666f7220746865207a6560008201527f726f206164647265737300000000000000000000000000000000000000000000602082015250565b7f4552433732313a206f776e657220717565727920666f72206e6f6e657869737460008201527f656e7420746f6b656e0000000000000000000000000000000000000000000000602082015250565b7f45524337323155524953746f726167653a2055524920736574206f66206e6f6e60008201527f6578697374656e7420746f6b656e000000000000000000000000000000000000602082015250565b7f4552433732313a206d696e7420746f20746865207a65726f2061646472657373600082015250565b7f45524337323155524953746f726167653a2055524920717565727920666f722060008201527f6e6f6e6578697374656e7420746f6b656e000000000000000000000000000000602082015250565b7f4552433732313a20617070726f76656420717565727920666f72206e6f6e657860008201527f697374656e7420746f6b656e0000000000000000000000000000000000000000602082015250565b7f43616c6c6572206973206e6f74207468652063726561746f7200000000000000600082015250565b7f4f776e61626c653a2063616c6c6572206973206e6f7420746865206f776e6572600082015250565b7f4552433732313a207472616e73666572206f6620746f6b656e2074686174206960008201527f73206e6f74206f776e0000000000000000000000000000000000000000000000602082015250565b7f4552433732314d657461646174613a2055524920717565727920666f72206e6f60008201527f6e6578697374656e7420746f6b656e0000000000000000000000000000000000602082015250565b7f4552433732313a20617070726f76616c20746f2063757272656e74206f776e6560008201527f7200000000000000000000000000000000000000000000000000000000000000602082015250565b7f4d7573742062652077686974656c697374656420746f2063726561746520746f60008201527f6b656e7300000000000000000000000000000000000000000000000000000000602082015250565b7f4552433732313a207472616e736665722063616c6c6572206973206e6f74206f60008201527f776e6572206e6f7220617070726f766564000000000000000000000000000000602082015250565b6141d5816139ac565b81146141e057600080fd5b50565b6141ec816139be565b81146141f757600080fd5b50565b614203816139ca565b811461420e57600080fd5b50565b61421a81613a16565b811461422557600080fd5b5056fea264697066735822122000c6c96dbddad6dac1014f213c694117cafda1ba37325f7cf5adbb9cc05874ae64736f6c63430008040033",
  "linkReferences": {},
  "deployedLinkReferences": {}
}