{
  "_format": "hh-sol-artifact-1",
  "contractName": "NFT",
  "sourceName": "contracts/NFT.sol",
  "abi": [
    {
      "inputs": [
        {
          "internalType": "address",
          "name": "_marketplaceAddress",
          "type": "address"
        }
      ],
      "stateMutability": "nonpayable",
      "type": "constructor"
    },
    {
      "anonymous": false,
      "inputs": [
        {
          "indexed": true,
          "internalType": "address",
          "name": "_newAddress",
          "type": "address"
        }
      ],
      "name": "AddToWhitelist",
      "type": "event"
    },
    {
      "anonymous": false,
      "inputs": [
        {
          "indexed": true,
          "internalType": "address",
          "name": "owner",
          "type": "address"
        },
        {
          "indexed": true,
          "internalType": "address",
          "name": "approved",
          "type": "address"
        },
        {
          "indexed": true,
          "internalType": "uint256",
          "name": "tokenId",
          "type": "uint256"
        }
      ],
      "name": "Approval",
      "type": "event"
    },
    {
      "anonymous": false,
      "inputs": [
        {
          "indexed": true,
          "internalType": "address",
          "name": "owner",
          "type": "address"
        },
        {
          "indexed": true,
          "internalType": "address",
          "name": "operator",
          "type": "address"
        },
        {
          "indexed": false,
          "internalType": "bool",
          "name": "approved",
          "type": "bool"
        }
      ],
      "name": "ApprovalForAll",
      "type": "event"
    },
    {
      "anonymous": false,
      "inputs": [
        {
          "indexed": true,
          "internalType": "address",
          "name": "previousOwner",
          "type": "address"
        },
        {
          "indexed": true,
          "internalType": "address",
          "name": "newOwner",
          "type": "address"
        }
      ],
      "name": "OwnershipTransferred",
      "type": "event"
    },
    {
      "anonymous": false,
      "inputs": [
        {
          "indexed": true,
          "internalType": "address",
          "name": "_removedAddress",
          "type": "address"
        }
      ],
      "name": "RemoveFromWhitelist",
      "type": "event"
    },
    {
      "anonymous": false,
      "inputs": [
        {
          "indexed": true,
          "internalType": "uint256",
          "name": "_tokenId",
          "type": "uint256"
        },
        {
          "indexed": false,
          "internalType": "string",
          "name": "_uri",
          "type": "string"
        }
      ],
      "name": "TokenURIUpdated",
      "type": "event"
    },
    {
      "anonymous": false,
      "inputs": [
        {
          "indexed": true,
          "internalType": "address",
          "name": "from",
          "type": "address"
        },
        {
          "indexed": true,
          "internalType": "address",
          "name": "to",
          "type": "address"
        },
        {
          "indexed": true,
          "internalType": "uint256",
          "name": "tokenId",
          "type": "uint256"
        }
      ],
      "name": "Transfer",
      "type": "event"
    },
    {
      "inputs": [
        {
          "internalType": "address",
          "name": "_newAddress",
          "type": "address"
        }
      ],
      "name": "addToWhitelist",
      "outputs": [],
      "stateMutability": "nonpayable",
      "type": "function"
    },
    {
      "inputs": [
        {
          "internalType": "address",
          "name": "to",
          "type": "address"
        },
        {
          "internalType": "uint256",
          "name": "tokenId",
          "type": "uint256"
        }
      ],
      "name": "approve",
      "outputs": [],
      "stateMutability": "nonpayable",
      "type": "function"
    },
    {
      "inputs": [
        {
          "internalType": "address",
          "name": "owner",
          "type": "address"
        }
      ],
      "name": "balanceOf",
      "outputs": [
        {
          "internalType": "uint256",
          "name": "",
          "type": "uint256"
        }
      ],
      "stateMutability": "view",
      "type": "function"
    },
    {
      "inputs": [
        {
          "internalType": "uint256",
          "name": "_tokenId",
          "type": "uint256"
        }
      ],
      "name": "burn",
      "outputs": [],
      "stateMutability": "nonpayable",
      "type": "function"
    },
    {
      "inputs": [
        {
          "internalType": "bool",
          "name": "_enabled",
          "type": "bool"
        }
      ],
      "name": "enableWhitelist",
      "outputs": [],
      "stateMutability": "nonpayable",
      "type": "function"
    },
    {
      "inputs": [
        {
          "internalType": "uint256",
          "name": "tokenId",
          "type": "uint256"
        }
      ],
      "name": "getApproved",
      "outputs": [
        {
          "internalType": "address",
          "name": "",
          "type": "address"
        }
      ],
      "stateMutability": "view",
      "type": "function"
    },
    {
      "inputs": [],
      "name": "getMarketAddress",
      "outputs": [
        {
          "internalType": "address",
          "name": "marketAddress",
          "type": "address"
        }
      ],
      "stateMutability": "view",
      "type": "function"
    },
    {
      "inputs": [
        {
          "internalType": "address[]",
          "name": "_whitelistees",
          "type": "address[]"
        }
      ],
      "name": "initWhitelist",
      "outputs": [],
      "stateMutability": "nonpayable",
      "type": "function"
    },
    {
      "inputs": [
        {
          "internalType": "address",
          "name": "owner",
          "type": "address"
        },
        {
          "internalType": "address",
          "name": "operator",
          "type": "address"
        }
      ],
      "name": "isApprovedForAll",
      "outputs": [
        {
          "internalType": "bool",
          "name": "",
          "type": "bool"
        }
      ],
      "stateMutability": "view",
      "type": "function"
    },
    {
      "inputs": [
        {
          "internalType": "address",
          "name": "_address",
          "type": "address"
        }
      ],
      "name": "isWhitelisted",
      "outputs": [
        {
          "internalType": "bool",
          "name": "",
          "type": "bool"
        }
      ],
      "stateMutability": "view",
      "type": "function"
    },
    {
      "inputs": [
        {
          "internalType": "address",
          "name": "to",
          "type": "address"
        },
        {
          "internalType": "string",
          "name": "tokenURI",
          "type": "string"
        }
      ],
      "name": "mint",
      "outputs": [
        {
          "internalType": "uint256",
          "name": "_tokenId",
          "type": "uint256"
        }
      ],
      "stateMutability": "nonpayable",
      "type": "function"
    },
    {
      "inputs": [],
      "name": "name",
      "outputs": [
        {
          "internalType": "string",
          "name": "",
          "type": "string"
        }
      ],
      "stateMutability": "view",
      "type": "function"
    },
    {
      "inputs": [],
      "name": "owner",
      "outputs": [
        {
          "internalType": "address",
          "name": "",
          "type": "address"
        }
      ],
      "stateMutability": "view",
      "type": "function"
    },
    {
      "inputs": [
        {
          "internalType": "uint256",
          "name": "tokenId",
          "type": "uint256"
        }
      ],
      "name": "ownerOf",
      "outputs": [
        {
          "internalType": "address",
          "name": "",
          "type": "address"
        }
      ],
      "stateMutability": "view",
      "type": "function"
    },
    {
      "inputs": [
        {
          "internalType": "address",
          "name": "_removedAddress",
          "type": "address"
        }
      ],
      "name": "removeFromWhitelist",
      "outputs": [],
      "stateMutability": "nonpayable",
      "type": "function"
    },
    {
      "inputs": [],
      "name": "renounceOwnership",
      "outputs": [],
      "stateMutability": "nonpayable",
      "type": "function"
    },
    {
      "inputs": [
        {
          "internalType": "uint256",
          "name": "_tokenId",
          "type": "uint256"
        },
        {
          "internalType": "uint256",
          "name": "_salePrice",
          "type": "uint256"
        }
      ],
      "name": "royaltyInfo",
      "outputs": [
        {
          "internalType": "address",
          "name": "",
          "type": "address"
        },
        {
          "internalType": "uint256",
          "name": "",
          "type": "uint256"
        }
      ],
      "stateMutability": "view",
      "type": "function"
    },
    {
      "inputs": [
        {
          "internalType": "address",
          "name": "from",
          "type": "address"
        },
        {
          "internalType": "address",
          "name": "to",
          "type": "address"
        },
        {
          "internalType": "uint256",
          "name": "tokenId",
          "type": "uint256"
        }
      ],
      "name": "safeTransferFrom",
      "outputs": [],
      "stateMutability": "nonpayable",
      "type": "function"
    },
    {
      "inputs": [
        {
          "internalType": "address",
          "name": "from",
          "type": "address"
        },
        {
          "internalType": "address",
          "name": "to",
          "type": "address"
        },
        {
          "internalType": "uint256",
          "name": "tokenId",
          "type": "uint256"
        },
        {
          "internalType": "bytes",
          "name": "_data",
          "type": "bytes"
        }
      ],
      "name": "safeTransferFrom",
      "outputs": [],
      "stateMutability": "nonpayable",
      "type": "function"
    },
    {
      "inputs": [
        {
          "internalType": "address",
          "name": "operator",
          "type": "address"
        },
        {
          "internalType": "bool",
          "name": "approved",
          "type": "bool"
        }
      ],
      "name": "setApprovalForAll",
      "outputs": [],
      "stateMutability": "nonpayable",
      "type": "function"
    },
    {
      "inputs": [
        {
          "internalType": "uint256",
          "name": "tokenId",
          "type": "uint256"
        },
        {
          "internalType": "uint256",
          "name": "value",
          "type": "uint256"
        }
      ],
      "name": "setTokenRoyalty",
      "outputs": [],
      "stateMutability": "nonpayable",
      "type": "function"
    },
    {
      "inputs": [
        {
          "internalType": "bytes4",
          "name": "interfaceId",
          "type": "bytes4"
        }
      ],
      "name": "supportsInterface",
      "outputs": [
        {
          "internalType": "bool",
          "name": "",
          "type": "bool"
        }
      ],
      "stateMutability": "view",
      "type": "function"
    },
    {
      "inputs": [],
      "name": "symbol",
      "outputs": [
        {
          "internalType": "string",
          "name": "",
          "type": "string"
        }
      ],
      "stateMutability": "view",
      "type": "function"
    },
    {
      "inputs": [
        {
          "internalType": "uint256",
          "name": "a",
          "type": "uint256"
        }
      ],
      "name": "toUint96",
      "outputs": [
        {
          "internalType": "uint96",
          "name": "",
          "type": "uint96"
        }
      ],
      "stateMutability": "pure",
      "type": "function"
    },
    {
      "inputs": [
        {
          "internalType": "uint256",
          "name": "_tokenId",
          "type": "uint256"
        }
      ],
      "name": "tokenCreator",
      "outputs": [
        {
          "internalType": "address",
          "name": "",
          "type": "address"
        }
      ],
      "stateMutability": "view",
      "type": "function"
    },
    {
      "inputs": [
        {
          "internalType": "uint256",
          "name": "tokenId",
          "type": "uint256"
        }
      ],
      "name": "tokenURI",
      "outputs": [
        {
          "internalType": "string",
          "name": "",
          "type": "string"
        }
      ],
      "stateMutability": "view",
      "type": "function"
    },
    {
      "inputs": [],
      "name": "totalSupply",
      "outputs": [
        {
          "internalType": "uint256",
          "name": "",
          "type": "uint256"
        }
      ],
      "stateMutability": "view",
      "type": "function"
    },
    {
      "inputs": [
        {
          "internalType": "address",
          "name": "from",
          "type": "address"
        },
        {
          "internalType": "address",
          "name": "to",
          "type": "address"
        },
        {
          "internalType": "uint256",
          "name": "tokenId",
          "type": "uint256"
        }
      ],
      "name": "transferFrom",
      "outputs": [],
      "stateMutability": "nonpayable",
      "type": "function"
    },
    {
      "inputs": [
        {
          "internalType": "address",
          "name": "newOwner",
          "type": "address"
        }
      ],
      "name": "transferOwnership",
      "outputs": [],
      "stateMutability": "nonpayable",
      "type": "function"
    },
    {
      "inputs": [
        {
          "internalType": "address",
          "name": "from",
          "type": "address"
        },
        {
          "internalType": "address",
          "name": "to",
          "type": "address"
        },
        {
          "internalType": "uint256",
          "name": "tokenId",
          "type": "uint256"
        }
      ],
      "name": "transferToken",
      "outputs": [],
      "stateMutability": "nonpayable",
      "type": "function"
    },
    {
      "inputs": [
        {
          "internalType": "uint256",
          "name": "_tokenId",
          "type": "uint256"
        },
        {
          "internalType": "string",
          "name": "_uri",
          "type": "string"
        }
      ],
      "name": "updateTokenMetadata",
      "outputs": [],
      "stateMutability": "nonpayable",
      "type": "function"
    }
  ],
  "bytecode": "0x60806040526001600c60006101000a81548160ff0219169083151502179055503480156200002c57600080fd5b5060405162004bf138038062004bf18339818101604052810190620000529190620002ef565b6040518060400160405280600581526020017f41726b69760000000000000000000000000000000000000000000000000000008152506040518060400160405280600481526020017f41524b56000000000000000000000000000000000000000000000000000000008152508160009080519060200190620000d692919062000228565b508060019080519060200190620000ef92919062000228565b50505062000112620001066200015a60201b60201c565b6200016260201b60201c565b80600e60006101000a81548173ffffffffffffffffffffffffffffffffffffffff021916908373ffffffffffffffffffffffffffffffffffffffff16021790555050620003ce565b600033905090565b6000600760009054906101000a900473ffffffffffffffffffffffffffffffffffffffff16905081600760006101000a81548173ffffffffffffffffffffffffffffffffffffffff021916908373ffffffffffffffffffffffffffffffffffffffff1602179055508173ffffffffffffffffffffffffffffffffffffffff168173ffffffffffffffffffffffffffffffffffffffff167f8be0079c531659141344cd1fd0a4f28419497f9722a3daafe3b4186f6b6457e060405160405180910390a35050565b82805462000236906200034f565b90600052602060002090601f0160209004810192826200025a5760008555620002a6565b82601f106200027557805160ff1916838001178555620002a6565b82800160010185558215620002a6579182015b82811115620002a557825182559160200191906001019062000288565b5b509050620002b59190620002b9565b5090565b5b80821115620002d4576000816000905550600101620002ba565b5090565b600081519050620002e981620003b4565b92915050565b6000602082840312156200030257600080fd5b60006200031284828501620002d8565b91505092915050565b600062000328826200032f565b9050919050565b600073ffffffffffffffffffffffffffffffffffffffff82169050919050565b600060028204905060018216806200036857607f821691505b602082108114156200037f576200037e62000385565b5b50919050565b7f4e487b7100000000000000000000000000000000000000000000000000000000600052602260045260246000fd5b620003bf816200031b565b8114620003cb57600080fd5b50565b61481380620003de6000396000f3fe608060405234801561001057600080fd5b50600436106101e55760003560e01c806370a082311161010f578063bc189d38116100a2578063e7334fe511610071578063e7334fe51461059d578063e985e9c5146105bb578063f2fde38b146105eb578063f5537ede14610607576101e5565b8063bc189d3814610505578063c87b56dd14610521578063d0def52114610551578063e43252d714610581576101e5565b806395d89b41116100de57806395d89b4114610493578063a22cb465146104b1578063b85ecf93146104cd578063b88d4fde146104e9576101e5565b806370a082311461041f578063715018a61461044f5780638ab1d681146104595780638da5cb5b14610475576101e5565b806323b872dd1161018757806340c1a0641161015657806340c1a0641461038757806342842e0e146103b757806342966c68146103d35780636352211e146103ef576101e5565b806323b872dd146102ee5780632a55205a1461030a5780632cb2f52e1461033b5780633af32abf14610357576101e5565b8063081812fc116101c3578063081812fc14610254578063095ea7b31461028457806318160ddd146102a05780631cf887fc146102be576101e5565b806301ffc9a7146101ea578063040b65831461021a57806306fdde0314610236575b600080fd5b61020460048036038101906101ff91906132db565b610623565b60405161021191906138e4565b60405180910390f35b610234600480360381019061022f91906132b2565b610635565b005b61023e6106ce565b60405161024b91906138ff565b60405180910390f35b61026e6004803603810190610269919061332d565b610760565b60405161027b9190613854565b60405180910390f35b61029e60048036038101906102999190613235565b6107e5565b005b6102a86108fd565b6040516102b59190613c41565b60405180910390f35b6102d860048036038101906102d3919061332d565b61090a565b6040516102e59190613c5c565b60405180910390f35b610308600480360381019061030391906130db565b61091c565b005b610324600480360381019061031f91906133aa565b61097c565b6040516103329291906138bb565b60405180910390f35b61035560048036038101906103509190613356565b610b67565b005b610371600480360381019061036c9190613076565b610ca9565b60405161037e91906138e4565b60405180910390f35b6103a1600480360381019061039c919061332d565b610d1e565b6040516103ae9190613854565b60405180910390f35b6103d160048036038101906103cc91906130db565b610d5b565b005b6103ed60048036038101906103e8919061332d565b610d7b565b005b6104096004803603810190610404919061332d565b610e83565b6040516104169190613854565b60405180910390f35b61043960048036038101906104349190613076565b610f35565b6040516104469190613c41565b60405180910390f35b610457610fed565b005b610473600480360381019061046e9190613076565b611075565b005b61047d611140565b60405161048a9190613854565b60405180910390f35b61049b61116a565b6040516104a891906138ff565b60405180910390f35b6104cb60048036038101906104c691906131a5565b6111fc565b005b6104e760048036038101906104e29190613271565b611212565b005b61050360048036038101906104fe919061312a565b61130e565b005b61051f600480360381019061051a91906133aa565b611370565b005b61053b6004803603810190610536919061332d565b611493565b60405161054891906138ff565b60405180910390f35b61056b600480360381019061056691906131e1565b6115e5565b6040516105789190613c41565b60405180910390f35b61059b60048036038101906105969190613076565b611757565b005b6105a5611822565b6040516105b29190613854565b60405180910390f35b6105d560048036038101906105d0919061309f565b61184c565b6040516105e291906138e4565b60405180910390f35b61060560048036038101906106009190613076565b6118e0565b005b610621600480360381019061061c91906130db565b6119d8565b005b600061062e826119e8565b9050919050565b61063d611a62565b73ffffffffffffffffffffffffffffffffffffffff1661065b611140565b73ffffffffffffffffffffffffffffffffffffffff16146106b1576040517f08c379a00000000000000000000000000000000000000000000000000000000081526004016106a890613b21565b60405180910390fd5b80600c60006101000a81548160ff02191690831515021790555050565b6060600080546106dd90613f50565b80601f016020809104026020016040519081016040528092919081815260200182805461070990613f50565b80156107565780601f1061072b57610100808354040283529160200191610756565b820191906000526020600020905b81548152906001019060200180831161073957829003601f168201915b5050505050905090565b600061076b82611a6a565b6107aa576040517f08c379a00000000000000000000000000000000000000000000000000000000081526004016107a190613ae1565b60405180910390fd5b6004600083815260200190815260200160002060009054906101000a900473ffffffffffffffffffffffffffffffffffffffff169050919050565b60006107f082610e83565b90508073ffffffffffffffffffffffffffffffffffffffff168373ffffffffffffffffffffffffffffffffffffffff161415610861576040517f08c379a000000000000000000000000000000000000000000000000000000000815260040161085890613b81565b60405180910390fd5b8073ffffffffffffffffffffffffffffffffffffffff16610880611a62565b73ffffffffffffffffffffffffffffffffffffffff1614806108af57506108ae816108a9611a62565b61184c565b5b6108ee576040517f08c379a00000000000000000000000000000000000000000000000000000000081526004016108e590613a21565b60405180910390fd5b6108f88383611ad6565b505050565b6000601380549050905090565b600061091582611b8f565b9050919050565b61092d610927611a62565b82611bea565b61096c576040517f08c379a000000000000000000000000000000000000000000000000000000000815260040161096390613bc1565b60405180910390fd5b610977838383611cc8565b505050565b6000806000600960008681526020019081526020016000206040518060400160405290816000820160009054906101000a900473ffffffffffffffffffffffffffffffffffffffff1673ffffffffffffffffffffffffffffffffffffffff1673ffffffffffffffffffffffffffffffffffffffff1681526020016000820160149054906101000a90046bffffffffffffffffffffffff166bffffffffffffffffffffffff166bffffffffffffffffffffffff16815250509050600073ffffffffffffffffffffffffffffffffffffffff16816000015173ffffffffffffffffffffffffffffffffffffffff161415610b125760086040518060400160405290816000820160009054906101000a900473ffffffffffffffffffffffffffffffffffffffff1673ffffffffffffffffffffffffffffffffffffffff1673ffffffffffffffffffffffffffffffffffffffff1681526020016000820160149054906101000a90046bffffffffffffffffffffffff166bffffffffffffffffffffffff166bffffffffffffffffffffffff168152505090505b6000610b1c611f24565b6bffffffffffffffffffffffff1682602001516bffffffffffffffffffffffff1686610b489190613df4565b610b529190613dc3565b90508160000151819350935050509250929050565b816000610b7382610e83565b90503373ffffffffffffffffffffffffffffffffffffffff168173ffffffffffffffffffffffffffffffffffffffff1614610be3576040517f08c379a0000000000000000000000000000000000000000000000000000000008152600401610bda90613941565b60405180910390fd5b836000610bef82610d1e565b90503373ffffffffffffffffffffffffffffffffffffffff168173ffffffffffffffffffffffffffffffffffffffff1614610c5f576040517f08c379a0000000000000000000000000000000000000000000000000000000008152600401610c5690613b01565b60405180910390fd5b610c698686611f2e565b857f931f495b9a8e5d8e61946ea5d61e021f636cfe213a801f97589c18c152e408bd86604051610c9991906138ff565b60405180910390a2505050505050565b6000600c60009054906101000a900460ff1615610d1457600b60008373ffffffffffffffffffffffffffffffffffffffff1673ffffffffffffffffffffffffffffffffffffffff16815260200190815260200160002060009054906101000a900460ff169050610d19565b600190505b919050565b60006010600083815260200190815260200160002060009054906101000a900473ffffffffffffffffffffffffffffffffffffffff169050919050565b610d768383836040518060200160405280600081525061130e565b505050565b806000610d8782610e83565b90503373ffffffffffffffffffffffffffffffffffffffff168173ffffffffffffffffffffffffffffffffffffffff1614610df7576040517f08c379a0000000000000000000000000000000000000000000000000000000008152600401610dee90613941565b60405180910390fd5b826000610e0382610d1e565b90503373ffffffffffffffffffffffffffffffffffffffff168173ffffffffffffffffffffffffffffffffffffffff1614610e73576040517f08c379a0000000000000000000000000000000000000000000000000000000008152600401610e6a90613b01565b60405180910390fd5b610e7c85611fa2565b5050505050565b6000806002600084815260200190815260200160002060009054906101000a900473ffffffffffffffffffffffffffffffffffffffff169050600073ffffffffffffffffffffffffffffffffffffffff168173ffffffffffffffffffffffffffffffffffffffff161415610f2c576040517f08c379a0000000000000000000000000000000000000000000000000000000008152600401610f2390613a61565b60405180910390fd5b80915050919050565b60008073ffffffffffffffffffffffffffffffffffffffff168273ffffffffffffffffffffffffffffffffffffffff161415610fa6576040517f08c379a0000000000000000000000000000000000000000000000000000000008152600401610f9d90613a41565b60405180910390fd5b600360008373ffffffffffffffffffffffffffffffffffffffff1673ffffffffffffffffffffffffffffffffffffffff168152602001908152602001600020549050919050565b610ff5611a62565b73ffffffffffffffffffffffffffffffffffffffff16611013611140565b73ffffffffffffffffffffffffffffffffffffffff1614611069576040517f08c379a000000000000000000000000000000000000000000000000000000000815260040161106090613b21565b60405180910390fd5b6110736000611ff5565b565b61107d611a62565b73ffffffffffffffffffffffffffffffffffffffff1661109b611140565b73ffffffffffffffffffffffffffffffffffffffff16146110f1576040517f08c379a00000000000000000000000000000000000000000000000000000000081526004016110e890613b21565b60405180910390fd5b6110fa816120bb565b8073ffffffffffffffffffffffffffffffffffffffff167f1f756c8b089af6b33ee121fee8badac2553a2fa89c0575ea91ff8792617746c260405160405180910390a250565b6000600760009054906101000a900473ffffffffffffffffffffffffffffffffffffffff16905090565b60606001805461117990613f50565b80601f01602080910402602001604051908101604052809291908181526020018280546111a590613f50565b80156111f25780601f106111c7576101008083540402835291602001916111f2565b820191906000526020600020905b8154815290600101906020018083116111d557829003601f168201915b5050505050905090565b61120e611207611a62565b8383612116565b5050565b61121a611a62565b73ffffffffffffffffffffffffffffffffffffffff16611238611140565b73ffffffffffffffffffffffffffffffffffffffff161461128e576040517f08c379a000000000000000000000000000000000000000000000000000000000815260040161128590613b21565b60405180910390fd5b60005b815181101561130a5760008282815181106112d5577f4e487b7100000000000000000000000000000000000000000000000000000000600052603260045260246000fd5b602002602001015190506112e881610ca9565b6112f6576112f581612283565b5b50808061130290613fb3565b915050611291565b5050565b61131f611319611a62565b83611bea565b61135e576040517f08c379a000000000000000000000000000000000000000000000000000000000815260040161135590613bc1565b60405180910390fd5b61136a848484846122de565b50505050565b81600061137c82610d1e565b90503373ffffffffffffffffffffffffffffffffffffffff168173ffffffffffffffffffffffffffffffffffffffff16146113ec576040517f08c379a00000000000000000000000000000000000000000000000000000000081526004016113e390613b01565b60405180910390fd5b8360006113f882610e83565b90503373ffffffffffffffffffffffffffffffffffffffff168173ffffffffffffffffffffffffffffffffffffffff1614611468576040517f08c379a000000000000000000000000000000000000000000000000000000000815260040161145f90613941565b60405180910390fd5b600085111561148b57600061147c8661090a565b905061148987338361233a565b505b505050505050565b606061149e82611a6a565b6114dd576040517f08c379a00000000000000000000000000000000000000000000000000000000081526004016114d490613ac1565b60405180910390fd5b60006006600084815260200190815260200160002080546114fd90613f50565b80601f016020809104026020016040519081016040528092919081815260200182805461152990613f50565b80156115765780601f1061154b57610100808354040283529160200191611576565b820191906000526020600020905b81548152906001019060200180831161155957829003601f168201915b5050505050905060006115876124e2565b905060008151141561159d5781925050506115e0565b6000825111156115d25780826040516020016115ba929190613830565b604051602081830303815290604052925050506115e0565b6115db846124f9565b925050505b919050565b6000808290506115f433610ca9565b611633576040517f08c379a000000000000000000000000000000000000000000000000000000000815260040161162a90613ba1565b60405180910390fd5b600081511415611678576040517f08c379a000000000000000000000000000000000000000000000000000000000815260040161166f90613be1565b60405180910390fd5b6000611684600d6125a0565b905061169085826125ae565b61169a8185611f2e565b336010600083815260200190815260200160002060006101000a81548173ffffffffffffffffffffffffffffffffffffffff021916908373ffffffffffffffffffffffffffffffffffffffff160217905550611719600e60009054906101000a900473ffffffffffffffffffffffffffffffffffffffff1660016111fc565b601381908060018154018082558091505060019003906000526020600020016000909190919091505561174c600d6125cc565b809250505092915050565b61175f611a62565b73ffffffffffffffffffffffffffffffffffffffff1661177d611140565b73ffffffffffffffffffffffffffffffffffffffff16146117d3576040517f08c379a00000000000000000000000000000000000000000000000000000000081526004016117ca90613b21565b60405180910390fd5b6117dc81612283565b8073ffffffffffffffffffffffffffffffffffffffff167f75b2135d1c8c3519f3c09c43fe6527089ef09f40c7981ebf0ed46e79e79032c760405160405180910390a250565b6000600e60009054906101000a900473ffffffffffffffffffffffffffffffffffffffff16905090565b6000600560008473ffffffffffffffffffffffffffffffffffffffff1673ffffffffffffffffffffffffffffffffffffffff16815260200190815260200160002060008373ffffffffffffffffffffffffffffffffffffffff1673ffffffffffffffffffffffffffffffffffffffff16815260200190815260200160002060009054906101000a900460ff16905092915050565b6118e8611a62565b73ffffffffffffffffffffffffffffffffffffffff16611906611140565b73ffffffffffffffffffffffffffffffffffffffff161461195c576040517f08c379a000000000000000000000000000000000000000000000000000000000815260040161195390613b21565b60405180910390fd5b600073ffffffffffffffffffffffffffffffffffffffff168173ffffffffffffffffffffffffffffffffffffffff1614156119cc576040517f08c379a00000000000000000000000000000000000000000000000000000000081526004016119c390613981565b60405180910390fd5b6119d581611ff5565b50565b6119e383838361091c565b505050565b60007f2a55205a000000000000000000000000000000000000000000000000000000007bffffffffffffffffffffffffffffffffffffffffffffffffffffffff1916827bffffffffffffffffffffffffffffffffffffffffffffffffffffffff19161480611a5b5750611a5a826125e2565b5b9050919050565b600033905090565b60008073ffffffffffffffffffffffffffffffffffffffff166002600084815260200190815260200160002060009054906101000a900473ffffffffffffffffffffffffffffffffffffffff1673ffffffffffffffffffffffffffffffffffffffff1614159050919050565b816004600083815260200190815260200160002060006101000a81548173ffffffffffffffffffffffffffffffffffffffff021916908373ffffffffffffffffffffffffffffffffffffffff160217905550808273ffffffffffffffffffffffffffffffffffffffff16611b4983610e83565b73ffffffffffffffffffffffffffffffffffffffff167f8c5be1e5ebec7d5bd14f71427d1e84f3dd0314c0f7b2291e5b200ac8c7c3b92560405160405180910390a45050565b60006bffffffffffffffffffffffff8016821115611be2576040517f08c379a0000000000000000000000000000000000000000000000000000000008152600401611bd990613921565b60405180910390fd5b819050919050565b6000611bf582611a6a565b611c34576040517f08c379a0000000000000000000000000000000000000000000000000000000008152600401611c2b90613a01565b60405180910390fd5b6000611c3f83610e83565b90508073ffffffffffffffffffffffffffffffffffffffff168473ffffffffffffffffffffffffffffffffffffffff161480611cae57508373ffffffffffffffffffffffffffffffffffffffff16611c9684610760565b73ffffffffffffffffffffffffffffffffffffffff16145b80611cbf5750611cbe818561184c565b5b91505092915050565b8273ffffffffffffffffffffffffffffffffffffffff16611ce882610e83565b73ffffffffffffffffffffffffffffffffffffffff1614611d3e576040517f08c379a0000000000000000000000000000000000000000000000000000000008152600401611d3590613b41565b60405180910390fd5b600073ffffffffffffffffffffffffffffffffffffffff168273ffffffffffffffffffffffffffffffffffffffff161415611dae576040517f08c379a0000000000000000000000000000000000000000000000000000000008152600401611da5906139c1565b60405180910390fd5b611db98383836126c4565b611dc4600082611ad6565b6001600360008573ffffffffffffffffffffffffffffffffffffffff1673ffffffffffffffffffffffffffffffffffffffff1681526020019081526020016000206000828254611e149190613e4e565b925050819055506001600360008473ffffffffffffffffffffffffffffffffffffffff1673ffffffffffffffffffffffffffffffffffffffff1681526020019081526020016000206000828254611e6b9190613d6d565b92505081905550816002600083815260200190815260200160002060006101000a81548173ffffffffffffffffffffffffffffffffffffffff021916908373ffffffffffffffffffffffffffffffffffffffff160217905550808273ffffffffffffffffffffffffffffffffffffffff168473ffffffffffffffffffffffffffffffffffffffff167fddf252ad1be2c89b69c2b068fc378daa952ba7f163c4a11628f55a4df523b3ef60405160405180910390a4505050565b6000612710905090565b611f3782611a6a565b611f76576040517f08c379a0000000000000000000000000000000000000000000000000000000008152600401611f6d90613a81565b60405180910390fd5b80600660008481526020019081526020016000209080519060200190611f9d929190612dc4565b505050565b611fab816126c9565b6000600660008381526020019081526020016000208054611fcb90613f50565b905014611ff257600660008281526020019081526020016000206000611ff19190612e4a565b5b50565b6000600760009054906101000a900473ffffffffffffffffffffffffffffffffffffffff16905081600760006101000a81548173ffffffffffffffffffffffffffffffffffffffff021916908373ffffffffffffffffffffffffffffffffffffffff1602179055508173ffffffffffffffffffffffffffffffffffffffff168173ffffffffffffffffffffffffffffffffffffffff167f8be0079c531659141344cd1fd0a4f28419497f9722a3daafe3b4186f6b6457e060405160405180910390a35050565b6000600b60008373ffffffffffffffffffffffffffffffffffffffff1673ffffffffffffffffffffffffffffffffffffffff16815260200190815260200160002060006101000a81548160ff02191690831515021790555050565b8173ffffffffffffffffffffffffffffffffffffffff168373ffffffffffffffffffffffffffffffffffffffff161415612185576040517f08c379a000000000000000000000000000000000000000000000000000000000815260040161217c906139e1565b60405180910390fd5b80600560008573ffffffffffffffffffffffffffffffffffffffff1673ffffffffffffffffffffffffffffffffffffffff16815260200190815260200160002060008473ffffffffffffffffffffffffffffffffffffffff1673ffffffffffffffffffffffffffffffffffffffff16815260200190815260200160002060006101000a81548160ff0219169083151502179055508173ffffffffffffffffffffffffffffffffffffffff168373ffffffffffffffffffffffffffffffffffffffff167f17307eab39ab6107e8899845ad3d59bd9653f200f220920489ca2b5937696c318360405161227691906138e4565b60405180910390a3505050565b6001600b60008373ffffffffffffffffffffffffffffffffffffffff1673ffffffffffffffffffffffffffffffffffffffff16815260200190815260200160002060006101000a81548160ff02191690831515021790555050565b6122e9848484611cc8565b6122f5848484846127da565b612334576040517f08c379a000000000000000000000000000000000000000000000000000000000815260040161232b90613961565b60405180910390fd5b50505050565b612342611f24565b6bffffffffffffffffffffffff16816bffffffffffffffffffffffff1611156123a0576040517f08c379a000000000000000000000000000000000000000000000000000000000815260040161239790613c21565b60405180910390fd5b600073ffffffffffffffffffffffffffffffffffffffff168273ffffffffffffffffffffffffffffffffffffffff161415612410576040517f08c379a000000000000000000000000000000000000000000000000000000000815260040161240790613c01565b60405180910390fd5b60405180604001604052808373ffffffffffffffffffffffffffffffffffffffff168152602001826bffffffffffffffffffffffff168152506009600085815260200190815260200160002060008201518160000160006101000a81548173ffffffffffffffffffffffffffffffffffffffff021916908373ffffffffffffffffffffffffffffffffffffffff16021790555060208201518160000160146101000a8154816bffffffffffffffffffffffff02191690836bffffffffffffffffffffffff160217905550905050505050565b606060405180602001604052806000815250905090565b606061250482611a6a565b612543576040517f08c379a000000000000000000000000000000000000000000000000000000000815260040161253a90613b61565b60405180910390fd5b600061254d6124e2565b9050600081511161256d5760405180602001604052806000815250612598565b8061257784612971565b604051602001612588929190613830565b6040516020818303038152906040525b915050919050565b600081600001549050919050565b6125c8828260405180602001604052806000815250612b1e565b5050565b6001816000016000828254019250508190555050565b60007f80ac58cd000000000000000000000000000000000000000000000000000000007bffffffffffffffffffffffffffffffffffffffffffffffffffffffff1916827bffffffffffffffffffffffffffffffffffffffffffffffffffffffff191614806126ad57507f5b5e139f000000000000000000000000000000000000000000000000000000007bffffffffffffffffffffffffffffffffffffffffffffffffffffffff1916827bffffffffffffffffffffffffffffffffffffffffffffffffffffffff1916145b806126bd57506126bc82612b79565b5b9050919050565b505050565b60006126d482610e83565b90506126e2816000846126c4565b6126ed600083611ad6565b6001600360008373ffffffffffffffffffffffffffffffffffffffff1673ffffffffffffffffffffffffffffffffffffffff168152602001908152602001600020600082825461273d9190613e4e565b925050819055506002600083815260200190815260200160002060006101000a81549073ffffffffffffffffffffffffffffffffffffffff021916905581600073ffffffffffffffffffffffffffffffffffffffff168273ffffffffffffffffffffffffffffffffffffffff167fddf252ad1be2c89b69c2b068fc378daa952ba7f163c4a11628f55a4df523b3ef60405160405180910390a45050565b60006127fb8473ffffffffffffffffffffffffffffffffffffffff16612be3565b15612964578373ffffffffffffffffffffffffffffffffffffffff1663150b7a02612824611a62565b8786866040518563ffffffff1660e01b8152600401612846949392919061386f565b602060405180830381600087803b15801561286057600080fd5b505af192505050801561289157506040513d601f19601f8201168201806040525081019061288e9190613304565b60015b612914573d80600081146128c1576040519150601f19603f3d011682016040523d82523d6000602084013e6128c6565b606091505b5060008151141561290c576040517f08c379a000000000000000000000000000000000000000000000000000000000815260040161290390613961565b60405180910390fd5b805181602001fd5b63150b7a0260e01b7bffffffffffffffffffffffffffffffffffffffffffffffffffffffff1916817bffffffffffffffffffffffffffffffffffffffffffffffffffffffff191614915050612969565b600190505b949350505050565b606060008214156129b9576040518060400160405280600181526020017f30000000000000000000000000000000000000000000000000000000000000008152509050612b19565b600082905060005b600082146129eb5780806129d490613fb3565b915050600a826129e49190613dc3565b91506129c1565b60008167ffffffffffffffff811115612a2d577f4e487b7100000000000000000000000000000000000000000000000000000000600052604160045260246000fd5b6040519080825280601f01601f191660200182016040528015612a5f5781602001600182028036833780820191505090505b5090505b60008514612b1257600182612a789190613e4e565b9150600a85612a879190613ffc565b6030612a939190613d6d565b60f81b818381518110612acf577f4e487b7100000000000000000000000000000000000000000000000000000000600052603260045260246000fd5b60200101907effffffffffffffffffffffffffffffffffffffffffffffffffffffffffffff1916908160001a905350600a85612b0b9190613dc3565b9450612a63565b8093505050505b919050565b612b288383612bf6565b612b3560008484846127da565b612b74576040517f08c379a0000000000000000000000000000000000000000000000000000000008152600401612b6b90613961565b60405180910390fd5b505050565b60007f01ffc9a7000000000000000000000000000000000000000000000000000000007bffffffffffffffffffffffffffffffffffffffffffffffffffffffff1916827bffffffffffffffffffffffffffffffffffffffffffffffffffffffff1916149050919050565b600080823b905060008111915050919050565b600073ffffffffffffffffffffffffffffffffffffffff168273ffffffffffffffffffffffffffffffffffffffff161415612c66576040517f08c379a0000000000000000000000000000000000000000000000000000000008152600401612c5d90613aa1565b60405180910390fd5b612c6f81611a6a565b15612caf576040517f08c379a0000000000000000000000000000000000000000000000000000000008152600401612ca6906139a1565b60405180910390fd5b612cbb600083836126c4565b6001600360008473ffffffffffffffffffffffffffffffffffffffff1673ffffffffffffffffffffffffffffffffffffffff1681526020019081526020016000206000828254612d0b9190613d6d565b92505081905550816002600083815260200190815260200160002060006101000a81548173ffffffffffffffffffffffffffffffffffffffff021916908373ffffffffffffffffffffffffffffffffffffffff160217905550808273ffffffffffffffffffffffffffffffffffffffff16600073ffffffffffffffffffffffffffffffffffffffff167fddf252ad1be2c89b69c2b068fc378daa952ba7f163c4a11628f55a4df523b3ef60405160405180910390a45050565b828054612dd090613f50565b90600052602060002090601f016020900481019282612df25760008555612e39565b82601f10612e0b57805160ff1916838001178555612e39565b82800160010185558215612e39579182015b82811115612e38578251825591602001919060010190612e1d565b5b509050612e469190612e8a565b5090565b508054612e5690613f50565b6000825580601f10612e685750612e87565b601f016020900490600052602060002090810190612e869190612e8a565b5b50565b5b80821115612ea3576000816000905550600101612e8b565b5090565b6000612eba612eb584613c9c565b613c77565b90508083825260208201905082856020860282011115612ed957600080fd5b60005b85811015612f095781612eef8882612f8f565b845260208401935060208301925050600181019050612edc565b5050509392505050565b6000612f26612f2184613cc8565b613c77565b905082815260208101848484011115612f3e57600080fd5b612f49848285613f0e565b509392505050565b6000612f64612f5f84613cf9565b613c77565b905082815260208101848484011115612f7c57600080fd5b612f87848285613f0e565b509392505050565b600081359050612f9e81614781565b92915050565b600082601f830112612fb557600080fd5b8135612fc5848260208601612ea7565b91505092915050565b600081359050612fdd81614798565b92915050565b600081359050612ff2816147af565b92915050565b600081519050613007816147af565b92915050565b600082601f83011261301e57600080fd5b813561302e848260208601612f13565b91505092915050565b600082601f83011261304857600080fd5b8135613058848260208601612f51565b91505092915050565b600081359050613070816147c6565b92915050565b60006020828403121561308857600080fd5b600061309684828501612f8f565b91505092915050565b600080604083850312156130b257600080fd5b60006130c085828601612f8f565b92505060206130d185828601612f8f565b9150509250929050565b6000806000606084860312156130f057600080fd5b60006130fe86828701612f8f565b935050602061310f86828701612f8f565b925050604061312086828701613061565b9150509250925092565b6000806000806080858703121561314057600080fd5b600061314e87828801612f8f565b945050602061315f87828801612f8f565b935050604061317087828801613061565b925050606085013567ffffffffffffffff81111561318d57600080fd5b6131998782880161300d565b91505092959194509250565b600080604083850312156131b857600080fd5b60006131c685828601612f8f565b92505060206131d785828601612fce565b9150509250929050565b600080604083850312156131f457600080fd5b600061320285828601612f8f565b925050602083013567ffffffffffffffff81111561321f57600080fd5b61322b85828601613037565b9150509250929050565b6000806040838503121561324857600080fd5b600061325685828601612f8f565b925050602061326785828601613061565b9150509250929050565b60006020828403121561328357600080fd5b600082013567ffffffffffffffff81111561329d57600080fd5b6132a984828501612fa4565b91505092915050565b6000602082840312156132c457600080fd5b60006132d284828501612fce565b91505092915050565b6000602082840312156132ed57600080fd5b60006132fb84828501612fe3565b91505092915050565b60006020828403121561331657600080fd5b600061332484828501612ff8565b91505092915050565b60006020828403121561333f57600080fd5b600061334d84828501613061565b91505092915050565b6000806040838503121561336957600080fd5b600061337785828601613061565b925050602083013567ffffffffffffffff81111561339457600080fd5b6133a085828601613037565b9150509250929050565b600080604083850312156133bd57600080fd5b60006133cb85828601613061565b92505060206133dc85828601613061565b9150509250929050565b6133ef81613e82565b82525050565b6133fe81613e94565b82525050565b600061340f82613d2a565b6134198185613d40565b9350613429818560208601613f1d565b613432816140e9565b840191505092915050565b600061344882613d35565b6134528185613d51565b9350613462818560208601613f1d565b61346b816140e9565b840191505092915050565b600061348182613d35565b61348b8185613d62565b935061349b818560208601613f1d565b80840191505092915050565b60006134b4602683613d51565b91506134bf826140fa565b604082019050919050565b60006134d7601783613d51565b91506134e282614149565b602082019050919050565b60006134fa603283613d51565b915061350582614172565b604082019050919050565b600061351d602683613d51565b9150613528826141c1565b604082019050919050565b6000613540601c83613d51565b915061354b82614210565b602082019050919050565b6000613563602483613d51565b915061356e82614239565b604082019050919050565b6000613586601983613d51565b915061359182614288565b602082019050919050565b60006135a9602c83613d51565b91506135b4826142b1565b604082019050919050565b60006135cc603883613d51565b91506135d782614300565b604082019050919050565b60006135ef602a83613d51565b91506135fa8261434f565b604082019050919050565b6000613612602983613d51565b915061361d8261439e565b604082019050919050565b6000613635602e83613d51565b9150613640826143ed565b604082019050919050565b6000613658602083613d51565b91506136638261443c565b602082019050919050565b600061367b603183613d51565b915061368682614465565b604082019050919050565b600061369e602c83613d51565b91506136a9826144b4565b604082019050919050565b60006136c1601983613d51565b91506136cc82614503565b602082019050919050565b60006136e4602083613d51565b91506136ef8261452c565b602082019050919050565b6000613707602983613d51565b915061371282614555565b604082019050919050565b600061372a602f83613d51565b9150613735826145a4565b604082019050919050565b600061374d602183613d51565b9150613758826145f3565b604082019050919050565b6000613770602483613d51565b915061377b82614642565b604082019050919050565b6000613793603183613d51565b915061379e82614691565b604082019050919050565b60006137b6601983613d51565b91506137c1826146e0565b602082019050919050565b60006137d9601b83613d51565b91506137e482614709565b602082019050919050565b60006137fc602a83613d51565b915061380782614732565b604082019050919050565b61381b81613eec565b82525050565b61382a81613ef6565b82525050565b600061383c8285613476565b91506138488284613476565b91508190509392505050565b600060208201905061386960008301846133e6565b92915050565b600060808201905061388460008301876133e6565b61389160208301866133e6565b61389e6040830185613812565b81810360608301526138b08184613404565b905095945050505050565b60006040820190506138d060008301856133e6565b6138dd6020830184613812565b9392505050565b60006020820190506138f960008301846133f5565b92915050565b60006020820190508181036000830152613919818461343d565b905092915050565b6000602082019050818103600083015261393a816134a7565b9050919050565b6000602082019050818103600083015261395a816134ca565b9050919050565b6000602082019050818103600083015261397a816134ed565b9050919050565b6000602082019050818103600083015261399a81613510565b9050919050565b600060208201905081810360008301526139ba81613533565b9050919050565b600060208201905081810360008301526139da81613556565b9050919050565b600060208201905081810360008301526139fa81613579565b9050919050565b60006020820190508181036000830152613a1a8161359c565b9050919050565b60006020820190508181036000830152613a3a816135bf565b9050919050565b60006020820190508181036000830152613a5a816135e2565b9050919050565b60006020820190508181036000830152613a7a81613605565b9050919050565b60006020820190508181036000830152613a9a81613628565b9050919050565b60006020820190508181036000830152613aba8161364b565b9050919050565b60006020820190508181036000830152613ada8161366e565b9050919050565b60006020820190508181036000830152613afa81613691565b9050919050565b60006020820190508181036000830152613b1a816136b4565b9050919050565b60006020820190508181036000830152613b3a816136d7565b9050919050565b60006020820190508181036000830152613b5a816136fa565b9050919050565b60006020820190508181036000830152613b7a8161371d565b9050919050565b60006020820190508181036000830152613b9a81613740565b9050919050565b60006020820190508181036000830152613bba81613763565b9050919050565b60006020820190508181036000830152613bda81613786565b9050919050565b60006020820190508181036000830152613bfa816137a9565b9050919050565b60006020820190508181036000830152613c1a816137cc565b9050919050565b60006020820190508181036000830152613c3a816137ef565b9050919050565b6000602082019050613c566000830184613812565b92915050565b6000602082019050613c716000830184613821565b92915050565b6000613c81613c92565b9050613c8d8282613f82565b919050565b6000604051905090565b600067ffffffffffffffff821115613cb757613cb66140ba565b5b602082029050602081019050919050565b600067ffffffffffffffff821115613ce357613ce26140ba565b5b613cec826140e9565b9050602081019050919050565b600067ffffffffffffffff821115613d1457613d136140ba565b5b613d1d826140e9565b9050602081019050919050565b600081519050919050565b600081519050919050565b600082825260208201905092915050565b600082825260208201905092915050565b600081905092915050565b6000613d7882613eec565b9150613d8383613eec565b9250827fffffffffffffffffffffffffffffffffffffffffffffffffffffffffffffffff03821115613db857613db761402d565b5b828201905092915050565b6000613dce82613eec565b9150613dd983613eec565b925082613de957613de861405c565b5b828204905092915050565b6000613dff82613eec565b9150613e0a83613eec565b9250817fffffffffffffffffffffffffffffffffffffffffffffffffffffffffffffffff0483118215151615613e4357613e4261402d565b5b828202905092915050565b6000613e5982613eec565b9150613e6483613eec565b925082821015613e7757613e7661402d565b5b828203905092915050565b6000613e8d82613ecc565b9050919050565b60008115159050919050565b60007fffffffff0000000000000000000000000000000000000000000000000000000082169050919050565b600073ffffffffffffffffffffffffffffffffffffffff82169050919050565b6000819050919050565b60006bffffffffffffffffffffffff82169050919050565b82818337600083830152505050565b60005b83811015613f3b578082015181840152602081019050613f20565b83811115613f4a576000848401525b50505050565b60006002820490506001821680613f6857607f821691505b60208210811415613f7c57613f7b61408b565b5b50919050565b613f8b826140e9565b810181811067ffffffffffffffff82111715613faa57613fa96140ba565b5b80604052505050565b6000613fbe82613eec565b91507fffffffffffffffffffffffffffffffffffffffffffffffffffffffffffffffff821415613ff157613ff061402d565b5b600182019050919050565b600061400782613eec565b915061401283613eec565b9250826140225761402161405c565b5b828206905092915050565b7f4e487b7100000000000000000000000000000000000000000000000000000000600052601160045260246000fd5b7f4e487b7100000000000000000000000000000000000000000000000000000000600052601260045260246000fd5b7f4e487b7100000000000000000000000000000000000000000000000000000000600052602260045260246000fd5b7f4e487b7100000000000000000000000000000000000000000000000000000000600052604160045260246000fd5b6000601f19601f8301169050919050565b7f53616665436173743a2076616c756520646f65736e27742066697420696e203960008201527f3620626974730000000000000000000000000000000000000000000000000000602082015250565b7f43616c6c6572206973206e6f7420746865206f776e6572000000000000000000600082015250565b7f4552433732313a207472616e7366657220746f206e6f6e20455243373231526560008201527f63656976657220696d706c656d656e7465720000000000000000000000000000602082015250565b7f4f776e61626c653a206e6577206f776e657220697320746865207a65726f206160008201527f6464726573730000000000000000000000000000000000000000000000000000602082015250565b7f4552433732313a20746f6b656e20616c7265616479206d696e74656400000000600082015250565b7f4552433732313a207472616e7366657220746f20746865207a65726f2061646460008201527f7265737300000000000000000000000000000000000000000000000000000000602082015250565b7f4552433732313a20617070726f766520746f2063616c6c657200000000000000600082015250565b7f4552433732313a206f70657261746f7220717565727920666f72206e6f6e657860008201527f697374656e7420746f6b656e0000000000000000000000000000000000000000602082015250565b7f4552433732313a20617070726f76652063616c6c6572206973206e6f74206f7760008201527f6e6572206e6f7220617070726f76656420666f7220616c6c0000000000000000602082015250565b7f4552433732313a2062616c616e636520717565727920666f7220746865207a6560008201527f726f206164647265737300000000000000000000000000000000000000000000602082015250565b7f4552433732313a206f776e657220717565727920666f72206e6f6e657869737460008201527f656e7420746f6b656e0000000000000000000000000000000000000000000000602082015250565b7f45524337323155524953746f726167653a2055524920736574206f66206e6f6e60008201527f6578697374656e7420746f6b656e000000000000000000000000000000000000602082015250565b7f4552433732313a206d696e7420746f20746865207a65726f2061646472657373600082015250565b7f45524337323155524953746f726167653a2055524920717565727920666f722060008201527f6e6f6e6578697374656e7420746f6b656e000000000000000000000000000000602082015250565b7f4552433732313a20617070726f76656420717565727920666f72206e6f6e657860008201527f697374656e7420746f6b656e0000000000000000000000000000000000000000602082015250565b7f43616c6c6572206973206e6f74207468652063726561746f7200000000000000600082015250565b7f4f776e61626c653a2063616c6c6572206973206e6f7420746865206f776e6572600082015250565b7f4552433732313a207472616e73666572206f6620746f6b656e2074686174206960008201527f73206e6f74206f776e0000000000000000000000000000000000000000000000602082015250565b7f4552433732314d657461646174613a2055524920717565727920666f72206e6f60008201527f6e6578697374656e7420746f6b656e0000000000000000000000000000000000602082015250565b7f4552433732313a20617070726f76616c20746f2063757272656e74206f776e6560008201527f7200000000000000000000000000000000000000000000000000000000000000602082015250565b7f4d7573742062652077686974656c697374656420746f2063726561746520746f60008201527f6b656e7300000000000000000000000000000000000000000000000000000000602082015250565b7f4552433732313a207472616e736665722063616c6c6572206973206e6f74206f60008201527f776e6572206e6f7220617070726f766564000000000000000000000000000000602082015250565b7f4552433732313a20746f6b656e55524920697320656d70747900000000000000600082015250565b7f455243323938313a20496e76616c696420706172616d65746572730000000000600082015250565b7f455243323938313a20726f79616c7479206665652077696c6c2065786365656460008201527f2073616c65507269636500000000000000000000000000000000000000000000602082015250565b61478a81613e82565b811461479557600080fd5b50565b6147a181613e94565b81146147ac57600080fd5b50565b6147b881613ea0565b81146147c357600080fd5b50565b6147cf81613eec565b81146147da57600080fd5b5056fea2646970667358221220ff6a9f6d95c970beabf4b62f001658f9356aa73006c8a6d3e0ca628e48ba6df964736f6c63430008040033",
  "linkReferences": {},
  "deployedLinkReferences": {}
}