{
  "_format": "hh-sol-artifact-1",
  "contractName": "NFT",
  "sourceName": "contracts/NFT.sol",
  "abi": [
    {
      "inputs": [
        {
          "internalType": "address",
          "name": "_marketplaceAddress",
          "type": "address"
        }
      ],
      "stateMutability": "nonpayable",
      "type": "constructor"
    },
    {
      "anonymous": false,
      "inputs": [
        {
          "indexed": true,
          "internalType": "address",
          "name": "_newAddress",
          "type": "address"
        }
      ],
      "name": "AddToWhitelist",
      "type": "event"
    },
    {
      "anonymous": false,
      "inputs": [
        {
          "indexed": true,
          "internalType": "address",
          "name": "owner",
          "type": "address"
        },
        {
          "indexed": true,
          "internalType": "address",
          "name": "approved",
          "type": "address"
        },
        {
          "indexed": true,
          "internalType": "uint256",
          "name": "tokenId",
          "type": "uint256"
        }
      ],
      "name": "Approval",
      "type": "event"
    },
    {
      "anonymous": false,
      "inputs": [
        {
          "indexed": true,
          "internalType": "address",
          "name": "owner",
          "type": "address"
        },
        {
          "indexed": true,
          "internalType": "address",
          "name": "operator",
          "type": "address"
        },
        {
          "indexed": false,
          "internalType": "bool",
          "name": "approved",
          "type": "bool"
        }
      ],
      "name": "ApprovalForAll",
      "type": "event"
    },
    {
      "anonymous": false,
      "inputs": [
        {
          "indexed": true,
          "internalType": "address",
          "name": "previousOwner",
          "type": "address"
        },
        {
          "indexed": true,
          "internalType": "address",
          "name": "newOwner",
          "type": "address"
        }
      ],
      "name": "OwnershipTransferred",
      "type": "event"
    },
    {
      "anonymous": false,
      "inputs": [
        {
          "indexed": true,
          "internalType": "address",
          "name": "_removedAddress",
          "type": "address"
        }
      ],
      "name": "RemoveFromWhitelist",
      "type": "event"
    },
    {
      "anonymous": false,
      "inputs": [
        {
          "indexed": true,
          "internalType": "uint256",
          "name": "_tokenId",
          "type": "uint256"
        },
        {
          "indexed": false,
          "internalType": "string",
          "name": "_uri",
          "type": "string"
        }
      ],
      "name": "TokenURIUpdated",
      "type": "event"
    },
    {
      "anonymous": false,
      "inputs": [
        {
          "indexed": true,
          "internalType": "address",
          "name": "from",
          "type": "address"
        },
        {
          "indexed": true,
          "internalType": "address",
          "name": "to",
          "type": "address"
        },
        {
          "indexed": true,
          "internalType": "uint256",
          "name": "tokenId",
          "type": "uint256"
        }
      ],
      "name": "Transfer",
      "type": "event"
    },
    {
      "inputs": [
        {
          "internalType": "address",
          "name": "_newAddress",
          "type": "address"
        }
      ],
      "name": "addToWhitelist",
      "outputs": [],
      "stateMutability": "nonpayable",
      "type": "function"
    },
    {
      "inputs": [
        {
          "internalType": "address",
          "name": "to",
          "type": "address"
        },
        {
          "internalType": "uint256",
          "name": "tokenId",
          "type": "uint256"
        }
      ],
      "name": "approve",
      "outputs": [],
      "stateMutability": "nonpayable",
      "type": "function"
    },
    {
      "inputs": [
        {
          "internalType": "address",
          "name": "owner",
          "type": "address"
        }
      ],
      "name": "balanceOf",
      "outputs": [
        {
          "internalType": "uint256",
          "name": "",
          "type": "uint256"
        }
      ],
      "stateMutability": "view",
      "type": "function"
    },
    {
      "inputs": [
        {
          "internalType": "uint256",
          "name": "_tokenId",
          "type": "uint256"
        }
      ],
      "name": "burn",
      "outputs": [],
      "stateMutability": "nonpayable",
      "type": "function"
    },
    {
      "inputs": [
        {
          "internalType": "bool",
          "name": "_enabled",
          "type": "bool"
        }
      ],
      "name": "enableWhitelist",
      "outputs": [],
      "stateMutability": "nonpayable",
      "type": "function"
    },
    {
      "inputs": [
        {
          "internalType": "uint256",
          "name": "tokenId",
          "type": "uint256"
        }
      ],
      "name": "getApproved",
      "outputs": [
        {
          "internalType": "address",
          "name": "",
          "type": "address"
        }
      ],
      "stateMutability": "view",
      "type": "function"
    },
    {
      "inputs": [],
      "name": "getMarketAddress",
      "outputs": [
        {
          "internalType": "address",
          "name": "marketAddress",
          "type": "address"
        }
      ],
      "stateMutability": "view",
      "type": "function"
    },
    {
      "inputs": [
        {
          "internalType": "address[]",
          "name": "_whitelistees",
          "type": "address[]"
        }
      ],
      "name": "initWhitelist",
      "outputs": [],
      "stateMutability": "nonpayable",
      "type": "function"
    },
    {
      "inputs": [
        {
          "internalType": "address",
          "name": "owner",
          "type": "address"
        },
        {
          "internalType": "address",
          "name": "operator",
          "type": "address"
        }
      ],
      "name": "isApprovedForAll",
      "outputs": [
        {
          "internalType": "bool",
          "name": "",
          "type": "bool"
        }
      ],
      "stateMutability": "view",
      "type": "function"
    },
    {
      "inputs": [
        {
          "internalType": "address",
          "name": "_address",
          "type": "address"
        }
      ],
      "name": "isWhitelisted",
      "outputs": [
        {
          "internalType": "bool",
          "name": "",
          "type": "bool"
        }
      ],
      "stateMutability": "view",
      "type": "function"
    },
    {
      "inputs": [
        {
          "internalType": "address",
          "name": "to",
          "type": "address"
        },
        {
          "internalType": "string",
          "name": "tokenURI",
          "type": "string"
        }
      ],
      "name": "mint",
      "outputs": [
        {
          "internalType": "uint256",
          "name": "_tokenId",
          "type": "uint256"
        }
      ],
      "stateMutability": "nonpayable",
      "type": "function"
    },
    {
      "inputs": [],
      "name": "name",
      "outputs": [
        {
          "internalType": "string",
          "name": "",
          "type": "string"
        }
      ],
      "stateMutability": "view",
      "type": "function"
    },
    {
      "inputs": [],
      "name": "owner",
      "outputs": [
        {
          "internalType": "address",
          "name": "",
          "type": "address"
        }
      ],
      "stateMutability": "view",
      "type": "function"
    },
    {
      "inputs": [
        {
          "internalType": "uint256",
          "name": "tokenId",
          "type": "uint256"
        }
      ],
      "name": "ownerOf",
      "outputs": [
        {
          "internalType": "address",
          "name": "",
          "type": "address"
        }
      ],
      "stateMutability": "view",
      "type": "function"
    },
    {
      "inputs": [
        {
          "internalType": "address",
          "name": "_removedAddress",
          "type": "address"
        }
      ],
      "name": "removeFromWhitelist",
      "outputs": [],
      "stateMutability": "nonpayable",
      "type": "function"
    },
    {
      "inputs": [],
      "name": "renounceOwnership",
      "outputs": [],
      "stateMutability": "nonpayable",
      "type": "function"
    },
    {
      "inputs": [
        {
          "internalType": "uint256",
          "name": "_tokenId",
          "type": "uint256"
        },
        {
          "internalType": "uint256",
          "name": "_salePrice",
          "type": "uint256"
        }
      ],
      "name": "royaltyInfo",
      "outputs": [
        {
          "internalType": "address",
          "name": "",
          "type": "address"
        },
        {
          "internalType": "uint256",
          "name": "",
          "type": "uint256"
        }
      ],
      "stateMutability": "view",
      "type": "function"
    },
    {
      "inputs": [
        {
          "internalType": "address",
          "name": "from",
          "type": "address"
        },
        {
          "internalType": "address",
          "name": "to",
          "type": "address"
        },
        {
          "internalType": "uint256",
          "name": "tokenId",
          "type": "uint256"
        }
      ],
      "name": "safeTransferFrom",
      "outputs": [],
      "stateMutability": "nonpayable",
      "type": "function"
    },
    {
      "inputs": [
        {
          "internalType": "address",
          "name": "from",
          "type": "address"
        },
        {
          "internalType": "address",
          "name": "to",
          "type": "address"
        },
        {
          "internalType": "uint256",
          "name": "tokenId",
          "type": "uint256"
        },
        {
          "internalType": "bytes",
          "name": "_data",
          "type": "bytes"
        }
      ],
      "name": "safeTransferFrom",
      "outputs": [],
      "stateMutability": "nonpayable",
      "type": "function"
    },
    {
      "inputs": [
        {
          "internalType": "address",
          "name": "operator",
          "type": "address"
        },
        {
          "internalType": "bool",
          "name": "approved",
          "type": "bool"
        }
      ],
      "name": "setApprovalForAll",
      "outputs": [],
      "stateMutability": "nonpayable",
      "type": "function"
    },
    {
      "inputs": [
        {
          "internalType": "uint256",
          "name": "tokenId",
          "type": "uint256"
        },
        {
          "internalType": "uint256",
          "name": "value",
          "type": "uint256"
        }
      ],
      "name": "setTokenRoyalty",
      "outputs": [],
      "stateMutability": "nonpayable",
      "type": "function"
    },
    {
      "inputs": [
        {
          "internalType": "bytes4",
          "name": "interfaceId",
          "type": "bytes4"
        }
      ],
      "name": "supportsInterface",
      "outputs": [
        {
          "internalType": "bool",
          "name": "",
          "type": "bool"
        }
      ],
      "stateMutability": "view",
      "type": "function"
    },
    {
      "inputs": [],
      "name": "symbol",
      "outputs": [
        {
          "internalType": "string",
          "name": "",
          "type": "string"
        }
      ],
      "stateMutability": "view",
      "type": "function"
    },
    {
      "inputs": [
        {
          "internalType": "uint256",
          "name": "a",
          "type": "uint256"
        }
      ],
      "name": "toUint96",
      "outputs": [
        {
          "internalType": "uint96",
          "name": "",
          "type": "uint96"
        }
      ],
      "stateMutability": "pure",
      "type": "function"
    },
    {
      "inputs": [
        {
          "internalType": "uint256",
          "name": "_tokenId",
          "type": "uint256"
        }
      ],
      "name": "tokenCreator",
      "outputs": [
        {
          "internalType": "address",
          "name": "",
          "type": "address"
        }
      ],
      "stateMutability": "view",
      "type": "function"
    },
    {
      "inputs": [
        {
          "internalType": "uint256",
          "name": "tokenId",
          "type": "uint256"
        }
      ],
      "name": "tokenURI",
      "outputs": [
        {
          "internalType": "string",
          "name": "",
          "type": "string"
        }
      ],
      "stateMutability": "view",
      "type": "function"
    },
    {
      "inputs": [
        {
          "internalType": "address",
          "name": "from",
          "type": "address"
        },
        {
          "internalType": "address",
          "name": "to",
          "type": "address"
        },
        {
          "internalType": "uint256",
          "name": "tokenId",
          "type": "uint256"
        }
      ],
      "name": "transferFrom",
      "outputs": [],
      "stateMutability": "nonpayable",
      "type": "function"
    },
    {
      "inputs": [
        {
          "internalType": "address",
          "name": "newOwner",
          "type": "address"
        }
      ],
      "name": "transferOwnership",
      "outputs": [],
      "stateMutability": "nonpayable",
      "type": "function"
    },
    {
      "inputs": [
        {
          "internalType": "address",
          "name": "from",
          "type": "address"
        },
        {
          "internalType": "address",
          "name": "to",
          "type": "address"
        },
        {
          "internalType": "uint256",
          "name": "tokenId",
          "type": "uint256"
        }
      ],
      "name": "transferToken",
      "outputs": [],
      "stateMutability": "nonpayable",
      "type": "function"
    },
    {
      "inputs": [
        {
          "internalType": "uint256",
          "name": "_tokenId",
          "type": "uint256"
        },
        {
          "internalType": "string",
          "name": "_uri",
          "type": "string"
        }
      ],
      "name": "updateTokenMetadata",
      "outputs": [],
      "stateMutability": "nonpayable",
      "type": "function"
    },
    {
      "inputs": [
        {
          "internalType": "uint256",
          "name": "tokenId",
          "type": "uint256"
        },
        {
          "internalType": "uint256",
          "name": "value",
          "type": "uint256"
        }
      ],
      "name": "updateTokenRoyalty",
      "outputs": [],
      "stateMutability": "nonpayable",
      "type": "function"
    }
  ],
  "bytecode": "0x60806040526001600c60006101000a81548160ff0219169083151502179055503480156200002c57600080fd5b5060405162004a7c38038062004a7c8339818101604052810190620000529190620002ef565b6040518060400160405280600581526020017f41726b69760000000000000000000000000000000000000000000000000000008152506040518060400160405280600481526020017f41524b56000000000000000000000000000000000000000000000000000000008152508160009080519060200190620000d692919062000228565b508060019080519060200190620000ef92919062000228565b50505062000112620001066200015a60201b60201c565b6200016260201b60201c565b80600e60006101000a81548173ffffffffffffffffffffffffffffffffffffffff021916908373ffffffffffffffffffffffffffffffffffffffff16021790555050620003ce565b600033905090565b6000600760009054906101000a900473ffffffffffffffffffffffffffffffffffffffff16905081600760006101000a81548173ffffffffffffffffffffffffffffffffffffffff021916908373ffffffffffffffffffffffffffffffffffffffff1602179055508173ffffffffffffffffffffffffffffffffffffffff168173ffffffffffffffffffffffffffffffffffffffff167f8be0079c531659141344cd1fd0a4f28419497f9722a3daafe3b4186f6b6457e060405160405180910390a35050565b82805462000236906200034f565b90600052602060002090601f0160209004810192826200025a5760008555620002a6565b82601f106200027557805160ff1916838001178555620002a6565b82800160010185558215620002a6579182015b82811115620002a557825182559160200191906001019062000288565b5b509050620002b59190620002b9565b5090565b5b80821115620002d4576000816000905550600101620002ba565b5090565b600081519050620002e981620003b4565b92915050565b6000602082840312156200030257600080fd5b60006200031284828501620002d8565b91505092915050565b600062000328826200032f565b9050919050565b600073ffffffffffffffffffffffffffffffffffffffff82169050919050565b600060028204905060018216806200036857607f821691505b602082108114156200037f576200037e62000385565b5b50919050565b7f4e487b7100000000000000000000000000000000000000000000000000000000600052602260045260246000fd5b620003bf816200031b565b8114620003cb57600080fd5b50565b61469e80620003de6000396000f3fe608060405234801561001057600080fd5b50600436106101e55760003560e01c8063715018a61161010f578063c62beb07116100a2578063e7334fe511610071578063e7334fe51461059b578063e985e9c5146105b9578063f2fde38b146105e9578063f5537ede14610605576101e5565b8063c62beb0714610503578063c87b56dd1461051f578063d0def5211461054f578063e43252d71461057f576101e5565b8063a22cb465116100de578063a22cb46514610493578063b85ecf93146104af578063b88d4fde146104cb578063bc189d38146104e7576101e5565b8063715018a6146104315780638ab1d6811461043b5780638da5cb5b1461045757806395d89b4114610475576101e5565b80632a55205a1161018757806342842e0e1161015657806342842e0e1461039957806342966c68146103b55780636352211e146103d157806370a0823114610401576101e5565b80632a55205a146102ec5780632cb2f52e1461031d5780633af32abf1461033957806340c1a06414610369576101e5565b8063081812fc116101c3578063081812fc14610254578063095ea7b3146102845780631cf887fc146102a057806323b872dd146102d0576101e5565b806301ffc9a7146101ea578063040b65831461021a57806306fdde0314610236575b600080fd5b61020460048036038101906101ff91906131d2565b610621565b60405161021191906137b8565b60405180910390f35b610234600480360381019061022f91906131a9565b610633565b005b61023e6106cc565b60405161024b91906137d3565b60405180910390f35b61026e60048036038101906102699190613224565b61075e565b60405161027b9190613728565b60405180910390f35b61029e6004803603810190610299919061312c565b6107e3565b005b6102ba60048036038101906102b59190613224565b6108fb565b6040516102c79190613b10565b60405180910390f35b6102ea60048036038101906102e59190612fd2565b61090d565b005b610306600480360381019061030191906132a1565b61096d565b60405161031492919061378f565b60405180910390f35b6103376004803603810190610332919061324d565b610b58565b005b610353600480360381019061034e9190612f6d565b610c9a565b60405161036091906137b8565b60405180910390f35b610383600480360381019061037e9190613224565b610d0f565b6040516103909190613728565b60405180910390f35b6103b360048036038101906103ae9190612fd2565b610d4c565b005b6103cf60048036038101906103ca9190613224565b610d6c565b005b6103eb60048036038101906103e69190613224565b610df6565b6040516103f89190613728565b60405180910390f35b61041b60048036038101906104169190612f6d565b610ea8565b6040516104289190613af5565b60405180910390f35b610439610f60565b005b61045560048036038101906104509190612f6d565b610fe8565b005b61045f6110b3565b60405161046c9190613728565b60405180910390f35b61047d6110dd565b60405161048a91906137d3565b60405180910390f35b6104ad60048036038101906104a8919061309c565b61116f565b005b6104c960048036038101906104c49190613168565b611185565b005b6104e560048036038101906104e09190613021565b611281565b005b61050160048036038101906104fc91906132a1565b6112e3565b005b61051d600480360381019061051891906132a1565b611388565b005b61053960048036038101906105349190613224565b61142d565b60405161054691906137d3565b60405180910390f35b610569600480360381019061056491906130d8565b61157f565b6040516105769190613af5565b60405180910390f35b61059960048036038101906105949190612f6d565b61164e565b005b6105a3611719565b6040516105b09190613728565b60405180910390f35b6105d360048036038101906105ce9190612f96565b611743565b6040516105e091906137b8565b60405180910390f35b61060360048036038101906105fe9190612f6d565b6117d7565b005b61061f600480360381019061061a9190612fd2565b6118cf565b005b600061062c826118df565b9050919050565b61063b611959565b73ffffffffffffffffffffffffffffffffffffffff166106596110b3565b73ffffffffffffffffffffffffffffffffffffffff16146106af576040517f08c379a00000000000000000000000000000000000000000000000000000000081526004016106a6906139f5565b60405180910390fd5b80600c60006101000a81548160ff02191690831515021790555050565b6060600080546106db90613e04565b80601f016020809104026020016040519081016040528092919081815260200182805461070790613e04565b80156107545780601f1061072957610100808354040283529160200191610754565b820191906000526020600020905b81548152906001019060200180831161073757829003601f168201915b5050505050905090565b600061076982611961565b6107a8576040517f08c379a000000000000000000000000000000000000000000000000000000000815260040161079f906139b5565b60405180910390fd5b6004600083815260200190815260200160002060009054906101000a900473ffffffffffffffffffffffffffffffffffffffff169050919050565b60006107ee82610df6565b90508073ffffffffffffffffffffffffffffffffffffffff168373ffffffffffffffffffffffffffffffffffffffff16141561085f576040517f08c379a000000000000000000000000000000000000000000000000000000000815260040161085690613a55565b60405180910390fd5b8073ffffffffffffffffffffffffffffffffffffffff1661087e611959565b73ffffffffffffffffffffffffffffffffffffffff1614806108ad57506108ac816108a7611959565b611743565b5b6108ec576040517f08c379a00000000000000000000000000000000000000000000000000000000081526004016108e3906138f5565b60405180910390fd5b6108f683836119cd565b505050565b600061090682611a86565b9050919050565b61091e610918611959565b82611ae1565b61095d576040517f08c379a000000000000000000000000000000000000000000000000000000000815260040161095490613a95565b60405180910390fd5b610968838383611bbf565b505050565b6000806000600960008681526020019081526020016000206040518060400160405290816000820160009054906101000a900473ffffffffffffffffffffffffffffffffffffffff1673ffffffffffffffffffffffffffffffffffffffff1673ffffffffffffffffffffffffffffffffffffffff1681526020016000820160149054906101000a90046bffffffffffffffffffffffff166bffffffffffffffffffffffff166bffffffffffffffffffffffff16815250509050600073ffffffffffffffffffffffffffffffffffffffff16816000015173ffffffffffffffffffffffffffffffffffffffff161415610b035760086040518060400160405290816000820160009054906101000a900473ffffffffffffffffffffffffffffffffffffffff1673ffffffffffffffffffffffffffffffffffffffff1673ffffffffffffffffffffffffffffffffffffffff1681526020016000820160149054906101000a90046bffffffffffffffffffffffff166bffffffffffffffffffffffff166bffffffffffffffffffffffff168152505090505b6000610b0d611e1b565b6bffffffffffffffffffffffff1682602001516bffffffffffffffffffffffff1686610b399190613ca8565b610b439190613c77565b90508160000151819350935050509250929050565b816000610b6482610df6565b90503373ffffffffffffffffffffffffffffffffffffffff168173ffffffffffffffffffffffffffffffffffffffff1614610bd4576040517f08c379a0000000000000000000000000000000000000000000000000000000008152600401610bcb90613815565b60405180910390fd5b836000610be082610d0f565b90503373ffffffffffffffffffffffffffffffffffffffff168173ffffffffffffffffffffffffffffffffffffffff1614610c50576040517f08c379a0000000000000000000000000000000000000000000000000000000008152600401610c47906139d5565b60405180910390fd5b610c5a8686611e25565b857f931f495b9a8e5d8e61946ea5d61e021f636cfe213a801f97589c18c152e408bd86604051610c8a91906137d3565b60405180910390a2505050505050565b6000600c60009054906101000a900460ff1615610d0557600b60008373ffffffffffffffffffffffffffffffffffffffff1673ffffffffffffffffffffffffffffffffffffffff16815260200190815260200160002060009054906101000a900460ff169050610d0a565b600190505b919050565b60006010600083815260200190815260200160002060009054906101000a900473ffffffffffffffffffffffffffffffffffffffff169050919050565b610d6783838360405180602001604052806000815250611281565b505050565b806000610d7882610df6565b90503373ffffffffffffffffffffffffffffffffffffffff168173ffffffffffffffffffffffffffffffffffffffff1614610de8576040517f08c379a0000000000000000000000000000000000000000000000000000000008152600401610ddf90613815565b60405180910390fd5b610df183611e99565b505050565b6000806002600084815260200190815260200160002060009054906101000a900473ffffffffffffffffffffffffffffffffffffffff169050600073ffffffffffffffffffffffffffffffffffffffff168173ffffffffffffffffffffffffffffffffffffffff161415610e9f576040517f08c379a0000000000000000000000000000000000000000000000000000000008152600401610e9690613935565b60405180910390fd5b80915050919050565b60008073ffffffffffffffffffffffffffffffffffffffff168273ffffffffffffffffffffffffffffffffffffffff161415610f19576040517f08c379a0000000000000000000000000000000000000000000000000000000008152600401610f1090613915565b60405180910390fd5b600360008373ffffffffffffffffffffffffffffffffffffffff1673ffffffffffffffffffffffffffffffffffffffff168152602001908152602001600020549050919050565b610f68611959565b73ffffffffffffffffffffffffffffffffffffffff16610f866110b3565b73ffffffffffffffffffffffffffffffffffffffff1614610fdc576040517f08c379a0000000000000000000000000000000000000000000000000000000008152600401610fd3906139f5565b60405180910390fd5b610fe66000611eec565b565b610ff0611959565b73ffffffffffffffffffffffffffffffffffffffff1661100e6110b3565b73ffffffffffffffffffffffffffffffffffffffff1614611064576040517f08c379a000000000000000000000000000000000000000000000000000000000815260040161105b906139f5565b60405180910390fd5b61106d81611fb2565b8073ffffffffffffffffffffffffffffffffffffffff167f1f756c8b089af6b33ee121fee8badac2553a2fa89c0575ea91ff8792617746c260405160405180910390a250565b6000600760009054906101000a900473ffffffffffffffffffffffffffffffffffffffff16905090565b6060600180546110ec90613e04565b80601f016020809104026020016040519081016040528092919081815260200182805461111890613e04565b80156111655780601f1061113a57610100808354040283529160200191611165565b820191906000526020600020905b81548152906001019060200180831161114857829003601f168201915b5050505050905090565b61118161117a611959565b838361200d565b5050565b61118d611959565b73ffffffffffffffffffffffffffffffffffffffff166111ab6110b3565b73ffffffffffffffffffffffffffffffffffffffff1614611201576040517f08c379a00000000000000000000000000000000000000000000000000000000081526004016111f8906139f5565b60405180910390fd5b60005b815181101561127d576000828281518110611248577f4e487b7100000000000000000000000000000000000000000000000000000000600052603260045260246000fd5b6020026020010151905061125b81610c9a565b611269576112688161217a565b5b50808061127590613e67565b915050611204565b5050565b61129261128c611959565b83611ae1565b6112d1576040517f08c379a00000000000000000000000000000000000000000000000000000000081526004016112c890613a95565b60405180910390fd5b6112dd848484846121d5565b50505050565b8160006112ef82610d0f565b90503373ffffffffffffffffffffffffffffffffffffffff168173ffffffffffffffffffffffffffffffffffffffff161461135f576040517f08c379a0000000000000000000000000000000000000000000000000000000008152600401611356906139d5565b60405180910390fd5b6000831115611382576000611373846108fb565b9050611380853383612231565b505b50505050565b81600061139482610d0f565b90503373ffffffffffffffffffffffffffffffffffffffff168173ffffffffffffffffffffffffffffffffffffffff1614611404576040517f08c379a00000000000000000000000000000000000000000000000000000000081526004016113fb906139d5565b60405180910390fd5b6000831115611427576000611418846108fb565b9050611425853383612231565b505b50505050565b606061143882611961565b611477576040517f08c379a000000000000000000000000000000000000000000000000000000000815260040161146e90613995565b60405180910390fd5b600060066000848152602001908152602001600020805461149790613e04565b80601f01602080910402602001604051908101604052809291908181526020018280546114c390613e04565b80156115105780601f106114e557610100808354040283529160200191611510565b820191906000526020600020905b8154815290600101906020018083116114f357829003601f168201915b5050505050905060006115216123d9565b905060008151141561153757819250505061157a565b60008251111561156c578082604051602001611554929190613704565b6040516020818303038152906040529250505061157a565b611575846123f0565b925050505b919050565b600061158a33610c9a565b6115c9576040517f08c379a00000000000000000000000000000000000000000000000000000000081526004016115c090613a75565b60405180910390fd5b60006115d5600d612497565b90506115e184826124a5565b6115eb8184611e25565b336010600083815260200190815260200160002060006101000a81548173ffffffffffffffffffffffffffffffffffffffff021916908373ffffffffffffffffffffffffffffffffffffffff160217905550611647600d6124c3565b5092915050565b611656611959565b73ffffffffffffffffffffffffffffffffffffffff166116746110b3565b73ffffffffffffffffffffffffffffffffffffffff16146116ca576040517f08c379a00000000000000000000000000000000000000000000000000000000081526004016116c1906139f5565b60405180910390fd5b6116d38161217a565b8073ffffffffffffffffffffffffffffffffffffffff167f75b2135d1c8c3519f3c09c43fe6527089ef09f40c7981ebf0ed46e79e79032c760405160405180910390a250565b6000600e60009054906101000a900473ffffffffffffffffffffffffffffffffffffffff16905090565b6000600560008473ffffffffffffffffffffffffffffffffffffffff1673ffffffffffffffffffffffffffffffffffffffff16815260200190815260200160002060008373ffffffffffffffffffffffffffffffffffffffff1673ffffffffffffffffffffffffffffffffffffffff16815260200190815260200160002060009054906101000a900460ff16905092915050565b6117df611959565b73ffffffffffffffffffffffffffffffffffffffff166117fd6110b3565b73ffffffffffffffffffffffffffffffffffffffff1614611853576040517f08c379a000000000000000000000000000000000000000000000000000000000815260040161184a906139f5565b60405180910390fd5b600073ffffffffffffffffffffffffffffffffffffffff168173ffffffffffffffffffffffffffffffffffffffff1614156118c3576040517f08c379a00000000000000000000000000000000000000000000000000000000081526004016118ba90613855565b60405180910390fd5b6118cc81611eec565b50565b6118da83838361090d565b505050565b60007f2a55205a000000000000000000000000000000000000000000000000000000007bffffffffffffffffffffffffffffffffffffffffffffffffffffffff1916827bffffffffffffffffffffffffffffffffffffffffffffffffffffffff191614806119525750611951826124d9565b5b9050919050565b600033905090565b60008073ffffffffffffffffffffffffffffffffffffffff166002600084815260200190815260200160002060009054906101000a900473ffffffffffffffffffffffffffffffffffffffff1673ffffffffffffffffffffffffffffffffffffffff1614159050919050565b816004600083815260200190815260200160002060006101000a81548173ffffffffffffffffffffffffffffffffffffffff021916908373ffffffffffffffffffffffffffffffffffffffff160217905550808273ffffffffffffffffffffffffffffffffffffffff16611a4083610df6565b73ffffffffffffffffffffffffffffffffffffffff167f8c5be1e5ebec7d5bd14f71427d1e84f3dd0314c0f7b2291e5b200ac8c7c3b92560405160405180910390a45050565b60006bffffffffffffffffffffffff8016821115611ad9576040517f08c379a0000000000000000000000000000000000000000000000000000000008152600401611ad0906137f5565b60405180910390fd5b819050919050565b6000611aec82611961565b611b2b576040517f08c379a0000000000000000000000000000000000000000000000000000000008152600401611b22906138d5565b60405180910390fd5b6000611b3683610df6565b90508073ffffffffffffffffffffffffffffffffffffffff168473ffffffffffffffffffffffffffffffffffffffff161480611ba557508373ffffffffffffffffffffffffffffffffffffffff16611b8d8461075e565b73ffffffffffffffffffffffffffffffffffffffff16145b80611bb65750611bb58185611743565b5b91505092915050565b8273ffffffffffffffffffffffffffffffffffffffff16611bdf82610df6565b73ffffffffffffffffffffffffffffffffffffffff1614611c35576040517f08c379a0000000000000000000000000000000000000000000000000000000008152600401611c2c90613a15565b60405180910390fd5b600073ffffffffffffffffffffffffffffffffffffffff168273ffffffffffffffffffffffffffffffffffffffff161415611ca5576040517f08c379a0000000000000000000000000000000000000000000000000000000008152600401611c9c90613895565b60405180910390fd5b611cb08383836125bb565b611cbb6000826119cd565b6001600360008573ffffffffffffffffffffffffffffffffffffffff1673ffffffffffffffffffffffffffffffffffffffff1681526020019081526020016000206000828254611d0b9190613d02565b925050819055506001600360008473ffffffffffffffffffffffffffffffffffffffff1673ffffffffffffffffffffffffffffffffffffffff1681526020019081526020016000206000828254611d629190613c21565b92505081905550816002600083815260200190815260200160002060006101000a81548173ffffffffffffffffffffffffffffffffffffffff021916908373ffffffffffffffffffffffffffffffffffffffff160217905550808273ffffffffffffffffffffffffffffffffffffffff168473ffffffffffffffffffffffffffffffffffffffff167fddf252ad1be2c89b69c2b068fc378daa952ba7f163c4a11628f55a4df523b3ef60405160405180910390a4505050565b6000612710905090565b611e2e82611961565b611e6d576040517f08c379a0000000000000000000000000000000000000000000000000000000008152600401611e6490613955565b60405180910390fd5b80600660008481526020019081526020016000209080519060200190611e94929190612cbb565b505050565b611ea2816125c0565b6000600660008381526020019081526020016000208054611ec290613e04565b905014611ee957600660008281526020019081526020016000206000611ee89190612d41565b5b50565b6000600760009054906101000a900473ffffffffffffffffffffffffffffffffffffffff16905081600760006101000a81548173ffffffffffffffffffffffffffffffffffffffff021916908373ffffffffffffffffffffffffffffffffffffffff1602179055508173ffffffffffffffffffffffffffffffffffffffff168173ffffffffffffffffffffffffffffffffffffffff167f8be0079c531659141344cd1fd0a4f28419497f9722a3daafe3b4186f6b6457e060405160405180910390a35050565b6000600b60008373ffffffffffffffffffffffffffffffffffffffff1673ffffffffffffffffffffffffffffffffffffffff16815260200190815260200160002060006101000a81548160ff02191690831515021790555050565b8173ffffffffffffffffffffffffffffffffffffffff168373ffffffffffffffffffffffffffffffffffffffff16141561207c576040517f08c379a0000000000000000000000000000000000000000000000000000000008152600401612073906138b5565b60405180910390fd5b80600560008573ffffffffffffffffffffffffffffffffffffffff1673ffffffffffffffffffffffffffffffffffffffff16815260200190815260200160002060008473ffffffffffffffffffffffffffffffffffffffff1673ffffffffffffffffffffffffffffffffffffffff16815260200190815260200160002060006101000a81548160ff0219169083151502179055508173ffffffffffffffffffffffffffffffffffffffff168373ffffffffffffffffffffffffffffffffffffffff167f17307eab39ab6107e8899845ad3d59bd9653f200f220920489ca2b5937696c318360405161216d91906137b8565b60405180910390a3505050565b6001600b60008373ffffffffffffffffffffffffffffffffffffffff1673ffffffffffffffffffffffffffffffffffffffff16815260200190815260200160002060006101000a81548160ff02191690831515021790555050565b6121e0848484611bbf565b6121ec848484846126d1565b61222b576040517f08c379a000000000000000000000000000000000000000000000000000000000815260040161222290613835565b60405180910390fd5b50505050565b612239611e1b565b6bffffffffffffffffffffffff16816bffffffffffffffffffffffff161115612297576040517f08c379a000000000000000000000000000000000000000000000000000000000815260040161228e90613ad5565b60405180910390fd5b600073ffffffffffffffffffffffffffffffffffffffff168273ffffffffffffffffffffffffffffffffffffffff161415612307576040517f08c379a00000000000000000000000000000000000000000000000000000000081526004016122fe90613ab5565b60405180910390fd5b60405180604001604052808373ffffffffffffffffffffffffffffffffffffffff168152602001826bffffffffffffffffffffffff168152506009600085815260200190815260200160002060008201518160000160006101000a81548173ffffffffffffffffffffffffffffffffffffffff021916908373ffffffffffffffffffffffffffffffffffffffff16021790555060208201518160000160146101000a8154816bffffffffffffffffffffffff02191690836bffffffffffffffffffffffff160217905550905050505050565b606060405180602001604052806000815250905090565b60606123fb82611961565b61243a576040517f08c379a000000000000000000000000000000000000000000000000000000000815260040161243190613a35565b60405180910390fd5b60006124446123d9565b90506000815111612464576040518060200160405280600081525061248f565b8061246e84612868565b60405160200161247f929190613704565b6040516020818303038152906040525b915050919050565b600081600001549050919050565b6124bf828260405180602001604052806000815250612a15565b5050565b6001816000016000828254019250508190555050565b60007f80ac58cd000000000000000000000000000000000000000000000000000000007bffffffffffffffffffffffffffffffffffffffffffffffffffffffff1916827bffffffffffffffffffffffffffffffffffffffffffffffffffffffff191614806125a457507f5b5e139f000000000000000000000000000000000000000000000000000000007bffffffffffffffffffffffffffffffffffffffffffffffffffffffff1916827bffffffffffffffffffffffffffffffffffffffffffffffffffffffff1916145b806125b457506125b382612a70565b5b9050919050565b505050565b60006125cb82610df6565b90506125d9816000846125bb565b6125e46000836119cd565b6001600360008373ffffffffffffffffffffffffffffffffffffffff1673ffffffffffffffffffffffffffffffffffffffff16815260200190815260200160002060008282546126349190613d02565b925050819055506002600083815260200190815260200160002060006101000a81549073ffffffffffffffffffffffffffffffffffffffff021916905581600073ffffffffffffffffffffffffffffffffffffffff168273ffffffffffffffffffffffffffffffffffffffff167fddf252ad1be2c89b69c2b068fc378daa952ba7f163c4a11628f55a4df523b3ef60405160405180910390a45050565b60006126f28473ffffffffffffffffffffffffffffffffffffffff16612ada565b1561285b578373ffffffffffffffffffffffffffffffffffffffff1663150b7a0261271b611959565b8786866040518563ffffffff1660e01b815260040161273d9493929190613743565b602060405180830381600087803b15801561275757600080fd5b505af192505050801561278857506040513d601f19601f8201168201806040525081019061278591906131fb565b60015b61280b573d80600081146127b8576040519150601f19603f3d011682016040523d82523d6000602084013e6127bd565b606091505b50600081511415612803576040517f08c379a00000000000000000000000000000000000000000000000000000000081526004016127fa90613835565b60405180910390fd5b805181602001fd5b63150b7a0260e01b7bffffffffffffffffffffffffffffffffffffffffffffffffffffffff1916817bffffffffffffffffffffffffffffffffffffffffffffffffffffffff191614915050612860565b600190505b949350505050565b606060008214156128b0576040518060400160405280600181526020017f30000000000000000000000000000000000000000000000000000000000000008152509050612a10565b600082905060005b600082146128e25780806128cb90613e67565b915050600a826128db9190613c77565b91506128b8565b60008167ffffffffffffffff811115612924577f4e487b7100000000000000000000000000000000000000000000000000000000600052604160045260246000fd5b6040519080825280601f01601f1916602001820160405280156129565781602001600182028036833780820191505090505b5090505b60008514612a095760018261296f9190613d02565b9150600a8561297e9190613eb0565b603061298a9190613c21565b60f81b8183815181106129c6577f4e487b7100000000000000000000000000000000000000000000000000000000600052603260045260246000fd5b60200101907effffffffffffffffffffffffffffffffffffffffffffffffffffffffffffff1916908160001a905350600a85612a029190613c77565b945061295a565b8093505050505b919050565b612a1f8383612aed565b612a2c60008484846126d1565b612a6b576040517f08c379a0000000000000000000000000000000000000000000000000000000008152600401612a6290613835565b60405180910390fd5b505050565b60007f01ffc9a7000000000000000000000000000000000000000000000000000000007bffffffffffffffffffffffffffffffffffffffffffffffffffffffff1916827bffffffffffffffffffffffffffffffffffffffffffffffffffffffff1916149050919050565b600080823b905060008111915050919050565b600073ffffffffffffffffffffffffffffffffffffffff168273ffffffffffffffffffffffffffffffffffffffff161415612b5d576040517f08c379a0000000000000000000000000000000000000000000000000000000008152600401612b5490613975565b60405180910390fd5b612b6681611961565b15612ba6576040517f08c379a0000000000000000000000000000000000000000000000000000000008152600401612b9d90613875565b60405180910390fd5b612bb2600083836125bb565b6001600360008473ffffffffffffffffffffffffffffffffffffffff1673ffffffffffffffffffffffffffffffffffffffff1681526020019081526020016000206000828254612c029190613c21565b92505081905550816002600083815260200190815260200160002060006101000a81548173ffffffffffffffffffffffffffffffffffffffff021916908373ffffffffffffffffffffffffffffffffffffffff160217905550808273ffffffffffffffffffffffffffffffffffffffff16600073ffffffffffffffffffffffffffffffffffffffff167fddf252ad1be2c89b69c2b068fc378daa952ba7f163c4a11628f55a4df523b3ef60405160405180910390a45050565b828054612cc790613e04565b90600052602060002090601f016020900481019282612ce95760008555612d30565b82601f10612d0257805160ff1916838001178555612d30565b82800160010185558215612d30579182015b82811115612d2f578251825591602001919060010190612d14565b5b509050612d3d9190612d81565b5090565b508054612d4d90613e04565b6000825580601f10612d5f5750612d7e565b601f016020900490600052602060002090810190612d7d9190612d81565b5b50565b5b80821115612d9a576000816000905550600101612d82565b5090565b6000612db1612dac84613b50565b613b2b565b90508083825260208201905082856020860282011115612dd057600080fd5b60005b85811015612e005781612de68882612e86565b845260208401935060208301925050600181019050612dd3565b5050509392505050565b6000612e1d612e1884613b7c565b613b2b565b905082815260208101848484011115612e3557600080fd5b612e40848285613dc2565b509392505050565b6000612e5b612e5684613bad565b613b2b565b905082815260208101848484011115612e7357600080fd5b612e7e848285613dc2565b509392505050565b600081359050612e958161460c565b92915050565b600082601f830112612eac57600080fd5b8135612ebc848260208601612d9e565b91505092915050565b600081359050612ed481614623565b92915050565b600081359050612ee98161463a565b92915050565b600081519050612efe8161463a565b92915050565b600082601f830112612f1557600080fd5b8135612f25848260208601612e0a565b91505092915050565b600082601f830112612f3f57600080fd5b8135612f4f848260208601612e48565b91505092915050565b600081359050612f6781614651565b92915050565b600060208284031215612f7f57600080fd5b6000612f8d84828501612e86565b91505092915050565b60008060408385031215612fa957600080fd5b6000612fb785828601612e86565b9250506020612fc885828601612e86565b9150509250929050565b600080600060608486031215612fe757600080fd5b6000612ff586828701612e86565b935050602061300686828701612e86565b925050604061301786828701612f58565b9150509250925092565b6000806000806080858703121561303757600080fd5b600061304587828801612e86565b945050602061305687828801612e86565b935050604061306787828801612f58565b925050606085013567ffffffffffffffff81111561308457600080fd5b61309087828801612f04565b91505092959194509250565b600080604083850312156130af57600080fd5b60006130bd85828601612e86565b92505060206130ce85828601612ec5565b9150509250929050565b600080604083850312156130eb57600080fd5b60006130f985828601612e86565b925050602083013567ffffffffffffffff81111561311657600080fd5b61312285828601612f2e565b9150509250929050565b6000806040838503121561313f57600080fd5b600061314d85828601612e86565b925050602061315e85828601612f58565b9150509250929050565b60006020828403121561317a57600080fd5b600082013567ffffffffffffffff81111561319457600080fd5b6131a084828501612e9b565b91505092915050565b6000602082840312156131bb57600080fd5b60006131c984828501612ec5565b91505092915050565b6000602082840312156131e457600080fd5b60006131f284828501612eda565b91505092915050565b60006020828403121561320d57600080fd5b600061321b84828501612eef565b91505092915050565b60006020828403121561323657600080fd5b600061324484828501612f58565b91505092915050565b6000806040838503121561326057600080fd5b600061326e85828601612f58565b925050602083013567ffffffffffffffff81111561328b57600080fd5b61329785828601612f2e565b9150509250929050565b600080604083850312156132b457600080fd5b60006132c285828601612f58565b92505060206132d385828601612f58565b9150509250929050565b6132e681613d36565b82525050565b6132f581613d48565b82525050565b600061330682613bde565b6133108185613bf4565b9350613320818560208601613dd1565b61332981613f9d565b840191505092915050565b600061333f82613be9565b6133498185613c05565b9350613359818560208601613dd1565b61336281613f9d565b840191505092915050565b600061337882613be9565b6133828185613c16565b9350613392818560208601613dd1565b80840191505092915050565b60006133ab602683613c05565b91506133b682613fae565b604082019050919050565b60006133ce601783613c05565b91506133d982613ffd565b602082019050919050565b60006133f1603283613c05565b91506133fc82614026565b604082019050919050565b6000613414602683613c05565b915061341f82614075565b604082019050919050565b6000613437601c83613c05565b9150613442826140c4565b602082019050919050565b600061345a602483613c05565b9150613465826140ed565b604082019050919050565b600061347d601983613c05565b91506134888261413c565b602082019050919050565b60006134a0602c83613c05565b91506134ab82614165565b604082019050919050565b60006134c3603883613c05565b91506134ce826141b4565b604082019050919050565b60006134e6602a83613c05565b91506134f182614203565b604082019050919050565b6000613509602983613c05565b915061351482614252565b604082019050919050565b600061352c602e83613c05565b9150613537826142a1565b604082019050919050565b600061354f602083613c05565b915061355a826142f0565b602082019050919050565b6000613572603183613c05565b915061357d82614319565b604082019050919050565b6000613595602c83613c05565b91506135a082614368565b604082019050919050565b60006135b8601983613c05565b91506135c3826143b7565b602082019050919050565b60006135db602083613c05565b91506135e6826143e0565b602082019050919050565b60006135fe602983613c05565b915061360982614409565b604082019050919050565b6000613621602f83613c05565b915061362c82614458565b604082019050919050565b6000613644602183613c05565b915061364f826144a7565b604082019050919050565b6000613667602483613c05565b9150613672826144f6565b604082019050919050565b600061368a603183613c05565b915061369582614545565b604082019050919050565b60006136ad601b83613c05565b91506136b882614594565b602082019050919050565b60006136d0602a83613c05565b91506136db826145bd565b604082019050919050565b6136ef81613da0565b82525050565b6136fe81613daa565b82525050565b6000613710828561336d565b915061371c828461336d565b91508190509392505050565b600060208201905061373d60008301846132dd565b92915050565b600060808201905061375860008301876132dd565b61376560208301866132dd565b61377260408301856136e6565b818103606083015261378481846132fb565b905095945050505050565b60006040820190506137a460008301856132dd565b6137b160208301846136e6565b9392505050565b60006020820190506137cd60008301846132ec565b92915050565b600060208201905081810360008301526137ed8184613334565b905092915050565b6000602082019050818103600083015261380e8161339e565b9050919050565b6000602082019050818103600083015261382e816133c1565b9050919050565b6000602082019050818103600083015261384e816133e4565b9050919050565b6000602082019050818103600083015261386e81613407565b9050919050565b6000602082019050818103600083015261388e8161342a565b9050919050565b600060208201905081810360008301526138ae8161344d565b9050919050565b600060208201905081810360008301526138ce81613470565b9050919050565b600060208201905081810360008301526138ee81613493565b9050919050565b6000602082019050818103600083015261390e816134b6565b9050919050565b6000602082019050818103600083015261392e816134d9565b9050919050565b6000602082019050818103600083015261394e816134fc565b9050919050565b6000602082019050818103600083015261396e8161351f565b9050919050565b6000602082019050818103600083015261398e81613542565b9050919050565b600060208201905081810360008301526139ae81613565565b9050919050565b600060208201905081810360008301526139ce81613588565b9050919050565b600060208201905081810360008301526139ee816135ab565b9050919050565b60006020820190508181036000830152613a0e816135ce565b9050919050565b60006020820190508181036000830152613a2e816135f1565b9050919050565b60006020820190508181036000830152613a4e81613614565b9050919050565b60006020820190508181036000830152613a6e81613637565b9050919050565b60006020820190508181036000830152613a8e8161365a565b9050919050565b60006020820190508181036000830152613aae8161367d565b9050919050565b60006020820190508181036000830152613ace816136a0565b9050919050565b60006020820190508181036000830152613aee816136c3565b9050919050565b6000602082019050613b0a60008301846136e6565b92915050565b6000602082019050613b2560008301846136f5565b92915050565b6000613b35613b46565b9050613b418282613e36565b919050565b6000604051905090565b600067ffffffffffffffff821115613b6b57613b6a613f6e565b5b602082029050602081019050919050565b600067ffffffffffffffff821115613b9757613b96613f6e565b5b613ba082613f9d565b9050602081019050919050565b600067ffffffffffffffff821115613bc857613bc7613f6e565b5b613bd182613f9d565b9050602081019050919050565b600081519050919050565b600081519050919050565b600082825260208201905092915050565b600082825260208201905092915050565b600081905092915050565b6000613c2c82613da0565b9150613c3783613da0565b9250827fffffffffffffffffffffffffffffffffffffffffffffffffffffffffffffffff03821115613c6c57613c6b613ee1565b5b828201905092915050565b6000613c8282613da0565b9150613c8d83613da0565b925082613c9d57613c9c613f10565b5b828204905092915050565b6000613cb382613da0565b9150613cbe83613da0565b9250817fffffffffffffffffffffffffffffffffffffffffffffffffffffffffffffffff0483118215151615613cf757613cf6613ee1565b5b828202905092915050565b6000613d0d82613da0565b9150613d1883613da0565b925082821015613d2b57613d2a613ee1565b5b828203905092915050565b6000613d4182613d80565b9050919050565b60008115159050919050565b60007fffffffff0000000000000000000000000000000000000000000000000000000082169050919050565b600073ffffffffffffffffffffffffffffffffffffffff82169050919050565b6000819050919050565b60006bffffffffffffffffffffffff82169050919050565b82818337600083830152505050565b60005b83811015613def578082015181840152602081019050613dd4565b83811115613dfe576000848401525b50505050565b60006002820490506001821680613e1c57607f821691505b60208210811415613e3057613e2f613f3f565b5b50919050565b613e3f82613f9d565b810181811067ffffffffffffffff82111715613e5e57613e5d613f6e565b5b80604052505050565b6000613e7282613da0565b91507fffffffffffffffffffffffffffffffffffffffffffffffffffffffffffffffff821415613ea557613ea4613ee1565b5b600182019050919050565b6000613ebb82613da0565b9150613ec683613da0565b925082613ed657613ed5613f10565b5b828206905092915050565b7f4e487b7100000000000000000000000000000000000000000000000000000000600052601160045260246000fd5b7f4e487b7100000000000000000000000000000000000000000000000000000000600052601260045260246000fd5b7f4e487b7100000000000000000000000000000000000000000000000000000000600052602260045260246000fd5b7f4e487b7100000000000000000000000000000000000000000000000000000000600052604160045260246000fd5b6000601f19601f8301169050919050565b7f53616665436173743a2076616c756520646f65736e27742066697420696e203960008201527f3620626974730000000000000000000000000000000000000000000000000000602082015250565b7f43616c6c6572206973206e6f7420746865206f776e6572000000000000000000600082015250565b7f4552433732313a207472616e7366657220746f206e6f6e20455243373231526560008201527f63656976657220696d706c656d656e7465720000000000000000000000000000602082015250565b7f4f776e61626c653a206e6577206f776e657220697320746865207a65726f206160008201527f6464726573730000000000000000000000000000000000000000000000000000602082015250565b7f4552433732313a20746f6b656e20616c7265616479206d696e74656400000000600082015250565b7f4552433732313a207472616e7366657220746f20746865207a65726f2061646460008201527f7265737300000000000000000000000000000000000000000000000000000000602082015250565b7f4552433732313a20617070726f766520746f2063616c6c657200000000000000600082015250565b7f4552433732313a206f70657261746f7220717565727920666f72206e6f6e657860008201527f697374656e7420746f6b656e0000000000000000000000000000000000000000602082015250565b7f4552433732313a20617070726f76652063616c6c6572206973206e6f74206f7760008201527f6e6572206e6f7220617070726f76656420666f7220616c6c0000000000000000602082015250565b7f4552433732313a2062616c616e636520717565727920666f7220746865207a6560008201527f726f206164647265737300000000000000000000000000000000000000000000602082015250565b7f4552433732313a206f776e657220717565727920666f72206e6f6e657869737460008201527f656e7420746f6b656e0000000000000000000000000000000000000000000000602082015250565b7f45524337323155524953746f726167653a2055524920736574206f66206e6f6e60008201527f6578697374656e7420746f6b656e000000000000000000000000000000000000602082015250565b7f4552433732313a206d696e7420746f20746865207a65726f2061646472657373600082015250565b7f45524337323155524953746f726167653a2055524920717565727920666f722060008201527f6e6f6e6578697374656e7420746f6b656e000000000000000000000000000000602082015250565b7f4552433732313a20617070726f76656420717565727920666f72206e6f6e657860008201527f697374656e7420746f6b656e0000000000000000000000000000000000000000602082015250565b7f43616c6c6572206973206e6f74207468652063726561746f7200000000000000600082015250565b7f4f776e61626c653a2063616c6c6572206973206e6f7420746865206f776e6572600082015250565b7f4552433732313a207472616e73666572206f6620746f6b656e2074686174206960008201527f73206e6f74206f776e0000000000000000000000000000000000000000000000602082015250565b7f4552433732314d657461646174613a2055524920717565727920666f72206e6f60008201527f6e6578697374656e7420746f6b656e0000000000000000000000000000000000602082015250565b7f4552433732313a20617070726f76616c20746f2063757272656e74206f776e6560008201527f7200000000000000000000000000000000000000000000000000000000000000602082015250565b7f4d7573742062652077686974656c697374656420746f2063726561746520746f60008201527f6b656e7300000000000000000000000000000000000000000000000000000000602082015250565b7f4552433732313a207472616e736665722063616c6c6572206973206e6f74206f60008201527f776e6572206e6f7220617070726f766564000000000000000000000000000000602082015250565b7f455243323938313a20496e76616c696420706172616d65746572730000000000600082015250565b7f455243323938313a20726f79616c7479206665652077696c6c2065786365656460008201527f2073616c65507269636500000000000000000000000000000000000000000000602082015250565b61461581613d36565b811461462057600080fd5b50565b61462c81613d48565b811461463757600080fd5b50565b61464381613d54565b811461464e57600080fd5b50565b61465a81613da0565b811461466557600080fd5b5056fea2646970667358221220db44b99a23d4d46927a5a8779441db4c78b69fc551a478875f766db9a35d297664736f6c63430008040033",
  "linkReferences": {},
  "deployedLinkReferences": {}
}